{
	"contracts/FarmingC2N.sol": {
		"FarmingC2N": {
			"abi": [
				{
					"inputs": [
						{
							"internalType": "contract IERC20",
							"name": "_erc20",
							"type": "address"
						},
						{
							"internalType": "uint256",
							"name": "_rewardPerSecond",
							"type": "uint256"
						},
						{
							"internalType": "uint256",
							"name": "_startTimestamp",
							"type": "uint256"
						}
					],
					"stateMutability": "nonpayable",
					"type": "constructor"
				},
				{
					"inputs": [
						{
							"internalType": "address",
							"name": "target",
							"type": "address"
						}
					],
					"name": "AddressEmptyCode",
					"type": "error"
				},
				{
					"inputs": [
						{
							"internalType": "address",
							"name": "account",
							"type": "address"
						}
					],
					"name": "AddressInsufficientBalance",
					"type": "error"
				},
				{
					"inputs": [],
					"name": "FailedInnerCall",
					"type": "error"
				},
				{
					"inputs": [],
					"name": "MathOverflowedMulDiv",
					"type": "error"
				},
				{
					"inputs": [
						{
							"internalType": "address",
							"name": "owner",
							"type": "address"
						}
					],
					"name": "OwnableInvalidOwner",
					"type": "error"
				},
				{
					"inputs": [
						{
							"internalType": "address",
							"name": "account",
							"type": "address"
						}
					],
					"name": "OwnableUnauthorizedAccount",
					"type": "error"
				},
				{
					"inputs": [
						{
							"internalType": "address",
							"name": "token",
							"type": "address"
						}
					],
					"name": "SafeERC20FailedOperation",
					"type": "error"
				},
				{
					"anonymous": false,
					"inputs": [
						{
							"indexed": true,
							"internalType": "address",
							"name": "user",
							"type": "address"
						},
						{
							"indexed": true,
							"internalType": "uint256",
							"name": "pid",
							"type": "uint256"
						},
						{
							"indexed": false,
							"internalType": "uint256",
							"name": "amount",
							"type": "uint256"
						}
					],
					"name": "Deposit",
					"type": "event"
				},
				{
					"anonymous": false,
					"inputs": [
						{
							"indexed": true,
							"internalType": "address",
							"name": "user",
							"type": "address"
						},
						{
							"indexed": true,
							"internalType": "uint256",
							"name": "pid",
							"type": "uint256"
						},
						{
							"indexed": false,
							"internalType": "uint256",
							"name": "amount",
							"type": "uint256"
						}
					],
					"name": "EmergencyWithdraw",
					"type": "event"
				},
				{
					"anonymous": false,
					"inputs": [
						{
							"indexed": true,
							"internalType": "address",
							"name": "previousOwner",
							"type": "address"
						},
						{
							"indexed": true,
							"internalType": "address",
							"name": "newOwner",
							"type": "address"
						}
					],
					"name": "OwnershipTransferred",
					"type": "event"
				},
				{
					"anonymous": false,
					"inputs": [
						{
							"indexed": true,
							"internalType": "address",
							"name": "user",
							"type": "address"
						},
						{
							"indexed": true,
							"internalType": "uint256",
							"name": "pid",
							"type": "uint256"
						},
						{
							"indexed": false,
							"internalType": "uint256",
							"name": "amount",
							"type": "uint256"
						}
					],
					"name": "Withdraw",
					"type": "event"
				},
				{
					"inputs": [
						{
							"internalType": "uint256",
							"name": "_allocPoint",
							"type": "uint256"
						},
						{
							"internalType": "contract IERC20",
							"name": "_lpToken",
							"type": "address"
						},
						{
							"internalType": "bool",
							"name": "_withUpdate",
							"type": "bool"
						}
					],
					"name": "add",
					"outputs": [],
					"stateMutability": "nonpayable",
					"type": "function"
				},
				{
					"inputs": [
						{
							"internalType": "uint256",
							"name": "_pid",
							"type": "uint256"
						},
						{
							"internalType": "uint256",
							"name": "_amount",
							"type": "uint256"
						}
					],
					"name": "deposit",
					"outputs": [],
					"stateMutability": "nonpayable",
					"type": "function"
				},
				{
					"inputs": [
						{
							"internalType": "uint256",
							"name": "_pid",
							"type": "uint256"
						},
						{
							"internalType": "address",
							"name": "_user",
							"type": "address"
						}
					],
					"name": "deposited",
					"outputs": [
						{
							"internalType": "uint256",
							"name": "",
							"type": "uint256"
						}
					],
					"stateMutability": "view",
					"type": "function"
				},
				{
					"inputs": [
						{
							"internalType": "uint256",
							"name": "_pid",
							"type": "uint256"
						}
					],
					"name": "emergencyWithdraw",
					"outputs": [],
					"stateMutability": "nonpayable",
					"type": "function"
				},
				{
					"inputs": [],
					"name": "endTimestamp",
					"outputs": [
						{
							"internalType": "uint256",
							"name": "",
							"type": "uint256"
						}
					],
					"stateMutability": "view",
					"type": "function"
				},
				{
					"inputs": [],
					"name": "erc20",
					"outputs": [
						{
							"internalType": "contract IERC20",
							"name": "",
							"type": "address"
						}
					],
					"stateMutability": "view",
					"type": "function"
				},
				{
					"inputs": [
						{
							"internalType": "uint256",
							"name": "_amount",
							"type": "uint256"
						}
					],
					"name": "fund",
					"outputs": [],
					"stateMutability": "nonpayable",
					"type": "function"
				},
				{
					"inputs": [],
					"name": "massUpdatePools",
					"outputs": [],
					"stateMutability": "nonpayable",
					"type": "function"
				},
				{
					"inputs": [],
					"name": "owner",
					"outputs": [
						{
							"internalType": "address",
							"name": "",
							"type": "address"
						}
					],
					"stateMutability": "view",
					"type": "function"
				},
				{
					"inputs": [],
					"name": "paidOut",
					"outputs": [
						{
							"internalType": "uint256",
							"name": "",
							"type": "uint256"
						}
					],
					"stateMutability": "view",
					"type": "function"
				},
				{
					"inputs": [
						{
							"internalType": "uint256",
							"name": "_pid",
							"type": "uint256"
						},
						{
							"internalType": "address",
							"name": "_user",
							"type": "address"
						}
					],
					"name": "pending",
					"outputs": [
						{
							"internalType": "uint256",
							"name": "",
							"type": "uint256"
						}
					],
					"stateMutability": "view",
					"type": "function"
				},
				{
					"inputs": [
						{
							"internalType": "uint256",
							"name": "",
							"type": "uint256"
						}
					],
					"name": "poolInfo",
					"outputs": [
						{
							"internalType": "contract IERC20",
							"name": "lpToken",
							"type": "address"
						},
						{
							"internalType": "uint256",
							"name": "allocPoint",
							"type": "uint256"
						},
						{
							"internalType": "uint256",
							"name": "lastRewardTimestamp",
							"type": "uint256"
						},
						{
							"internalType": "uint256",
							"name": "accERC20PerShare",
							"type": "uint256"
						},
						{
							"internalType": "uint256",
							"name": "totalDeposits",
							"type": "uint256"
						}
					],
					"stateMutability": "view",
					"type": "function"
				},
				{
					"inputs": [],
					"name": "poolLength",
					"outputs": [
						{
							"internalType": "uint256",
							"name": "",
							"type": "uint256"
						}
					],
					"stateMutability": "view",
					"type": "function"
				},
				{
					"inputs": [],
					"name": "renounceOwnership",
					"outputs": [],
					"stateMutability": "nonpayable",
					"type": "function"
				},
				{
					"inputs": [],
					"name": "rewardPerSecond",
					"outputs": [
						{
							"internalType": "uint256",
							"name": "",
							"type": "uint256"
						}
					],
					"stateMutability": "view",
					"type": "function"
				},
				{
					"inputs": [
						{
							"internalType": "uint256",
							"name": "_pid",
							"type": "uint256"
						},
						{
							"internalType": "uint256",
							"name": "_allocPoint",
							"type": "uint256"
						},
						{
							"internalType": "bool",
							"name": "_withUpdate",
							"type": "bool"
						}
					],
					"name": "set",
					"outputs": [],
					"stateMutability": "nonpayable",
					"type": "function"
				},
				{
					"inputs": [],
					"name": "startTimestamp",
					"outputs": [
						{
							"internalType": "uint256",
							"name": "",
							"type": "uint256"
						}
					],
					"stateMutability": "view",
					"type": "function"
				},
				{
					"inputs": [],
					"name": "totalAllocPoint",
					"outputs": [
						{
							"internalType": "uint256",
							"name": "",
							"type": "uint256"
						}
					],
					"stateMutability": "view",
					"type": "function"
				},
				{
					"inputs": [],
					"name": "totalPending",
					"outputs": [
						{
							"internalType": "uint256",
							"name": "",
							"type": "uint256"
						}
					],
					"stateMutability": "view",
					"type": "function"
				},
				{
					"inputs": [],
					"name": "totalRewards",
					"outputs": [
						{
							"internalType": "uint256",
							"name": "",
							"type": "uint256"
						}
					],
					"stateMutability": "view",
					"type": "function"
				},
				{
					"inputs": [
						{
							"internalType": "address",
							"name": "newOwner",
							"type": "address"
						}
					],
					"name": "transferOwnership",
					"outputs": [],
					"stateMutability": "nonpayable",
					"type": "function"
				},
				{
					"inputs": [
						{
							"internalType": "uint256",
							"name": "_pid",
							"type": "uint256"
						}
					],
					"name": "updatePool",
					"outputs": [],
					"stateMutability": "nonpayable",
					"type": "function"
				},
				{
					"inputs": [
						{
							"internalType": "uint256",
							"name": "",
							"type": "uint256"
						},
						{
							"internalType": "address",
							"name": "",
							"type": "address"
						}
					],
					"name": "userInfo",
					"outputs": [
						{
							"internalType": "uint256",
							"name": "amount",
							"type": "uint256"
						},
						{
							"internalType": "uint256",
							"name": "rewardDebt",
							"type": "uint256"
						}
					],
					"stateMutability": "view",
					"type": "function"
				},
				{
					"inputs": [
						{
							"internalType": "uint256",
							"name": "_pid",
							"type": "uint256"
						},
						{
							"internalType": "uint256",
							"name": "_amount",
							"type": "uint256"
						}
					],
					"name": "withdraw",
					"outputs": [],
					"stateMutability": "nonpayable",
					"type": "function"
				}
			],
			"devdoc": {
				"errors": {
					"AddressEmptyCode(address)": [
						{
							"details": "There's no code at `target` (it is not a contract)."
						}
					],
					"AddressInsufficientBalance(address)": [
						{
							"details": "The ETH balance of the account is not enough to perform the operation."
						}
					],
					"FailedInnerCall()": [
						{
							"details": "A call to an address target failed. The target may have reverted."
						}
					],
					"MathOverflowedMulDiv()": [
						{
							"details": "Muldiv operation overflow."
						}
					],
					"OwnableInvalidOwner(address)": [
						{
							"details": "The owner is not a valid owner account. (eg. `address(0)`)"
						}
					],
					"OwnableUnauthorizedAccount(address)": [
						{
							"details": "The caller account is not authorized to perform an operation."
						}
					],
					"SafeERC20FailedOperation(address)": [
						{
							"details": "An operation with an ERC20 token failed."
						}
					]
				},
				"kind": "dev",
				"methods": {
					"owner()": {
						"details": "Returns the address of the current owner."
					},
					"renounceOwnership()": {
						"details": "Leaves the contract without owner. It will not be possible to call `onlyOwner` functions. Can only be called by the current owner. NOTE: Renouncing ownership will leave the contract without an owner, thereby disabling any functionality that is only available to the owner."
					},
					"transferOwnership(address)": {
						"details": "Transfers ownership of the contract to a new account (`newOwner`). Can only be called by the current owner."
					}
				},
				"version": 1
			},
			"evm": {
				"assembly": "    /* \"contracts/FarmingC2N.sol\":406:11419  contract FarmingC2N is Ownable {... */\n  mstore(0x40, 0x80)\n    /* \"contracts/FarmingC2N.sol\":2179:2465  constructor(... */\n  callvalue\n  dup1\n  iszero\n  tag_1\n  jumpi\n  0x00\n  dup1\n  revert\ntag_1:\n  pop\n  mload(0x40)\n  sub(codesize, bytecodeSize)\n  dup1\n  bytecodeSize\n  dup4\n  codecopy\n  dup2\n  dup2\n  add\n  0x40\n  mstore\n  dup2\n  add\n  swap1\n  tag_2\n  swap2\n  swap1\n  tag_3\n  jump\t// in\ntag_2:\n    /* \"contracts/FarmingC2N.sol\":2296:2306  msg.sender */\n  caller\n    /* \"@openzeppelin/contracts/access/Ownable.sol\":1297:1298  0 */\n  0x00\n    /* \"@openzeppelin/contracts/access/Ownable.sol\":1273:1299  initialOwner == address(0) */\n  0xffffffffffffffffffffffffffffffffffffffff\n  and\n    /* \"@openzeppelin/contracts/access/Ownable.sol\":1273:1285  initialOwner */\n  dup2\n    /* \"@openzeppelin/contracts/access/Ownable.sol\":1273:1299  initialOwner == address(0) */\n  0xffffffffffffffffffffffffffffffffffffffff\n  and\n  sub\n    /* \"@openzeppelin/contracts/access/Ownable.sol\":1269:1364  if (initialOwner == address(0)) {... */\n  tag_7\n  jumpi\n    /* \"@openzeppelin/contracts/access/Ownable.sol\":1350:1351  0 */\n  0x00\n    /* \"@openzeppelin/contracts/access/Ownable.sol\":1322:1353  OwnableInvalidOwner(address(0)) */\n  mload(0x40)\n  0x1e4fbdf700000000000000000000000000000000000000000000000000000000\n  dup2\n  mstore\n  0x04\n  add\n  tag_8\n  swap2\n  swap1\n  tag_9\n  jump\t// in\ntag_8:\n  mload(0x40)\n  dup1\n  swap2\n  sub\n  swap1\n  revert\n    /* \"@openzeppelin/contracts/access/Ownable.sol\":1269:1364  if (initialOwner == address(0)) {... */\ntag_7:\n    /* \"@openzeppelin/contracts/access/Ownable.sol\":1373:1405  _transferOwnership(initialOwner) */\n  tag_10\n    /* \"@openzeppelin/contracts/access/Ownable.sol\":1392:1404  initialOwner */\n  dup2\n    /* \"@openzeppelin/contracts/access/Ownable.sol\":1373:1391  _transferOwnership */\n  shl(0x20, tag_11)\n    /* \"@openzeppelin/contracts/access/Ownable.sol\":1373:1405  _transferOwnership(initialOwner) */\n  0x20\n  shr\n  jump\t// in\ntag_10:\n    /* \"@openzeppelin/contracts/access/Ownable.sol\":1225:1412  constructor(address initialOwner) {... */\n  pop\n    /* \"contracts/FarmingC2N.sol\":2326:2332  _erc20 */\n  dup3\n    /* \"contracts/FarmingC2N.sol\":2318:2323  erc20 */\n  0x01\n  0x00\n    /* \"contracts/FarmingC2N.sol\":2318:2332  erc20 = _erc20 */\n  0x0100\n  exp\n  dup2\n  sload\n  dup2\n  0xffffffffffffffffffffffffffffffffffffffff\n  mul\n  not\n  and\n  swap1\n  dup4\n  0xffffffffffffffffffffffffffffffffffffffff\n  and\n  mul\n  or\n  swap1\n  sstore\n  pop\n    /* \"contracts/FarmingC2N.sol\":2360:2376  _rewardPerSecond */\n  dup2\n    /* \"contracts/FarmingC2N.sol\":2342:2357  rewardPerSecond */\n  0x03\n    /* \"contracts/FarmingC2N.sol\":2342:2376  rewardPerSecond = _rewardPerSecond */\n  dup2\n  swap1\n  sstore\n  pop\n    /* \"contracts/FarmingC2N.sol\":2403:2418  _startTimestamp */\n  dup1\n    /* \"contracts/FarmingC2N.sol\":2386:2400  startTimestamp */\n  0x08\n    /* \"contracts/FarmingC2N.sol\":2386:2418  startTimestamp = _startTimestamp */\n  dup2\n  swap1\n  sstore\n  pop\n    /* \"contracts/FarmingC2N.sol\":2443:2458  _startTimestamp */\n  dup1\n    /* \"contracts/FarmingC2N.sol\":2428:2440  endTimestamp */\n  0x09\n    /* \"contracts/FarmingC2N.sol\":2428:2458  endTimestamp = _startTimestamp */\n  dup2\n  swap1\n  sstore\n  pop\n    /* \"contracts/FarmingC2N.sol\":2179:2465  constructor(... */\n  pop\n  pop\n  pop\n    /* \"contracts/FarmingC2N.sol\":406:11419  contract FarmingC2N is Ownable {... */\n  jump(tag_13)\n    /* \"@openzeppelin/contracts/access/Ownable.sol\":2912:3099  function _transferOwnership(address newOwner) internal virtual {... */\ntag_11:\n    /* \"@openzeppelin/contracts/access/Ownable.sol\":2985:3001  address oldOwner */\n  0x00\n    /* \"@openzeppelin/contracts/access/Ownable.sol\":3004:3010  _owner */\n  dup1\n  0x00\n  swap1\n  sload\n  swap1\n  0x0100\n  exp\n  swap1\n  div\n  0xffffffffffffffffffffffffffffffffffffffff\n  and\n    /* \"@openzeppelin/contracts/access/Ownable.sol\":2985:3010  address oldOwner = _owner */\n  swap1\n  pop\n    /* \"@openzeppelin/contracts/access/Ownable.sol\":3029:3037  newOwner */\n  dup2\n    /* \"@openzeppelin/contracts/access/Ownable.sol\":3020:3026  _owner */\n  0x00\n  dup1\n    /* \"@openzeppelin/contracts/access/Ownable.sol\":3020:3037  _owner = newOwner */\n  0x0100\n  exp\n  dup2\n  sload\n  dup2\n  0xffffffffffffffffffffffffffffffffffffffff\n  mul\n  not\n  and\n  swap1\n  dup4\n  0xffffffffffffffffffffffffffffffffffffffff\n  and\n  mul\n  or\n  swap1\n  sstore\n  pop\n    /* \"@openzeppelin/contracts/access/Ownable.sol\":3083:3091  newOwner */\n  dup2\n    /* \"@openzeppelin/contracts/access/Ownable.sol\":3052:3092  OwnershipTransferred(oldOwner, newOwner) */\n  0xffffffffffffffffffffffffffffffffffffffff\n  and\n    /* \"@openzeppelin/contracts/access/Ownable.sol\":3073:3081  oldOwner */\n  dup2\n    /* \"@openzeppelin/contracts/access/Ownable.sol\":3052:3092  OwnershipTransferred(oldOwner, newOwner) */\n  0xffffffffffffffffffffffffffffffffffffffff\n  and\n  0x8be0079c531659141344cd1fd0a4f28419497f9722a3daafe3b4186f6b6457e0\n  mload(0x40)\n  mload(0x40)\n  dup1\n  swap2\n  sub\n  swap1\n  log3\n    /* \"@openzeppelin/contracts/access/Ownable.sol\":2975:3099  {... */\n  pop\n    /* \"@openzeppelin/contracts/access/Ownable.sol\":2912:3099  function _transferOwnership(address newOwner) internal virtual {... */\n  pop\n  jump\t// out\n    /* \"#utility.yul\":88:205   */\ntag_16:\n    /* \"#utility.yul\":197:198   */\n  0x00\n    /* \"#utility.yul\":194:195   */\n  dup1\n    /* \"#utility.yul\":187:199   */\n  revert\n    /* \"#utility.yul\":334:460   */\ntag_18:\n    /* \"#utility.yul\":371:378   */\n  0x00\n    /* \"#utility.yul\":411:453   */\n  0xffffffffffffffffffffffffffffffffffffffff\n    /* \"#utility.yul\":404:409   */\n  dup3\n    /* \"#utility.yul\":400:454   */\n  and\n    /* \"#utility.yul\":389:454   */\n  swap1\n  pop\n    /* \"#utility.yul\":334:460   */\n  swap2\n  swap1\n  pop\n  jump\t// out\n    /* \"#utility.yul\":466:562   */\ntag_19:\n    /* \"#utility.yul\":503:510   */\n  0x00\n    /* \"#utility.yul\":532:556   */\n  tag_33\n    /* \"#utility.yul\":550:555   */\n  dup3\n    /* \"#utility.yul\":532:556   */\n  tag_18\n  jump\t// in\ntag_33:\n    /* \"#utility.yul\":521:556   */\n  swap1\n  pop\n    /* \"#utility.yul\":466:562   */\n  swap2\n  swap1\n  pop\n  jump\t// out\n    /* \"#utility.yul\":568:678   */\ntag_20:\n    /* \"#utility.yul\":619:626   */\n  0x00\n    /* \"#utility.yul\":648:672   */\n  tag_35\n    /* \"#utility.yul\":666:671   */\n  dup3\n    /* \"#utility.yul\":648:672   */\n  tag_19\n  jump\t// in\ntag_35:\n    /* \"#utility.yul\":637:672   */\n  swap1\n  pop\n    /* \"#utility.yul\":568:678   */\n  swap2\n  swap1\n  pop\n  jump\t// out\n    /* \"#utility.yul\":684:834   */\ntag_21:\n    /* \"#utility.yul\":771:809   */\n  tag_37\n    /* \"#utility.yul\":803:808   */\n  dup2\n    /* \"#utility.yul\":771:809   */\n  tag_20\n  jump\t// in\ntag_37:\n    /* \"#utility.yul\":764:769   */\n  dup2\n    /* \"#utility.yul\":761:810   */\n  eq\n    /* \"#utility.yul\":751:828   */\n  tag_38\n  jumpi\n    /* \"#utility.yul\":824:825   */\n  0x00\n    /* \"#utility.yul\":821:822   */\n  dup1\n    /* \"#utility.yul\":814:826   */\n  revert\n    /* \"#utility.yul\":751:828   */\ntag_38:\n    /* \"#utility.yul\":684:834   */\n  pop\n  jump\t// out\n    /* \"#utility.yul\":840:1011   */\ntag_22:\n    /* \"#utility.yul\":911:916   */\n  0x00\n    /* \"#utility.yul\":942:948   */\n  dup2\n    /* \"#utility.yul\":936:949   */\n  mload\n    /* \"#utility.yul\":927:949   */\n  swap1\n  pop\n    /* \"#utility.yul\":958:1005   */\n  tag_40\n    /* \"#utility.yul\":999:1004   */\n  dup2\n    /* \"#utility.yul\":958:1005   */\n  tag_21\n  jump\t// in\ntag_40:\n    /* \"#utility.yul\":840:1011   */\n  swap3\n  swap2\n  pop\n  pop\n  jump\t// out\n    /* \"#utility.yul\":1017:1094   */\ntag_23:\n    /* \"#utility.yul\":1054:1061   */\n  0x00\n    /* \"#utility.yul\":1083:1088   */\n  dup2\n    /* \"#utility.yul\":1072:1088   */\n  swap1\n  pop\n    /* \"#utility.yul\":1017:1094   */\n  swap2\n  swap1\n  pop\n  jump\t// out\n    /* \"#utility.yul\":1100:1222   */\ntag_24:\n    /* \"#utility.yul\":1173:1197   */\n  tag_43\n    /* \"#utility.yul\":1191:1196   */\n  dup2\n    /* \"#utility.yul\":1173:1197   */\n  tag_23\n  jump\t// in\ntag_43:\n    /* \"#utility.yul\":1166:1171   */\n  dup2\n    /* \"#utility.yul\":1163:1198   */\n  eq\n    /* \"#utility.yul\":1153:1216   */\n  tag_44\n  jumpi\n    /* \"#utility.yul\":1212:1213   */\n  0x00\n    /* \"#utility.yul\":1209:1210   */\n  dup1\n    /* \"#utility.yul\":1202:1214   */\n  revert\n    /* \"#utility.yul\":1153:1216   */\ntag_44:\n    /* \"#utility.yul\":1100:1222   */\n  pop\n  jump\t// out\n    /* \"#utility.yul\":1228:1371   */\ntag_25:\n    /* \"#utility.yul\":1285:1290   */\n  0x00\n    /* \"#utility.yul\":1316:1322   */\n  dup2\n    /* \"#utility.yul\":1310:1323   */\n  mload\n    /* \"#utility.yul\":1301:1323   */\n  swap1\n  pop\n    /* \"#utility.yul\":1332:1365   */\n  tag_46\n    /* \"#utility.yul\":1359:1364   */\n  dup2\n    /* \"#utility.yul\":1332:1365   */\n  tag_24\n  jump\t// in\ntag_46:\n    /* \"#utility.yul\":1228:1371   */\n  swap3\n  swap2\n  pop\n  pop\n  jump\t// out\n    /* \"#utility.yul\":1377:2068   */\ntag_3:\n    /* \"#utility.yul\":1479:1485   */\n  0x00\n    /* \"#utility.yul\":1487:1493   */\n  dup1\n    /* \"#utility.yul\":1495:1501   */\n  0x00\n    /* \"#utility.yul\":1544:1546   */\n  0x60\n    /* \"#utility.yul\":1532:1541   */\n  dup5\n    /* \"#utility.yul\":1523:1530   */\n  dup7\n    /* \"#utility.yul\":1519:1542   */\n  sub\n    /* \"#utility.yul\":1515:1547   */\n  slt\n    /* \"#utility.yul\":1512:1631   */\n  iszero\n  tag_48\n  jumpi\n    /* \"#utility.yul\":1550:1629   */\n  tag_49\n  tag_16\n  jump\t// in\ntag_49:\n    /* \"#utility.yul\":1512:1631   */\ntag_48:\n    /* \"#utility.yul\":1670:1671   */\n  0x00\n    /* \"#utility.yul\":1695:1773   */\n  tag_50\n    /* \"#utility.yul\":1765:1772   */\n  dup7\n    /* \"#utility.yul\":1756:1762   */\n  dup3\n    /* \"#utility.yul\":1745:1754   */\n  dup8\n    /* \"#utility.yul\":1741:1763   */\n  add\n    /* \"#utility.yul\":1695:1773   */\n  tag_22\n  jump\t// in\ntag_50:\n    /* \"#utility.yul\":1685:1773   */\n  swap4\n  pop\n    /* \"#utility.yul\":1641:1783   */\n  pop\n    /* \"#utility.yul\":1822:1824   */\n  0x20\n    /* \"#utility.yul\":1848:1912   */\n  tag_51\n    /* \"#utility.yul\":1904:1911   */\n  dup7\n    /* \"#utility.yul\":1895:1901   */\n  dup3\n    /* \"#utility.yul\":1884:1893   */\n  dup8\n    /* \"#utility.yul\":1880:1902   */\n  add\n    /* \"#utility.yul\":1848:1912   */\n  tag_25\n  jump\t// in\ntag_51:\n    /* \"#utility.yul\":1838:1912   */\n  swap3\n  pop\n    /* \"#utility.yul\":1793:1922   */\n  pop\n    /* \"#utility.yul\":1961:1963   */\n  0x40\n    /* \"#utility.yul\":1987:2051   */\n  tag_52\n    /* \"#utility.yul\":2043:2050   */\n  dup7\n    /* \"#utility.yul\":2034:2040   */\n  dup3\n    /* \"#utility.yul\":2023:2032   */\n  dup8\n    /* \"#utility.yul\":2019:2041   */\n  add\n    /* \"#utility.yul\":1987:2051   */\n  tag_25\n  jump\t// in\ntag_52:\n    /* \"#utility.yul\":1977:2051   */\n  swap2\n  pop\n    /* \"#utility.yul\":1932:2061   */\n  pop\n    /* \"#utility.yul\":1377:2068   */\n  swap3\n  pop\n  swap3\n  pop\n  swap3\n  jump\t// out\n    /* \"#utility.yul\":2074:2192   */\ntag_26:\n    /* \"#utility.yul\":2161:2185   */\n  tag_54\n    /* \"#utility.yul\":2179:2184   */\n  dup2\n    /* \"#utility.yul\":2161:2185   */\n  tag_19\n  jump\t// in\ntag_54:\n    /* \"#utility.yul\":2156:2159   */\n  dup3\n    /* \"#utility.yul\":2149:2186   */\n  mstore\n    /* \"#utility.yul\":2074:2192   */\n  pop\n  pop\n  jump\t// out\n    /* \"#utility.yul\":2198:2420   */\ntag_9:\n    /* \"#utility.yul\":2291:2295   */\n  0x00\n    /* \"#utility.yul\":2329:2331   */\n  0x20\n    /* \"#utility.yul\":2318:2327   */\n  dup3\n    /* \"#utility.yul\":2314:2332   */\n  add\n    /* \"#utility.yul\":2306:2332   */\n  swap1\n  pop\n    /* \"#utility.yul\":2342:2413   */\n  tag_56\n    /* \"#utility.yul\":2410:2411   */\n  0x00\n    /* \"#utility.yul\":2399:2408   */\n  dup4\n    /* \"#utility.yul\":2395:2412   */\n  add\n    /* \"#utility.yul\":2386:2392   */\n  dup5\n    /* \"#utility.yul\":2342:2413   */\n  tag_26\n  jump\t// in\ntag_56:\n    /* \"#utility.yul\":2198:2420   */\n  swap3\n  swap2\n  pop\n  pop\n  jump\t// out\n    /* \"contracts/FarmingC2N.sol\":406:11419  contract FarmingC2N is Ownable {... */\ntag_13:\n  dataSize(sub_0)\n  dup1\n  dataOffset(sub_0)\n  0x00\n  codecopy\n  0x00\n  return\nstop\n\nsub_0: assembly {\n        /* \"contracts/FarmingC2N.sol\":406:11419  contract FarmingC2N is Ownable {... */\n      mstore(0x40, 0x80)\n      callvalue\n      dup1\n      iszero\n      tag_1\n      jumpi\n      0x00\n      dup1\n      revert\n    tag_1:\n      pop\n      jumpi(tag_2, lt(calldatasize, 0x04))\n      shr(0xe0, calldataload(0x00))\n      dup1\n      0x715018a6\n      gt\n      tag_27\n      jumpi\n      dup1\n      0xa85adeab\n      gt\n      tag_28\n      jumpi\n      dup1\n      0xa85adeab\n      eq\n      tag_21\n      jumpi\n      dup1\n      0xca1d209d\n      eq\n      tag_22\n      jumpi\n      dup1\n      0xe2bbb158\n      eq\n      tag_23\n      jumpi\n      dup1\n      0xe4c75c27\n      eq\n      tag_24\n      jumpi\n      dup1\n      0xe6fd48bc\n      eq\n      tag_25\n      jumpi\n      dup1\n      0xf2fde38b\n      eq\n      tag_26\n      jumpi\n      jump(tag_2)\n    tag_28:\n      dup1\n      0x715018a6\n      eq\n      tag_15\n      jumpi\n      dup1\n      0x785e9e86\n      eq\n      tag_16\n      jumpi\n      dup1\n      0x8da5cb5b\n      eq\n      tag_17\n      jumpi\n      dup1\n      0x8f10369a\n      eq\n      tag_18\n      jumpi\n      dup1\n      0x93f1a40b\n      eq\n      tag_19\n      jumpi\n      dup1\n      0xa2383106\n      eq\n      tag_20\n      jumpi\n      jump(tag_2)\n    tag_27:\n      dup1\n      0x441a3e70\n      gt\n      tag_29\n      jumpi\n      dup1\n      0x441a3e70\n      eq\n      tag_9\n      jumpi\n      dup1\n      0x51eb05a6\n      eq\n      tag_10\n      jumpi\n      dup1\n      0x5312ea8e\n      eq\n      tag_11\n      jumpi\n      dup1\n      0x5c76ca2d\n      eq\n      tag_12\n      jumpi\n      dup1\n      0x630b5ba1\n      eq\n      tag_13\n      jumpi\n      dup1\n      0x64482f79\n      eq\n      tag_14\n      jumpi\n      jump(tag_2)\n    tag_29:\n      dup1\n      0x081e3eda\n      eq\n      tag_3\n      jumpi\n      dup1\n      0x0e15561a\n      eq\n      tag_4\n      jumpi\n      dup1\n      0x1526fe27\n      eq\n      tag_5\n      jumpi\n      dup1\n      0x17caf6f1\n      eq\n      tag_6\n      jumpi\n      dup1\n      0x1eaaa045\n      eq\n      tag_7\n      jumpi\n      dup1\n      0x3f90916a\n      eq\n      tag_8\n      jumpi\n    tag_2:\n      0x00\n      dup1\n      revert\n        /* \"contracts/FarmingC2N.sol\":2497:2590  function poolLength() external view returns (uint256) {... */\n    tag_3:\n      tag_30\n      tag_31\n      jump\t// in\n    tag_30:\n      mload(0x40)\n      tag_32\n      swap2\n      swap1\n      tag_33\n      jump\t// in\n    tag_32:\n      mload(0x40)\n      dup1\n      swap2\n      sub\n      swap1\n      return\n        /* \"contracts/FarmingC2N.sol\":1419:1446  uint256 public totalRewards */\n    tag_4:\n      tag_34\n      tag_35\n      jump\t// in\n    tag_34:\n      mload(0x40)\n      tag_36\n      swap2\n      swap1\n      tag_33\n      jump\t// in\n    tag_36:\n      mload(0x40)\n      dup1\n      swap2\n      sub\n      swap1\n      return\n        /* \"contracts/FarmingC2N.sol\":1478:1504  PoolInfo[] public poolInfo */\n    tag_5:\n      tag_37\n      0x04\n      dup1\n      calldatasize\n      sub\n      dup2\n      add\n      swap1\n      tag_38\n      swap2\n      swap1\n      tag_39\n      jump\t// in\n    tag_38:\n      tag_40\n      jump\t// in\n    tag_37:\n      mload(0x40)\n      tag_41\n      swap6\n      swap5\n      swap4\n      swap3\n      swap2\n      swap1\n      tag_42\n      jump\t// in\n    tag_41:\n      mload(0x40)\n      dup1\n      swap2\n      sub\n      swap1\n      return\n        /* \"contracts/FarmingC2N.sol\":1715:1745  uint256 public totalAllocPoint */\n    tag_6:\n      tag_43\n      tag_44\n      jump\t// in\n    tag_43:\n      mload(0x40)\n      tag_45\n      swap2\n      swap1\n      tag_33\n      jump\t// in\n    tag_45:\n      mload(0x40)\n      dup1\n      swap2\n      sub\n      swap1\n      return\n        /* \"contracts/FarmingC2N.sol\":3203:3868  function add(... */\n    tag_7:\n      tag_46\n      0x04\n      dup1\n      calldatasize\n      sub\n      dup2\n      add\n      swap1\n      tag_47\n      swap2\n      swap1\n      tag_48\n      jump\t// in\n    tag_47:\n      tag_49\n      jump\t// in\n    tag_46:\n      stop\n        /* \"contracts/FarmingC2N.sol\":6413:6870  function totalPending() external view returns (uint256) {... */\n    tag_8:\n      tag_50\n      tag_51\n      jump\t// in\n    tag_50:\n      mload(0x40)\n      tag_52\n      swap2\n      swap1\n      tag_33\n      jump\t// in\n    tag_52:\n      mload(0x40)\n      dup1\n      swap2\n      sub\n      swap1\n      return\n        /* \"contracts/FarmingC2N.sol\":9592:10594  function withdraw(uint256 _pid, uint256 _amount) public {... */\n    tag_9:\n      tag_53\n      0x04\n      dup1\n      calldatasize\n      sub\n      dup2\n      add\n      swap1\n      tag_54\n      swap2\n      swap1\n      tag_55\n      jump\t// in\n    tag_54:\n      tag_56\n      jump\t// in\n    tag_53:\n      stop\n        /* \"contracts/FarmingC2N.sol\":7198:8439  function updatePool(uint256 _pid) public {... */\n    tag_10:\n      tag_57\n      0x04\n      dup1\n      calldatasize\n      sub\n      dup2\n      add\n      swap1\n      tag_58\n      swap2\n      swap1\n      tag_39\n      jump\t// in\n    tag_58:\n      tag_59\n      jump\t// in\n    tag_57:\n      stop\n        /* \"contracts/FarmingC2N.sol\":10662:11202  function emergencyWithdraw(uint256 _pid) public {... */\n    tag_11:\n      tag_60\n      0x04\n      dup1\n      calldatasize\n      sub\n      dup2\n      add\n      swap1\n      tag_61\n      swap2\n      swap1\n      tag_39\n      jump\t// in\n    tag_61:\n      tag_62\n      jump\t// in\n    tag_60:\n      stop\n        /* \"contracts/FarmingC2N.sol\":1279:1301  uint256 public paidOut */\n    tag_12:\n      tag_63\n      tag_64\n      jump\t// in\n    tag_63:\n      mload(0x40)\n      tag_65\n      swap2\n      swap1\n      tag_33\n      jump\t// in\n    tag_65:\n      mload(0x40)\n      dup1\n      swap2\n      sub\n      swap1\n      return\n        /* \"contracts/FarmingC2N.sol\":6950:7125  function massUpdatePools() public {... */\n    tag_13:\n      tag_66\n      tag_67\n      jump\t// in\n    tag_66:\n      stop\n        /* \"contracts/FarmingC2N.sol\":3962:4348  function set(... */\n    tag_14:\n      tag_68\n      0x04\n      dup1\n      calldatasize\n      sub\n      dup2\n      add\n      swap1\n      tag_69\n      swap2\n      swap1\n      tag_70\n      jump\t// in\n    tag_69:\n      tag_71\n      jump\t// in\n    tag_68:\n      stop\n        /* \"@openzeppelin/contracts/access/Ownable.sol\":2293:2394  function renounceOwnership() public virtual onlyOwner {... */\n    tag_15:\n      tag_72\n      tag_73\n      jump\t// in\n    tag_72:\n      stop\n        /* \"contracts/FarmingC2N.sol\":1194:1213  IERC20 public erc20 */\n    tag_16:\n      tag_74\n      tag_75\n      jump\t// in\n    tag_74:\n      mload(0x40)\n      tag_76\n      swap2\n      swap1\n      tag_77\n      jump\t// in\n    tag_76:\n      mload(0x40)\n      dup1\n      swap2\n      sub\n      swap1\n      return\n        /* \"@openzeppelin/contracts/access/Ownable.sol\":1638:1723  function owner() public view virtual returns (address) {... */\n    tag_17:\n      tag_78\n      tag_79\n      jump\t// in\n    tag_78:\n      mload(0x40)\n      tag_80\n      swap2\n      swap1\n      tag_81\n      jump\t// in\n    tag_80:\n      mload(0x40)\n      dup1\n      swap2\n      sub\n      swap1\n      return\n        /* \"contracts/FarmingC2N.sol\":1348:1378  uint256 public rewardPerSecond */\n    tag_18:\n      tag_82\n      tag_83\n      jump\t// in\n    tag_82:\n      mload(0x40)\n      tag_84\n      swap2\n      swap1\n      tag_33\n      jump\t// in\n    tag_84:\n      mload(0x40)\n      dup1\n      swap2\n      sub\n      swap1\n      return\n        /* \"contracts/FarmingC2N.sol\":1558:1622  mapping(uint256 => mapping(address => UserInfo)) public userInfo */\n    tag_19:\n      tag_85\n      0x04\n      dup1\n      calldatasize\n      sub\n      dup2\n      add\n      swap1\n      tag_86\n      swap2\n      swap1\n      tag_87\n      jump\t// in\n    tag_86:\n      tag_88\n      jump\t// in\n    tag_85:\n      mload(0x40)\n      tag_89\n      swap3\n      swap2\n      swap1\n      tag_90\n      jump\t// in\n    tag_89:\n      mload(0x40)\n      dup1\n      swap2\n      sub\n      swap1\n      return\n        /* \"contracts/FarmingC2N.sol\":4407:4605  function deposited(uint256 _pid, address _user)... */\n    tag_20:\n      tag_91\n      0x04\n      dup1\n      calldatasize\n      sub\n      dup2\n      add\n      swap1\n      tag_92\n      swap2\n      swap1\n      tag_87\n      jump\t// in\n    tag_92:\n      tag_93\n      jump\t// in\n    tag_91:\n      mload(0x40)\n      tag_94\n      swap2\n      swap1\n      tag_33\n      jump\t// in\n    tag_94:\n      mload(0x40)\n      dup1\n      swap2\n      sub\n      swap1\n      return\n        /* \"contracts/FarmingC2N.sol\":1869:1896  uint256 public endTimestamp */\n    tag_21:\n      tag_95\n      tag_96\n      jump\t// in\n    tag_95:\n      mload(0x40)\n      tag_97\n      swap2\n      swap1\n      tag_33\n      jump\t// in\n    tag_97:\n      mload(0x40)\n      dup1\n      swap2\n      sub\n      swap1\n      return\n        /* \"contracts/FarmingC2N.sol\":2641:3042  function fund(uint256 _amount) public {... */\n    tag_22:\n      tag_98\n      0x04\n      dup1\n      calldatasize\n      sub\n      dup2\n      add\n      swap1\n      tag_99\n      swap2\n      swap1\n      tag_39\n      jump\t// in\n    tag_99:\n      tag_100\n      jump\t// in\n    tag_98:\n      stop\n        /* \"contracts/FarmingC2N.sol\":8500:9549  function deposit(uint256 _pid, uint256 _amount) public {... */\n    tag_23:\n      tag_101\n      0x04\n      dup1\n      calldatasize\n      sub\n      dup2\n      add\n      swap1\n      tag_102\n      swap2\n      swap1\n      tag_55\n      jump\t// in\n    tag_102:\n      tag_103\n      jump\t// in\n    tag_101:\n      stop\n        /* \"contracts/FarmingC2N.sol\":4666:6340  function pending(uint256 _pid, address _user)... */\n    tag_24:\n      tag_104\n      0x04\n      dup1\n      calldatasize\n      sub\n      dup2\n      add\n      swap1\n      tag_105\n      swap2\n      swap1\n      tag_87\n      jump\t// in\n    tag_105:\n      tag_106\n      jump\t// in\n    tag_104:\n      mload(0x40)\n      tag_107\n      swap2\n      swap1\n      tag_33\n      jump\t// in\n    tag_107:\n      mload(0x40)\n      dup1\n      swap2\n      sub\n      swap1\n      return\n        /* \"contracts/FarmingC2N.sol\":1794:1823  uint256 public startTimestamp */\n    tag_25:\n      tag_108\n      tag_109\n      jump\t// in\n    tag_108:\n      mload(0x40)\n      tag_110\n      swap2\n      swap1\n      tag_33\n      jump\t// in\n    tag_110:\n      mload(0x40)\n      dup1\n      swap2\n      sub\n      swap1\n      return\n        /* \"@openzeppelin/contracts/access/Ownable.sol\":2543:2758  function transferOwnership(address newOwner) public virtual onlyOwner {... */\n    tag_26:\n      tag_111\n      0x04\n      dup1\n      calldatasize\n      sub\n      dup2\n      add\n      swap1\n      tag_112\n      swap2\n      swap1\n      tag_113\n      jump\t// in\n    tag_112:\n      tag_114\n      jump\t// in\n    tag_111:\n      stop\n        /* \"contracts/FarmingC2N.sol\":2497:2590  function poolLength() external view returns (uint256) {... */\n    tag_31:\n        /* \"contracts/FarmingC2N.sol\":2542:2549  uint256 */\n      0x00\n        /* \"contracts/FarmingC2N.sol\":2568:2576  poolInfo */\n      0x05\n        /* \"contracts/FarmingC2N.sol\":2568:2583  poolInfo.length */\n      dup1\n      sload\n      swap1\n      pop\n        /* \"contracts/FarmingC2N.sol\":2561:2583  return poolInfo.length */\n      swap1\n      pop\n        /* \"contracts/FarmingC2N.sol\":2497:2590  function poolLength() external view returns (uint256) {... */\n      swap1\n      jump\t// out\n        /* \"contracts/FarmingC2N.sol\":1419:1446  uint256 public totalRewards */\n    tag_35:\n      sload(0x04)\n      dup2\n      jump\t// out\n        /* \"contracts/FarmingC2N.sol\":1478:1504  PoolInfo[] public poolInfo */\n    tag_40:\n      0x05\n      dup2\n      dup2\n      sload\n      dup2\n      lt\n      tag_116\n      jumpi\n      0x00\n      dup1\n      revert\n    tag_116:\n      swap1\n      0x00\n      mstore\n      keccak256(0x00, 0x20)\n      swap1\n      0x05\n      mul\n      add\n      0x00\n      swap2\n      pop\n      swap1\n      pop\n      dup1\n      0x00\n      add\n      0x00\n      swap1\n      sload\n      swap1\n      0x0100\n      exp\n      swap1\n      div\n      0xffffffffffffffffffffffffffffffffffffffff\n      and\n      swap1\n      dup1\n      0x01\n      add\n      sload\n      swap1\n      dup1\n      0x02\n      add\n      sload\n      swap1\n      dup1\n      0x03\n      add\n      sload\n      swap1\n      dup1\n      0x04\n      add\n      sload\n      swap1\n      pop\n      dup6\n      jump\t// out\n        /* \"contracts/FarmingC2N.sol\":1715:1745  uint256 public totalAllocPoint */\n    tag_44:\n      sload(0x07)\n      dup2\n      jump\t// out\n        /* \"contracts/FarmingC2N.sol\":3203:3868  function add(... */\n    tag_49:\n        /* \"@openzeppelin/contracts/access/Ownable.sol\":1531:1544  _checkOwner() */\n      tag_119\n        /* \"@openzeppelin/contracts/access/Ownable.sol\":1531:1542  _checkOwner */\n      tag_120\n        /* \"@openzeppelin/contracts/access/Ownable.sol\":1531:1544  _checkOwner() */\n      jump\t// in\n    tag_119:\n        /* \"contracts/FarmingC2N.sol\":3333:3344  _withUpdate */\n      dup1\n        /* \"contracts/FarmingC2N.sol\":3329:3388  if (_withUpdate) {... */\n      iszero\n      tag_122\n      jumpi\n        /* \"contracts/FarmingC2N.sol\":3360:3377  massUpdatePools() */\n      tag_123\n        /* \"contracts/FarmingC2N.sol\":3360:3375  massUpdatePools */\n      tag_67\n        /* \"contracts/FarmingC2N.sol\":3360:3377  massUpdatePools() */\n      jump\t// in\n    tag_123:\n        /* \"contracts/FarmingC2N.sol\":3329:3388  if (_withUpdate) {... */\n    tag_122:\n        /* \"contracts/FarmingC2N.sol\":3397:3424  uint256 lastRewardTimestamp */\n      0x00\n        /* \"contracts/FarmingC2N.sol\":3445:3459  startTimestamp */\n      sload(0x08)\n        /* \"contracts/FarmingC2N.sol\":3427:3442  block.timestamp */\n      timestamp\n        /* \"contracts/FarmingC2N.sol\":3427:3459  block.timestamp > startTimestamp */\n      gt\n        /* \"contracts/FarmingC2N.sol\":3427:3518  block.timestamp > startTimestamp... */\n      tag_124\n      jumpi\n        /* \"contracts/FarmingC2N.sol\":3504:3518  startTimestamp */\n      sload(0x08)\n        /* \"contracts/FarmingC2N.sol\":3427:3518  block.timestamp > startTimestamp... */\n      jump(tag_125)\n    tag_124:\n        /* \"contracts/FarmingC2N.sol\":3474:3489  block.timestamp */\n      timestamp\n        /* \"contracts/FarmingC2N.sol\":3427:3518  block.timestamp > startTimestamp... */\n    tag_125:\n        /* \"contracts/FarmingC2N.sol\":3397:3518  uint256 lastRewardTimestamp = block.timestamp > startTimestamp... */\n      swap1\n      pop\n        /* \"contracts/FarmingC2N.sol\":3550:3585  totalAllocPoint.tryAdd(_allocPoint) */\n      tag_126\n        /* \"contracts/FarmingC2N.sol\":3573:3584  _allocPoint */\n      dup5\n        /* \"contracts/FarmingC2N.sol\":3550:3565  totalAllocPoint */\n      sload(0x07)\n        /* \"contracts/FarmingC2N.sol\":3550:3572  totalAllocPoint.tryAdd */\n      tag_127\n      swap1\n        /* \"contracts/FarmingC2N.sol\":3550:3585  totalAllocPoint.tryAdd(_allocPoint) */\n      swap2\n      swap1\n      0xffffffff\n      and\n      jump\t// in\n    tag_126:\n        /* \"contracts/FarmingC2N.sol\":3528:3585  (, totalAllocPoint) = totalAllocPoint.tryAdd(_allocPoint) */\n      swap1\n      pop\n        /* \"contracts/FarmingC2N.sol\":3531:3546  totalAllocPoint */\n      0x07\n      0x00\n        /* \"contracts/FarmingC2N.sol\":3528:3585  (, totalAllocPoint) = totalAllocPoint.tryAdd(_allocPoint) */\n      dup3\n      swap2\n      swap1\n      pop\n      sstore\n      pop\n        /* \"contracts/FarmingC2N.sol\":3595:3603  poolInfo */\n      0x05\n        /* \"contracts/FarmingC2N.sol\":3622:3851  PoolInfo({... */\n      mload(0x40)\n      dup1\n      0xa0\n      add\n      0x40\n      mstore\n      dup1\n        /* \"contracts/FarmingC2N.sol\":3658:3666  _lpToken */\n      dup6\n        /* \"contracts/FarmingC2N.sol\":3622:3851  PoolInfo({... */\n      0xffffffffffffffffffffffffffffffffffffffff\n      and\n      dup2\n      mstore\n      0x20\n      add\n        /* \"contracts/FarmingC2N.sol\":3696:3707  _allocPoint */\n      dup7\n        /* \"contracts/FarmingC2N.sol\":3622:3851  PoolInfo({... */\n      dup2\n      mstore\n      0x20\n      add\n        /* \"contracts/FarmingC2N.sol\":3746:3765  lastRewardTimestamp */\n      dup4\n        /* \"contracts/FarmingC2N.sol\":3622:3851  PoolInfo({... */\n      dup2\n      mstore\n      0x20\n      add\n        /* \"contracts/FarmingC2N.sol\":3801:3802  0 */\n      0x00\n        /* \"contracts/FarmingC2N.sol\":3622:3851  PoolInfo({... */\n      dup2\n      mstore\n      0x20\n      add\n        /* \"contracts/FarmingC2N.sol\":3835:3836  0 */\n      0x00\n        /* \"contracts/FarmingC2N.sol\":3622:3851  PoolInfo({... */\n      dup2\n      mstore\n      pop\n        /* \"contracts/FarmingC2N.sol\":3595:3861  poolInfo.push(... */\n      swap1\n      dup1\n      0x01\n      dup2\n      sload\n      add\n      dup1\n      dup3\n      sstore\n      dup1\n      swap2\n      pop\n      pop\n      0x01\n      swap1\n      sub\n      swap1\n      0x00\n      mstore\n      keccak256(0x00, 0x20)\n      swap1\n      0x05\n      mul\n      add\n      0x00\n      swap1\n      swap2\n      swap1\n      swap2\n      swap1\n      swap2\n      pop\n      0x00\n      dup3\n      add\n      mload\n      dup2\n      0x00\n      add\n      exp(0x0100, 0x00)\n      dup2\n      sload\n      dup2\n      0xffffffffffffffffffffffffffffffffffffffff\n      mul\n      not\n      and\n      swap1\n      dup4\n      0xffffffffffffffffffffffffffffffffffffffff\n      and\n      mul\n      or\n      swap1\n      sstore\n      pop\n      0x20\n      dup3\n      add\n      mload\n      dup2\n      0x01\n      add\n      sstore\n      0x40\n      dup3\n      add\n      mload\n      dup2\n      0x02\n      add\n      sstore\n      0x60\n      dup3\n      add\n      mload\n      dup2\n      0x03\n      add\n      sstore\n      0x80\n      dup3\n      add\n      mload\n      dup2\n      0x04\n      add\n      sstore\n      pop\n      pop\n        /* \"contracts/FarmingC2N.sol\":3319:3868  {... */\n      pop\n        /* \"contracts/FarmingC2N.sol\":3203:3868  function add(... */\n      pop\n      pop\n      pop\n      jump\t// out\n        /* \"contracts/FarmingC2N.sol\":6413:6870  function totalPending() external view returns (uint256) {... */\n    tag_51:\n        /* \"contracts/FarmingC2N.sol\":6460:6467  uint256 */\n      0x00\n        /* \"contracts/FarmingC2N.sol\":6502:6516  startTimestamp */\n      sload(0x08)\n        /* \"contracts/FarmingC2N.sol\":6483:6498  block.timestamp */\n      timestamp\n        /* \"contracts/FarmingC2N.sol\":6483:6516  block.timestamp <= startTimestamp */\n      gt\n        /* \"contracts/FarmingC2N.sol\":6479:6551  if (block.timestamp <= startTimestamp) {... */\n      tag_130\n      jumpi\n        /* \"contracts/FarmingC2N.sol\":6539:6540  0 */\n      0x00\n        /* \"contracts/FarmingC2N.sol\":6532:6540  return 0 */\n      swap1\n      pop\n      jump(tag_129)\n        /* \"contracts/FarmingC2N.sol\":6479:6551  if (block.timestamp <= startTimestamp) {... */\n    tag_130:\n        /* \"contracts/FarmingC2N.sol\":6561:6582  uint256 lastTimestamp */\n      0x00\n        /* \"contracts/FarmingC2N.sol\":6603:6615  endTimestamp */\n      sload(0x09)\n        /* \"contracts/FarmingC2N.sol\":6585:6600  block.timestamp */\n      timestamp\n        /* \"contracts/FarmingC2N.sol\":6585:6615  block.timestamp < endTimestamp */\n      lt\n        /* \"contracts/FarmingC2N.sol\":6585:6672  block.timestamp < endTimestamp... */\n      tag_131\n      jumpi\n        /* \"contracts/FarmingC2N.sol\":6660:6672  endTimestamp */\n      sload(0x09)\n        /* \"contracts/FarmingC2N.sol\":6585:6672  block.timestamp < endTimestamp... */\n      jump(tag_132)\n    tag_131:\n        /* \"contracts/FarmingC2N.sol\":6630:6645  block.timestamp */\n      timestamp\n        /* \"contracts/FarmingC2N.sol\":6585:6672  block.timestamp < endTimestamp... */\n    tag_132:\n        /* \"contracts/FarmingC2N.sol\":6561:6672  uint256 lastTimestamp = block.timestamp < endTimestamp... */\n      swap1\n      pop\n        /* \"contracts/FarmingC2N.sol\":6686:6703  uint256 totalSave */\n      0x00\n        /* \"contracts/FarmingC2N.sol\":6707:6783  rewardPerSecond.tryMul(... */\n      tag_133\n        /* \"contracts/FarmingC2N.sol\":6759:6773  startTimestamp */\n      sload(0x08)\n        /* \"contracts/FarmingC2N.sol\":6743:6756  lastTimestamp */\n      dup4\n        /* \"contracts/FarmingC2N.sol\":6743:6773  lastTimestamp - startTimestamp */\n      tag_134\n      swap2\n      swap1\n      tag_135\n      jump\t// in\n    tag_134:\n        /* \"contracts/FarmingC2N.sol\":6707:6722  rewardPerSecond */\n      sload(0x03)\n        /* \"contracts/FarmingC2N.sol\":6707:6729  rewardPerSecond.tryMul */\n      tag_136\n      swap1\n        /* \"contracts/FarmingC2N.sol\":6707:6783  rewardPerSecond.tryMul(... */\n      swap2\n      swap1\n      0xffffffff\n      and\n      jump\t// in\n    tag_133:\n        /* \"contracts/FarmingC2N.sol\":6683:6783  (, uint256 totalSave) = rewardPerSecond.tryMul(... */\n      swap2\n      pop\n      pop\n        /* \"contracts/FarmingC2N.sol\":6796:6810  uint256 result */\n      0x00\n        /* \"contracts/FarmingC2N.sol\":6814:6839  totalSave.trySub(paidOut) */\n      tag_137\n        /* \"contracts/FarmingC2N.sol\":6831:6838  paidOut */\n      sload(0x02)\n        /* \"contracts/FarmingC2N.sol\":6814:6823  totalSave */\n      dup4\n        /* \"contracts/FarmingC2N.sol\":6814:6830  totalSave.trySub */\n      tag_138\n      swap1\n        /* \"contracts/FarmingC2N.sol\":6814:6839  totalSave.trySub(paidOut) */\n      swap2\n      swap1\n      0xffffffff\n      and\n      jump\t// in\n    tag_137:\n        /* \"contracts/FarmingC2N.sol\":6793:6839  (, uint256 result) = totalSave.trySub(paidOut) */\n      swap2\n      pop\n      pop\n        /* \"contracts/FarmingC2N.sol\":6857:6863  result */\n      dup1\n        /* \"contracts/FarmingC2N.sol\":6850:6863  return result */\n      swap4\n      pop\n      pop\n      pop\n      pop\n        /* \"contracts/FarmingC2N.sol\":6413:6870  function totalPending() external view returns (uint256) {... */\n    tag_129:\n      swap1\n      jump\t// out\n        /* \"contracts/FarmingC2N.sol\":9592:10594  function withdraw(uint256 _pid, uint256 _amount) public {... */\n    tag_56:\n        /* \"contracts/FarmingC2N.sol\":9658:9679  PoolInfo storage pool */\n      0x00\n        /* \"contracts/FarmingC2N.sol\":9682:9690  poolInfo */\n      0x05\n        /* \"contracts/FarmingC2N.sol\":9691:9695  _pid */\n      dup4\n        /* \"contracts/FarmingC2N.sol\":9682:9696  poolInfo[_pid] */\n      dup2\n      sload\n      dup2\n      lt\n      tag_140\n      jumpi\n      tag_141\n      tag_142\n      jump\t// in\n    tag_141:\n    tag_140:\n      swap1\n      0x00\n      mstore\n      keccak256(0x00, 0x20)\n      swap1\n      0x05\n      mul\n      add\n        /* \"contracts/FarmingC2N.sol\":9658:9696  PoolInfo storage pool = poolInfo[_pid] */\n      swap1\n      pop\n        /* \"contracts/FarmingC2N.sol\":9706:9727  UserInfo storage user */\n      0x00\n        /* \"contracts/FarmingC2N.sol\":9730:9738  userInfo */\n      0x06\n        /* \"contracts/FarmingC2N.sol\":9730:9744  userInfo[_pid] */\n      0x00\n        /* \"contracts/FarmingC2N.sol\":9739:9743  _pid */\n      dup6\n        /* \"contracts/FarmingC2N.sol\":9730:9744  userInfo[_pid] */\n      dup2\n      mstore\n      0x20\n      add\n      swap1\n      dup2\n      mstore\n      0x20\n      add\n      0x00\n      keccak256\n        /* \"contracts/FarmingC2N.sol\":9730:9756  userInfo[_pid][msg.sender] */\n      0x00\n        /* \"contracts/FarmingC2N.sol\":9745:9755  msg.sender */\n      caller\n        /* \"contracts/FarmingC2N.sol\":9730:9756  userInfo[_pid][msg.sender] */\n      0xffffffffffffffffffffffffffffffffffffffff\n      and\n      0xffffffffffffffffffffffffffffffffffffffff\n      and\n      dup2\n      mstore\n      0x20\n      add\n      swap1\n      dup2\n      mstore\n      0x20\n      add\n      0x00\n      keccak256\n        /* \"contracts/FarmingC2N.sol\":9706:9756  UserInfo storage user = userInfo[_pid][msg.sender] */\n      swap1\n      pop\n        /* \"contracts/FarmingC2N.sol\":9802:9809  _amount */\n      dup3\n        /* \"contracts/FarmingC2N.sol\":9787:9791  user */\n      dup2\n        /* \"contracts/FarmingC2N.sol\":9787:9798  user.amount */\n      0x00\n      add\n      sload\n        /* \"contracts/FarmingC2N.sol\":9787:9809  user.amount >= _amount */\n      lt\n      iszero\n        /* \"contracts/FarmingC2N.sol\":9766:9877  require(... */\n      tag_144\n      jumpi\n      mload(0x40)\n      0x08c379a000000000000000000000000000000000000000000000000000000000\n      dup2\n      mstore\n      0x04\n      add\n      tag_145\n      swap1\n      tag_146\n      jump\t// in\n    tag_145:\n      mload(0x40)\n      dup1\n      swap2\n      sub\n      swap1\n      revert\n    tag_144:\n        /* \"contracts/FarmingC2N.sol\":9887:9903  updatePool(_pid) */\n      tag_147\n        /* \"contracts/FarmingC2N.sol\":9898:9902  _pid */\n      dup5\n        /* \"contracts/FarmingC2N.sol\":9887:9897  updatePool */\n      tag_59\n        /* \"contracts/FarmingC2N.sol\":9887:9903  updatePool(_pid) */\n      jump\t// in\n    tag_147:\n        /* \"contracts/FarmingC2N.sol\":9917:9935  uint256 userReward */\n      0x00\n        /* \"contracts/FarmingC2N.sol\":9939:9980  user.amount.tryMul(pool.accERC20PerShare) */\n      tag_148\n        /* \"contracts/FarmingC2N.sol\":9958:9962  pool */\n      dup4\n        /* \"contracts/FarmingC2N.sol\":9958:9979  pool.accERC20PerShare */\n      0x03\n      add\n      sload\n        /* \"contracts/FarmingC2N.sol\":9939:9943  user */\n      dup4\n        /* \"contracts/FarmingC2N.sol\":9939:9950  user.amount */\n      0x00\n      add\n      sload\n        /* \"contracts/FarmingC2N.sol\":9939:9957  user.amount.tryMul */\n      tag_136\n      swap1\n        /* \"contracts/FarmingC2N.sol\":9939:9980  user.amount.tryMul(pool.accERC20PerShare) */\n      swap2\n      swap1\n      0xffffffff\n      and\n      jump\t// in\n    tag_148:\n        /* \"contracts/FarmingC2N.sol\":9914:9980  (, uint256 userReward) = user.amount.tryMul(pool.accERC20PerShare) */\n      swap2\n      pop\n      pop\n        /* \"contracts/FarmingC2N.sol\":9993:10014  uint256 pendingAmount */\n      0x00\n        /* \"contracts/FarmingC2N.sol\":10018:10052  userReward.trySub(user.rewardDebt) */\n      tag_149\n        /* \"contracts/FarmingC2N.sol\":10036:10040  user */\n      dup4\n        /* \"contracts/FarmingC2N.sol\":10036:10051  user.rewardDebt */\n      0x01\n      add\n      sload\n        /* \"contracts/FarmingC2N.sol\":10018:10028  userReward */\n      dup4\n        /* \"contracts/FarmingC2N.sol\":10018:10035  userReward.trySub */\n      tag_138\n      swap1\n        /* \"contracts/FarmingC2N.sol\":10018:10052  userReward.trySub(user.rewardDebt) */\n      swap2\n      swap1\n      0xffffffff\n      and\n      jump\t// in\n    tag_149:\n        /* \"contracts/FarmingC2N.sol\":9990:10052  (, uint256 pendingAmount) = userReward.trySub(user.rewardDebt) */\n      swap2\n      pop\n      pop\n        /* \"contracts/FarmingC2N.sol\":10234:10274  erc20Transfer(msg.sender, pendingAmount) */\n      tag_150\n        /* \"contracts/FarmingC2N.sol\":10248:10258  msg.sender */\n      caller\n        /* \"contracts/FarmingC2N.sol\":10260:10273  pendingAmount */\n      dup3\n        /* \"contracts/FarmingC2N.sol\":10234:10247  erc20Transfer */\n      tag_151\n        /* \"contracts/FarmingC2N.sol\":10234:10274  erc20Transfer(msg.sender, pendingAmount) */\n      jump\t// in\n    tag_150:\n        /* \"contracts/FarmingC2N.sol\":10302:10329  user.amount.trySub(_amount) */\n      tag_152\n        /* \"contracts/FarmingC2N.sol\":10321:10328  _amount */\n      dup6\n        /* \"contracts/FarmingC2N.sol\":10302:10306  user */\n      dup5\n        /* \"contracts/FarmingC2N.sol\":10302:10313  user.amount */\n      0x00\n      add\n      sload\n        /* \"contracts/FarmingC2N.sol\":10302:10320  user.amount.trySub */\n      tag_138\n      swap1\n        /* \"contracts/FarmingC2N.sol\":10302:10329  user.amount.trySub(_amount) */\n      swap2\n      swap1\n      0xffffffff\n      and\n      jump\t// in\n    tag_152:\n        /* \"contracts/FarmingC2N.sol\":10284:10329  (, user.amount) = user.amount.trySub(_amount) */\n      swap1\n      pop\n        /* \"contracts/FarmingC2N.sol\":10287:10291  user */\n      dup4\n        /* \"contracts/FarmingC2N.sol\":10287:10298  user.amount */\n      0x00\n      add\n      0x00\n        /* \"contracts/FarmingC2N.sol\":10284:10329  (, user.amount) = user.amount.trySub(_amount) */\n      dup3\n      swap2\n      swap1\n      pop\n      sstore\n      pop\n        /* \"contracts/FarmingC2N.sol\":10361:10402  user.amount.tryMul(pool.accERC20PerShare) */\n      tag_153\n        /* \"contracts/FarmingC2N.sol\":10380:10384  pool */\n      dup5\n        /* \"contracts/FarmingC2N.sol\":10380:10401  pool.accERC20PerShare */\n      0x03\n      add\n      sload\n        /* \"contracts/FarmingC2N.sol\":10361:10365  user */\n      dup5\n        /* \"contracts/FarmingC2N.sol\":10361:10372  user.amount */\n      0x00\n      add\n      sload\n        /* \"contracts/FarmingC2N.sol\":10361:10379  user.amount.tryMul */\n      tag_136\n      swap1\n        /* \"contracts/FarmingC2N.sol\":10361:10402  user.amount.tryMul(pool.accERC20PerShare) */\n      swap2\n      swap1\n      0xffffffff\n      and\n      jump\t// in\n    tag_153:\n        /* \"contracts/FarmingC2N.sol\":10339:10402  (, user.rewardDebt) = user.amount.tryMul(pool.accERC20PerShare) */\n      swap1\n      pop\n        /* \"contracts/FarmingC2N.sol\":10342:10346  user */\n      dup4\n        /* \"contracts/FarmingC2N.sol\":10342:10357  user.rewardDebt */\n      0x01\n      add\n      0x00\n        /* \"contracts/FarmingC2N.sol\":10339:10402  (, user.rewardDebt) = user.amount.tryMul(pool.accERC20PerShare) */\n      dup3\n      swap2\n      swap1\n      pop\n      sstore\n      pop\n        /* \"contracts/FarmingC2N.sol\":10412:10467  pool.lpToken.safeTransfer(address(msg.sender), _amount) */\n      tag_154\n        /* \"contracts/FarmingC2N.sol\":10446:10456  msg.sender */\n      caller\n        /* \"contracts/FarmingC2N.sol\":10459:10466  _amount */\n      dup7\n        /* \"contracts/FarmingC2N.sol\":10412:10416  pool */\n      dup7\n        /* \"contracts/FarmingC2N.sol\":10412:10424  pool.lpToken */\n      0x00\n      add\n      0x00\n      swap1\n      sload\n      swap1\n      0x0100\n      exp\n      swap1\n      div\n      0xffffffffffffffffffffffffffffffffffffffff\n      and\n        /* \"contracts/FarmingC2N.sol\":10412:10437  pool.lpToken.safeTransfer */\n      0xffffffffffffffffffffffffffffffffffffffff\n      and\n      tag_155\n      swap1\n        /* \"contracts/FarmingC2N.sol\":10412:10467  pool.lpToken.safeTransfer(address(msg.sender), _amount) */\n      swap3\n      swap2\n      swap1\n      0xffffffff\n      and\n      jump\t// in\n    tag_154:\n        /* \"contracts/FarmingC2N.sol\":10502:10536  pool.totalDeposits.trySub(_amount) */\n      tag_156\n        /* \"contracts/FarmingC2N.sol\":10528:10535  _amount */\n      dup6\n        /* \"contracts/FarmingC2N.sol\":10502:10506  pool */\n      dup6\n        /* \"contracts/FarmingC2N.sol\":10502:10520  pool.totalDeposits */\n      0x04\n      add\n      sload\n        /* \"contracts/FarmingC2N.sol\":10502:10527  pool.totalDeposits.trySub */\n      tag_138\n      swap1\n        /* \"contracts/FarmingC2N.sol\":10502:10536  pool.totalDeposits.trySub(_amount) */\n      swap2\n      swap1\n      0xffffffff\n      and\n      jump\t// in\n    tag_156:\n        /* \"contracts/FarmingC2N.sol\":10477:10536  (, pool.totalDeposits) = pool.totalDeposits.trySub(_amount) */\n      swap1\n      pop\n        /* \"contracts/FarmingC2N.sol\":10480:10484  pool */\n      dup5\n        /* \"contracts/FarmingC2N.sol\":10480:10498  pool.totalDeposits */\n      0x04\n      add\n      0x00\n        /* \"contracts/FarmingC2N.sol\":10477:10536  (, pool.totalDeposits) = pool.totalDeposits.trySub(_amount) */\n      dup3\n      swap2\n      swap1\n      pop\n      sstore\n      pop\n        /* \"contracts/FarmingC2N.sol\":10573:10577  _pid */\n      dup6\n        /* \"contracts/FarmingC2N.sol\":10561:10571  msg.sender */\n      caller\n        /* \"contracts/FarmingC2N.sol\":10552:10587  Withdraw(msg.sender, _pid, _amount) */\n      0xffffffffffffffffffffffffffffffffffffffff\n      and\n      0xf279e6a1f5e320cca91135676d9cb6e44ca8a08c0b88342bcdb1144f6511b568\n        /* \"contracts/FarmingC2N.sol\":10579:10586  _amount */\n      dup8\n        /* \"contracts/FarmingC2N.sol\":10552:10587  Withdraw(msg.sender, _pid, _amount) */\n      mload(0x40)\n      tag_157\n      swap2\n      swap1\n      tag_33\n      jump\t// in\n    tag_157:\n      mload(0x40)\n      dup1\n      swap2\n      sub\n      swap1\n      log3\n        /* \"contracts/FarmingC2N.sol\":9648:10594  {... */\n      pop\n      pop\n      pop\n      pop\n        /* \"contracts/FarmingC2N.sol\":9592:10594  function withdraw(uint256 _pid, uint256 _amount) public {... */\n      pop\n      pop\n      jump\t// out\n        /* \"contracts/FarmingC2N.sol\":7198:8439  function updatePool(uint256 _pid) public {... */\n    tag_59:\n        /* \"contracts/FarmingC2N.sol\":7249:7270  PoolInfo storage pool */\n      0x00\n        /* \"contracts/FarmingC2N.sol\":7273:7281  poolInfo */\n      0x05\n        /* \"contracts/FarmingC2N.sol\":7282:7286  _pid */\n      dup3\n        /* \"contracts/FarmingC2N.sol\":7273:7287  poolInfo[_pid] */\n      dup2\n      sload\n      dup2\n      lt\n      tag_159\n      jumpi\n      tag_160\n      tag_142\n      jump\t// in\n    tag_160:\n    tag_159:\n      swap1\n      0x00\n      mstore\n      keccak256(0x00, 0x20)\n      swap1\n      0x05\n      mul\n      add\n        /* \"contracts/FarmingC2N.sol\":7249:7287  PoolInfo storage pool = poolInfo[_pid] */\n      swap1\n      pop\n        /* \"contracts/FarmingC2N.sol\":7297:7318  uint256 lastTimestamp */\n      0x00\n        /* \"contracts/FarmingC2N.sol\":7339:7351  endTimestamp */\n      sload(0x09)\n        /* \"contracts/FarmingC2N.sol\":7321:7336  block.timestamp */\n      timestamp\n        /* \"contracts/FarmingC2N.sol\":7321:7351  block.timestamp < endTimestamp */\n      lt\n        /* \"contracts/FarmingC2N.sol\":7321:7408  block.timestamp < endTimestamp... */\n      tag_162\n      jumpi\n        /* \"contracts/FarmingC2N.sol\":7396:7408  endTimestamp */\n      sload(0x09)\n        /* \"contracts/FarmingC2N.sol\":7321:7408  block.timestamp < endTimestamp... */\n      jump(tag_163)\n    tag_162:\n        /* \"contracts/FarmingC2N.sol\":7366:7381  block.timestamp */\n      timestamp\n        /* \"contracts/FarmingC2N.sol\":7321:7408  block.timestamp < endTimestamp... */\n    tag_163:\n        /* \"contracts/FarmingC2N.sol\":7297:7408  uint256 lastTimestamp = block.timestamp < endTimestamp... */\n      swap1\n      pop\n        /* \"contracts/FarmingC2N.sol\":7440:7444  pool */\n      dup2\n        /* \"contracts/FarmingC2N.sol\":7440:7464  pool.lastRewardTimestamp */\n      0x02\n      add\n      sload\n        /* \"contracts/FarmingC2N.sol\":7423:7436  lastTimestamp */\n      dup2\n        /* \"contracts/FarmingC2N.sol\":7423:7464  lastTimestamp <= pool.lastRewardTimestamp */\n      gt\n        /* \"contracts/FarmingC2N.sol\":7419:7497  if (lastTimestamp <= pool.lastRewardTimestamp) {... */\n      tag_164\n      jumpi\n        /* \"contracts/FarmingC2N.sol\":7480:7487  return; */\n      pop\n      pop\n      jump(tag_158)\n        /* \"contracts/FarmingC2N.sol\":7419:7497  if (lastTimestamp <= pool.lastRewardTimestamp) {... */\n    tag_164:\n        /* \"contracts/FarmingC2N.sol\":7506:7522  uint256 lpSupply */\n      0x00\n        /* \"contracts/FarmingC2N.sol\":7525:7529  pool */\n      dup3\n        /* \"contracts/FarmingC2N.sol\":7525:7543  pool.totalDeposits */\n      0x04\n      add\n      sload\n        /* \"contracts/FarmingC2N.sol\":7506:7543  uint256 lpSupply = pool.totalDeposits */\n      swap1\n      pop\n        /* \"contracts/FarmingC2N.sol\":7570:7571  0 */\n      0x00\n        /* \"contracts/FarmingC2N.sol\":7558:7566  lpSupply */\n      dup2\n        /* \"contracts/FarmingC2N.sol\":7558:7571  lpSupply == 0 */\n      sub\n        /* \"contracts/FarmingC2N.sol\":7554:7658  if (lpSupply == 0) {... */\n      tag_165\n      jumpi\n        /* \"contracts/FarmingC2N.sol\":7614:7627  lastTimestamp */\n      dup2\n        /* \"contracts/FarmingC2N.sol\":7587:7591  pool */\n      dup4\n        /* \"contracts/FarmingC2N.sol\":7587:7611  pool.lastRewardTimestamp */\n      0x02\n      add\n        /* \"contracts/FarmingC2N.sol\":7587:7627  pool.lastRewardTimestamp = lastTimestamp */\n      dup2\n      swap1\n      sstore\n      pop\n        /* \"contracts/FarmingC2N.sol\":7641:7648  return; */\n      pop\n      pop\n      pop\n      jump(tag_158)\n        /* \"contracts/FarmingC2N.sol\":7554:7658  if (lpSupply == 0) {... */\n    tag_165:\n        /* \"contracts/FarmingC2N.sol\":7671:7690  uint256 nrOfSeconds */\n      0x00\n        /* \"contracts/FarmingC2N.sol\":7694:7762  lastTimestamp.trySub(... */\n      tag_166\n        /* \"contracts/FarmingC2N.sol\":7728:7732  pool */\n      dup5\n        /* \"contracts/FarmingC2N.sol\":7728:7752  pool.lastRewardTimestamp */\n      0x02\n      add\n      sload\n        /* \"contracts/FarmingC2N.sol\":7694:7707  lastTimestamp */\n      dup5\n        /* \"contracts/FarmingC2N.sol\":7694:7714  lastTimestamp.trySub */\n      tag_138\n      swap1\n        /* \"contracts/FarmingC2N.sol\":7694:7762  lastTimestamp.trySub(... */\n      swap2\n      swap1\n      0xffffffff\n      and\n      jump\t// in\n    tag_166:\n        /* \"contracts/FarmingC2N.sol\":7668:7762  (, uint256 nrOfSeconds) = lastTimestamp.trySub(... */\n      swap2\n      pop\n      pop\n        /* \"contracts/FarmingC2N.sol\":7776:7795  uint256 erc20Reward */\n      0x00\n        /* \"contracts/FarmingC2N.sol\":7799:7834  nrOfSeconds.tryMul(rewardPerSecond) */\n      tag_167\n        /* \"contracts/FarmingC2N.sol\":7818:7833  rewardPerSecond */\n      sload(0x03)\n        /* \"contracts/FarmingC2N.sol\":7799:7810  nrOfSeconds */\n      dup4\n        /* \"contracts/FarmingC2N.sol\":7799:7817  nrOfSeconds.tryMul */\n      tag_136\n      swap1\n        /* \"contracts/FarmingC2N.sol\":7799:7834  nrOfSeconds.tryMul(rewardPerSecond) */\n      swap2\n      swap1\n      0xffffffff\n      and\n      jump\t// in\n    tag_167:\n        /* \"contracts/FarmingC2N.sol\":7773:7834  (, uint256 erc20Reward) = nrOfSeconds.tryMul(rewardPerSecond) */\n      swap2\n      pop\n      pop\n        /* \"contracts/FarmingC2N.sol\":7859:7911  erc20Reward.mulDiv(pool.allocPoint, totalAllocPoint) */\n      tag_168\n        /* \"contracts/FarmingC2N.sol\":7878:7882  pool */\n      dup6\n        /* \"contracts/FarmingC2N.sol\":7878:7893  pool.allocPoint */\n      0x01\n      add\n      sload\n        /* \"contracts/FarmingC2N.sol\":7895:7910  totalAllocPoint */\n      sload(0x07)\n        /* \"contracts/FarmingC2N.sol\":7859:7870  erc20Reward */\n      dup4\n        /* \"contracts/FarmingC2N.sol\":7859:7877  erc20Reward.mulDiv */\n      tag_169\n      swap1\n        /* \"contracts/FarmingC2N.sol\":7859:7911  erc20Reward.mulDiv(pool.allocPoint, totalAllocPoint) */\n      swap3\n      swap2\n      swap1\n      0xffffffff\n      and\n      jump\t// in\n    tag_168:\n        /* \"contracts/FarmingC2N.sol\":7845:7911  erc20Reward = erc20Reward.mulDiv(pool.allocPoint, totalAllocPoint) */\n      swap1\n      pop\n        /* \"contracts/FarmingC2N.sol\":7925:7952  uint256 newAccERC20PerShare */\n      0x00\n        /* \"contracts/FarmingC2N.sol\":7956:7984  erc20Reward.tryDiv(lpSupply) */\n      tag_170\n        /* \"contracts/FarmingC2N.sol\":7975:7983  lpSupply */\n      dup5\n        /* \"contracts/FarmingC2N.sol\":7956:7967  erc20Reward */\n      dup4\n        /* \"contracts/FarmingC2N.sol\":7956:7974  erc20Reward.tryDiv */\n      tag_171\n      swap1\n        /* \"contracts/FarmingC2N.sol\":7956:7984  erc20Reward.tryDiv(lpSupply) */\n      swap2\n      swap1\n      0xffffffff\n      and\n      jump\t// in\n    tag_170:\n        /* \"contracts/FarmingC2N.sol\":7922:7984  (, uint256 newAccERC20PerShare) = erc20Reward.tryDiv(lpSupply) */\n      swap2\n      pop\n      pop\n        /* \"contracts/FarmingC2N.sol\":8023:8094  pool.accERC20PerShare.tryAdd(... */\n      tag_172\n        /* \"contracts/FarmingC2N.sol\":8065:8084  newAccERC20PerShare */\n      dup2\n        /* \"contracts/FarmingC2N.sol\":8023:8027  pool */\n      dup8\n        /* \"contracts/FarmingC2N.sol\":8023:8044  pool.accERC20PerShare */\n      0x03\n      add\n      sload\n        /* \"contracts/FarmingC2N.sol\":8023:8051  pool.accERC20PerShare.tryAdd */\n      tag_127\n      swap1\n        /* \"contracts/FarmingC2N.sol\":8023:8094  pool.accERC20PerShare.tryAdd(... */\n      swap2\n      swap1\n      0xffffffff\n      and\n      jump\t// in\n    tag_172:\n        /* \"contracts/FarmingC2N.sol\":7995:8094  (, pool.accERC20PerShare) = pool.accERC20PerShare.tryAdd(... */\n      swap1\n      pop\n        /* \"contracts/FarmingC2N.sol\":7998:8002  pool */\n      dup7\n        /* \"contracts/FarmingC2N.sol\":7998:8019  pool.accERC20PerShare */\n      0x03\n      add\n      0x00\n        /* \"contracts/FarmingC2N.sol\":7995:8094  (, pool.accERC20PerShare) = pool.accERC20PerShare.tryAdd(... */\n      dup3\n      swap2\n      swap1\n      pop\n      sstore\n      pop\n        /* \"contracts/FarmingC2N.sol\":8417:8432  block.timestamp */\n      timestamp\n        /* \"contracts/FarmingC2N.sol\":8390:8394  pool */\n      dup7\n        /* \"contracts/FarmingC2N.sol\":8390:8414  pool.lastRewardTimestamp */\n      0x02\n      add\n        /* \"contracts/FarmingC2N.sol\":8390:8432  pool.lastRewardTimestamp = block.timestamp */\n      dup2\n      swap1\n      sstore\n      pop\n        /* \"contracts/FarmingC2N.sol\":7239:8439  {... */\n      pop\n      pop\n      pop\n      pop\n      pop\n      pop\n        /* \"contracts/FarmingC2N.sol\":7198:8439  function updatePool(uint256 _pid) public {... */\n    tag_158:\n      pop\n      jump\t// out\n        /* \"contracts/FarmingC2N.sol\":10662:11202  function emergencyWithdraw(uint256 _pid) public {... */\n    tag_62:\n        /* \"contracts/FarmingC2N.sol\":10720:10741  PoolInfo storage pool */\n      0x00\n        /* \"contracts/FarmingC2N.sol\":10744:10752  poolInfo */\n      0x05\n        /* \"contracts/FarmingC2N.sol\":10753:10757  _pid */\n      dup3\n        /* \"contracts/FarmingC2N.sol\":10744:10758  poolInfo[_pid] */\n      dup2\n      sload\n      dup2\n      lt\n      tag_174\n      jumpi\n      tag_175\n      tag_142\n      jump\t// in\n    tag_175:\n    tag_174:\n      swap1\n      0x00\n      mstore\n      keccak256(0x00, 0x20)\n      swap1\n      0x05\n      mul\n      add\n        /* \"contracts/FarmingC2N.sol\":10720:10758  PoolInfo storage pool = poolInfo[_pid] */\n      swap1\n      pop\n        /* \"contracts/FarmingC2N.sol\":10768:10789  UserInfo storage user */\n      0x00\n        /* \"contracts/FarmingC2N.sol\":10792:10800  userInfo */\n      0x06\n        /* \"contracts/FarmingC2N.sol\":10792:10806  userInfo[_pid] */\n      0x00\n        /* \"contracts/FarmingC2N.sol\":10801:10805  _pid */\n      dup5\n        /* \"contracts/FarmingC2N.sol\":10792:10806  userInfo[_pid] */\n      dup2\n      mstore\n      0x20\n      add\n      swap1\n      dup2\n      mstore\n      0x20\n      add\n      0x00\n      keccak256\n        /* \"contracts/FarmingC2N.sol\":10792:10818  userInfo[_pid][msg.sender] */\n      0x00\n        /* \"contracts/FarmingC2N.sol\":10807:10817  msg.sender */\n      caller\n        /* \"contracts/FarmingC2N.sol\":10792:10818  userInfo[_pid][msg.sender] */\n      0xffffffffffffffffffffffffffffffffffffffff\n      and\n      0xffffffffffffffffffffffffffffffffffffffff\n      and\n      dup2\n      mstore\n      0x20\n      add\n      swap1\n      dup2\n      mstore\n      0x20\n      add\n      0x00\n      keccak256\n        /* \"contracts/FarmingC2N.sol\":10768:10818  UserInfo storage user = userInfo[_pid][msg.sender] */\n      swap1\n      pop\n        /* \"contracts/FarmingC2N.sol\":10828:10887  pool.lpToken.safeTransfer(address(msg.sender), user.amount) */\n      tag_177\n        /* \"contracts/FarmingC2N.sol\":10862:10872  msg.sender */\n      caller\n        /* \"contracts/FarmingC2N.sol\":10875:10879  user */\n      dup3\n        /* \"contracts/FarmingC2N.sol\":10875:10886  user.amount */\n      0x00\n      add\n      sload\n        /* \"contracts/FarmingC2N.sol\":10828:10832  pool */\n      dup5\n        /* \"contracts/FarmingC2N.sol\":10828:10840  pool.lpToken */\n      0x00\n      add\n      0x00\n      swap1\n      sload\n      swap1\n      0x0100\n      exp\n      swap1\n      div\n      0xffffffffffffffffffffffffffffffffffffffff\n      and\n        /* \"contracts/FarmingC2N.sol\":10828:10853  pool.lpToken.safeTransfer */\n      0xffffffffffffffffffffffffffffffffffffffff\n      and\n      tag_155\n      swap1\n        /* \"contracts/FarmingC2N.sol\":10828:10887  pool.lpToken.safeTransfer(address(msg.sender), user.amount) */\n      swap3\n      swap2\n      swap1\n      0xffffffff\n      and\n      jump\t// in\n    tag_177:\n        /* \"contracts/FarmingC2N.sol\":10991:11029  pool.totalDeposits.trySub(user.amount) */\n      tag_178\n        /* \"contracts/FarmingC2N.sol\":11017:11021  user */\n      dup2\n        /* \"contracts/FarmingC2N.sol\":11017:11028  user.amount */\n      0x00\n      add\n      sload\n        /* \"contracts/FarmingC2N.sol\":10991:10995  pool */\n      dup4\n        /* \"contracts/FarmingC2N.sol\":10991:11009  pool.totalDeposits */\n      0x04\n      add\n      sload\n        /* \"contracts/FarmingC2N.sol\":10991:11016  pool.totalDeposits.trySub */\n      tag_138\n      swap1\n        /* \"contracts/FarmingC2N.sol\":10991:11029  pool.totalDeposits.trySub(user.amount) */\n      swap2\n      swap1\n      0xffffffff\n      and\n      jump\t// in\n    tag_178:\n        /* \"contracts/FarmingC2N.sol\":10966:11029  (, pool.totalDeposits) = pool.totalDeposits.trySub(user.amount) */\n      swap1\n      pop\n        /* \"contracts/FarmingC2N.sol\":10969:10973  pool */\n      dup3\n        /* \"contracts/FarmingC2N.sol\":10969:10987  pool.totalDeposits */\n      0x04\n      add\n      0x00\n        /* \"contracts/FarmingC2N.sol\":10966:11029  (, pool.totalDeposits) = pool.totalDeposits.trySub(user.amount) */\n      dup3\n      swap2\n      swap1\n      pop\n      sstore\n      pop\n        /* \"contracts/FarmingC2N.sol\":11074:11078  _pid */\n      dup3\n        /* \"contracts/FarmingC2N.sol\":11062:11072  msg.sender */\n      caller\n        /* \"contracts/FarmingC2N.sol\":11044:11092  EmergencyWithdraw(msg.sender, _pid, user.amount) */\n      0xffffffffffffffffffffffffffffffffffffffff\n      and\n      0xbb757047c2b5f3974fe26b7c10f732e7bce710b0952a71082702781e62ae0595\n        /* \"contracts/FarmingC2N.sol\":11080:11084  user */\n      dup4\n        /* \"contracts/FarmingC2N.sol\":11080:11091  user.amount */\n      0x00\n      add\n      sload\n        /* \"contracts/FarmingC2N.sol\":11044:11092  EmergencyWithdraw(msg.sender, _pid, user.amount) */\n      mload(0x40)\n      tag_179\n      swap2\n      swap1\n      tag_33\n      jump\t// in\n    tag_179:\n      mload(0x40)\n      dup1\n      swap2\n      sub\n      swap1\n      log3\n        /* \"contracts/FarmingC2N.sol\":11109:11117  userInfo */\n      0x06\n        /* \"contracts/FarmingC2N.sol\":11109:11123  userInfo[_pid] */\n      0x00\n        /* \"contracts/FarmingC2N.sol\":11118:11122  _pid */\n      dup5\n        /* \"contracts/FarmingC2N.sol\":11109:11123  userInfo[_pid] */\n      dup2\n      mstore\n      0x20\n      add\n      swap1\n      dup2\n      mstore\n      0x20\n      add\n      0x00\n      keccak256\n        /* \"contracts/FarmingC2N.sol\":11109:11135  userInfo[_pid][msg.sender] */\n      0x00\n        /* \"contracts/FarmingC2N.sol\":11124:11134  msg.sender */\n      caller\n        /* \"contracts/FarmingC2N.sol\":11109:11135  userInfo[_pid][msg.sender] */\n      0xffffffffffffffffffffffffffffffffffffffff\n      and\n      0xffffffffffffffffffffffffffffffffffffffff\n      and\n      dup2\n      mstore\n      0x20\n      add\n      swap1\n      dup2\n      mstore\n      0x20\n      add\n      0x00\n      keccak256\n      0x00\n        /* \"contracts/FarmingC2N.sol\":11102:11135  delete userInfo[_pid][msg.sender] */\n      dup1\n      dup3\n      add\n      0x00\n      swap1\n      sstore\n      0x01\n      dup3\n      add\n      0x00\n      swap1\n      sstore\n      pop\n      pop\n        /* \"contracts/FarmingC2N.sol\":10710:11202  {... */\n      pop\n      pop\n        /* \"contracts/FarmingC2N.sol\":10662:11202  function emergencyWithdraw(uint256 _pid) public {... */\n      pop\n      jump\t// out\n        /* \"contracts/FarmingC2N.sol\":1279:1301  uint256 public paidOut */\n    tag_64:\n      sload(0x02)\n      dup2\n      jump\t// out\n        /* \"contracts/FarmingC2N.sol\":6950:7125  function massUpdatePools() public {... */\n    tag_67:\n        /* \"contracts/FarmingC2N.sol\":6994:7008  uint256 length */\n      0x00\n        /* \"contracts/FarmingC2N.sol\":7011:7019  poolInfo */\n      0x05\n        /* \"contracts/FarmingC2N.sol\":7011:7026  poolInfo.length */\n      dup1\n      sload\n      swap1\n      pop\n        /* \"contracts/FarmingC2N.sol\":6994:7026  uint256 length = poolInfo.length */\n      swap1\n      pop\n        /* \"contracts/FarmingC2N.sol\":7041:7052  uint256 pid */\n      0x00\n        /* \"contracts/FarmingC2N.sol\":7036:7119  for (uint256 pid = 0; pid < length; ++pid) {... */\n    tag_181:\n        /* \"contracts/FarmingC2N.sol\":7064:7070  length */\n      dup2\n        /* \"contracts/FarmingC2N.sol\":7058:7061  pid */\n      dup2\n        /* \"contracts/FarmingC2N.sol\":7058:7070  pid < length */\n      lt\n        /* \"contracts/FarmingC2N.sol\":7036:7119  for (uint256 pid = 0; pid < length; ++pid) {... */\n      iszero\n      tag_182\n      jumpi\n        /* \"contracts/FarmingC2N.sol\":7093:7108  updatePool(pid) */\n      tag_184\n        /* \"contracts/FarmingC2N.sol\":7104:7107  pid */\n      dup2\n        /* \"contracts/FarmingC2N.sol\":7093:7103  updatePool */\n      tag_59\n        /* \"contracts/FarmingC2N.sol\":7093:7108  updatePool(pid) */\n      jump\t// in\n    tag_184:\n        /* \"contracts/FarmingC2N.sol\":7072:7077  ++pid */\n      dup1\n      0x01\n      add\n      swap1\n      pop\n        /* \"contracts/FarmingC2N.sol\":7036:7119  for (uint256 pid = 0; pid < length; ++pid) {... */\n      jump(tag_181)\n    tag_182:\n      pop\n        /* \"contracts/FarmingC2N.sol\":6984:7125  {... */\n      pop\n        /* \"contracts/FarmingC2N.sol\":6950:7125  function massUpdatePools() public {... */\n      jump\t// out\n        /* \"contracts/FarmingC2N.sol\":3962:4348  function set(... */\n    tag_71:\n        /* \"@openzeppelin/contracts/access/Ownable.sol\":1531:1544  _checkOwner() */\n      tag_186\n        /* \"@openzeppelin/contracts/access/Ownable.sol\":1531:1542  _checkOwner */\n      tag_120\n        /* \"@openzeppelin/contracts/access/Ownable.sol\":1531:1544  _checkOwner() */\n      jump\t// in\n    tag_186:\n        /* \"contracts/FarmingC2N.sol\":4089:4100  _withUpdate */\n      dup1\n        /* \"contracts/FarmingC2N.sol\":4085:4144  if (_withUpdate) {... */\n      iszero\n      tag_188\n      jumpi\n        /* \"contracts/FarmingC2N.sol\":4116:4133  massUpdatePools() */\n      tag_189\n        /* \"contracts/FarmingC2N.sol\":4116:4131  massUpdatePools */\n      tag_67\n        /* \"contracts/FarmingC2N.sol\":4116:4133  massUpdatePools() */\n      jump\t// in\n    tag_189:\n        /* \"contracts/FarmingC2N.sol\":4085:4144  if (_withUpdate) {... */\n    tag_188:\n        /* \"contracts/FarmingC2N.sol\":4175:4224  totalAllocPoint.trySub(poolInfo[_pid].allocPoint) */\n      tag_190\n        /* \"contracts/FarmingC2N.sol\":4198:4206  poolInfo */\n      0x05\n        /* \"contracts/FarmingC2N.sol\":4207:4211  _pid */\n      dup5\n        /* \"contracts/FarmingC2N.sol\":4198:4212  poolInfo[_pid] */\n      dup2\n      sload\n      dup2\n      lt\n      tag_191\n      jumpi\n      tag_192\n      tag_142\n      jump\t// in\n    tag_192:\n    tag_191:\n      swap1\n      0x00\n      mstore\n      keccak256(0x00, 0x20)\n      swap1\n      0x05\n      mul\n      add\n        /* \"contracts/FarmingC2N.sol\":4198:4223  poolInfo[_pid].allocPoint */\n      0x01\n      add\n      sload\n        /* \"contracts/FarmingC2N.sol\":4175:4190  totalAllocPoint */\n      sload(0x07)\n        /* \"contracts/FarmingC2N.sol\":4175:4197  totalAllocPoint.trySub */\n      tag_138\n      swap1\n        /* \"contracts/FarmingC2N.sol\":4175:4224  totalAllocPoint.trySub(poolInfo[_pid].allocPoint) */\n      swap2\n      swap1\n      0xffffffff\n      and\n      jump\t// in\n    tag_190:\n        /* \"contracts/FarmingC2N.sol\":4153:4224  (, totalAllocPoint) = totalAllocPoint.trySub(poolInfo[_pid].allocPoint) */\n      swap1\n      pop\n        /* \"contracts/FarmingC2N.sol\":4156:4171  totalAllocPoint */\n      0x07\n      0x00\n        /* \"contracts/FarmingC2N.sol\":4153:4224  (, totalAllocPoint) = totalAllocPoint.trySub(poolInfo[_pid].allocPoint) */\n      dup3\n      swap2\n      swap1\n      pop\n      sstore\n      pop\n        /* \"contracts/FarmingC2N.sol\":4257:4292  totalAllocPoint.tryAdd(_allocPoint) */\n      tag_194\n        /* \"contracts/FarmingC2N.sol\":4280:4291  _allocPoint */\n      dup3\n        /* \"contracts/FarmingC2N.sol\":4257:4272  totalAllocPoint */\n      sload(0x07)\n        /* \"contracts/FarmingC2N.sol\":4257:4279  totalAllocPoint.tryAdd */\n      tag_127\n      swap1\n        /* \"contracts/FarmingC2N.sol\":4257:4292  totalAllocPoint.tryAdd(_allocPoint) */\n      swap2\n      swap1\n      0xffffffff\n      and\n      jump\t// in\n    tag_194:\n        /* \"contracts/FarmingC2N.sol\":4235:4292  (, totalAllocPoint) = totalAllocPoint.tryAdd(_allocPoint) */\n      swap1\n      pop\n        /* \"contracts/FarmingC2N.sol\":4238:4253  totalAllocPoint */\n      0x07\n      0x00\n        /* \"contracts/FarmingC2N.sol\":4235:4292  (, totalAllocPoint) = totalAllocPoint.tryAdd(_allocPoint) */\n      dup3\n      swap2\n      swap1\n      pop\n      sstore\n      pop\n        /* \"contracts/FarmingC2N.sol\":4330:4341  _allocPoint */\n      dup2\n        /* \"contracts/FarmingC2N.sol\":4302:4310  poolInfo */\n      0x05\n        /* \"contracts/FarmingC2N.sol\":4311:4315  _pid */\n      dup5\n        /* \"contracts/FarmingC2N.sol\":4302:4316  poolInfo[_pid] */\n      dup2\n      sload\n      dup2\n      lt\n      tag_195\n      jumpi\n      tag_196\n      tag_142\n      jump\t// in\n    tag_196:\n    tag_195:\n      swap1\n      0x00\n      mstore\n      keccak256(0x00, 0x20)\n      swap1\n      0x05\n      mul\n      add\n        /* \"contracts/FarmingC2N.sol\":4302:4327  poolInfo[_pid].allocPoint */\n      0x01\n      add\n        /* \"contracts/FarmingC2N.sol\":4302:4341  poolInfo[_pid].allocPoint = _allocPoint */\n      dup2\n      swap1\n      sstore\n      pop\n        /* \"contracts/FarmingC2N.sol\":3962:4348  function set(... */\n      pop\n      pop\n      pop\n      jump\t// out\n        /* \"@openzeppelin/contracts/access/Ownable.sol\":2293:2394  function renounceOwnership() public virtual onlyOwner {... */\n    tag_73:\n        /* \"@openzeppelin/contracts/access/Ownable.sol\":1531:1544  _checkOwner() */\n      tag_199\n        /* \"@openzeppelin/contracts/access/Ownable.sol\":1531:1542  _checkOwner */\n      tag_120\n        /* \"@openzeppelin/contracts/access/Ownable.sol\":1531:1544  _checkOwner() */\n      jump\t// in\n    tag_199:\n        /* \"@openzeppelin/contracts/access/Ownable.sol\":2357:2387  _transferOwnership(address(0)) */\n      tag_201\n        /* \"@openzeppelin/contracts/access/Ownable.sol\":2384:2385  0 */\n      0x00\n        /* \"@openzeppelin/contracts/access/Ownable.sol\":2357:2375  _transferOwnership */\n      tag_202\n        /* \"@openzeppelin/contracts/access/Ownable.sol\":2357:2387  _transferOwnership(address(0)) */\n      jump\t// in\n    tag_201:\n        /* \"@openzeppelin/contracts/access/Ownable.sol\":2293:2394  function renounceOwnership() public virtual onlyOwner {... */\n      jump\t// out\n        /* \"contracts/FarmingC2N.sol\":1194:1213  IERC20 public erc20 */\n    tag_75:\n      0x01\n      0x00\n      swap1\n      sload\n      swap1\n      0x0100\n      exp\n      swap1\n      div\n      0xffffffffffffffffffffffffffffffffffffffff\n      and\n      dup2\n      jump\t// out\n        /* \"@openzeppelin/contracts/access/Ownable.sol\":1638:1723  function owner() public view virtual returns (address) {... */\n    tag_79:\n        /* \"@openzeppelin/contracts/access/Ownable.sol\":1684:1691  address */\n      0x00\n        /* \"@openzeppelin/contracts/access/Ownable.sol\":1710:1716  _owner */\n      dup1\n      0x00\n      swap1\n      sload\n      swap1\n      0x0100\n      exp\n      swap1\n      div\n      0xffffffffffffffffffffffffffffffffffffffff\n      and\n        /* \"@openzeppelin/contracts/access/Ownable.sol\":1703:1716  return _owner */\n      swap1\n      pop\n        /* \"@openzeppelin/contracts/access/Ownable.sol\":1638:1723  function owner() public view virtual returns (address) {... */\n      swap1\n      jump\t// out\n        /* \"contracts/FarmingC2N.sol\":1348:1378  uint256 public rewardPerSecond */\n    tag_83:\n      sload(0x03)\n      dup2\n      jump\t// out\n        /* \"contracts/FarmingC2N.sol\":1558:1622  mapping(uint256 => mapping(address => UserInfo)) public userInfo */\n    tag_88:\n      mstore(0x20, 0x06)\n      dup2\n      0x00\n      mstore\n      mstore(0x20, keccak256(0x00, 0x40))\n      dup1\n      0x00\n      mstore\n      keccak256(0x00, 0x40)\n      0x00\n      swap2\n      pop\n      swap2\n      pop\n      pop\n      dup1\n      0x00\n      add\n      sload\n      swap1\n      dup1\n      0x01\n      add\n      sload\n      swap1\n      pop\n      dup3\n      jump\t// out\n        /* \"contracts/FarmingC2N.sol\":4407:4605  function deposited(uint256 _pid, address _user)... */\n    tag_93:\n        /* \"contracts/FarmingC2N.sol\":4502:4509  uint256 */\n      0x00\n        /* \"contracts/FarmingC2N.sol\":4525:4546  UserInfo storage user */\n      dup1\n        /* \"contracts/FarmingC2N.sol\":4549:4557  userInfo */\n      0x06\n        /* \"contracts/FarmingC2N.sol\":4549:4563  userInfo[_pid] */\n      0x00\n        /* \"contracts/FarmingC2N.sol\":4558:4562  _pid */\n      dup6\n        /* \"contracts/FarmingC2N.sol\":4549:4563  userInfo[_pid] */\n      dup2\n      mstore\n      0x20\n      add\n      swap1\n      dup2\n      mstore\n      0x20\n      add\n      0x00\n      keccak256\n        /* \"contracts/FarmingC2N.sol\":4549:4570  userInfo[_pid][_user] */\n      0x00\n        /* \"contracts/FarmingC2N.sol\":4564:4569  _user */\n      dup5\n        /* \"contracts/FarmingC2N.sol\":4549:4570  userInfo[_pid][_user] */\n      0xffffffffffffffffffffffffffffffffffffffff\n      and\n      0xffffffffffffffffffffffffffffffffffffffff\n      and\n      dup2\n      mstore\n      0x20\n      add\n      swap1\n      dup2\n      mstore\n      0x20\n      add\n      0x00\n      keccak256\n        /* \"contracts/FarmingC2N.sol\":4525:4570  UserInfo storage user = userInfo[_pid][_user] */\n      swap1\n      pop\n        /* \"contracts/FarmingC2N.sol\":4587:4591  user */\n      dup1\n        /* \"contracts/FarmingC2N.sol\":4587:4598  user.amount */\n      0x00\n      add\n      sload\n        /* \"contracts/FarmingC2N.sol\":4580:4598  return user.amount */\n      swap2\n      pop\n      pop\n        /* \"contracts/FarmingC2N.sol\":4407:4605  function deposited(uint256 _pid, address _user)... */\n      swap3\n      swap2\n      pop\n      pop\n      jump\t// out\n        /* \"contracts/FarmingC2N.sol\":1869:1896  uint256 public endTimestamp */\n    tag_96:\n      sload(0x09)\n      dup2\n      jump\t// out\n        /* \"contracts/FarmingC2N.sol\":2641:3042  function fund(uint256 _amount) public {... */\n    tag_100:\n        /* \"contracts/FarmingC2N.sol\":2728:2740  endTimestamp */\n      sload(0x09)\n        /* \"contracts/FarmingC2N.sol\":2710:2725  block.timestamp */\n      timestamp\n        /* \"contracts/FarmingC2N.sol\":2710:2740  block.timestamp < endTimestamp */\n      lt\n        /* \"contracts/FarmingC2N.sol\":2689:2800  require(... */\n      tag_206\n      jumpi\n      mload(0x40)\n      0x08c379a000000000000000000000000000000000000000000000000000000000\n      dup2\n      mstore\n      0x04\n      add\n      tag_207\n      swap1\n      tag_208\n      jump\t// in\n    tag_207:\n      mload(0x40)\n      dup1\n      swap2\n      sub\n      swap1\n      revert\n    tag_206:\n        /* \"contracts/FarmingC2N.sol\":2810:2877  erc20.safeTransferFrom(address(msg.sender), address(this), _amount) */\n      tag_209\n        /* \"contracts/FarmingC2N.sol\":2841:2851  msg.sender */\n      caller\n        /* \"contracts/FarmingC2N.sol\":2862:2866  this */\n      address\n        /* \"contracts/FarmingC2N.sol\":2869:2876  _amount */\n      dup4\n        /* \"contracts/FarmingC2N.sol\":2810:2815  erc20 */\n      0x01\n      0x00\n      swap1\n      sload\n      swap1\n      0x0100\n      exp\n      swap1\n      div\n      0xffffffffffffffffffffffffffffffffffffffff\n      and\n        /* \"contracts/FarmingC2N.sol\":2810:2832  erc20.safeTransferFrom */\n      0xffffffffffffffffffffffffffffffffffffffff\n      and\n      tag_210\n      swap1\n        /* \"contracts/FarmingC2N.sol\":2810:2877  erc20.safeTransferFrom(address(msg.sender), address(this), _amount) */\n      swap4\n      swap3\n      swap2\n      swap1\n      0xffffffff\n      and\n      jump\t// in\n    tag_209:\n        /* \"contracts/FarmingC2N.sol\":2890:2907  uint256 timestamp */\n      0x00\n        /* \"contracts/FarmingC2N.sol\":2911:2942  _amount.tryDiv(rewardPerSecond) */\n      tag_211\n        /* \"contracts/FarmingC2N.sol\":2926:2941  rewardPerSecond */\n      sload(0x03)\n        /* \"contracts/FarmingC2N.sol\":2911:2918  _amount */\n      dup4\n        /* \"contracts/FarmingC2N.sol\":2911:2925  _amount.tryDiv */\n      tag_171\n      swap1\n        /* \"contracts/FarmingC2N.sol\":2911:2942  _amount.tryDiv(rewardPerSecond) */\n      swap2\n      swap1\n      0xffffffff\n      and\n      jump\t// in\n    tag_211:\n        /* \"contracts/FarmingC2N.sol\":2887:2942  (, uint256 timestamp) = _amount.tryDiv(rewardPerSecond) */\n      swap2\n      pop\n      pop\n        /* \"contracts/FarmingC2N.sol\":2968:2977  timestamp */\n      dup1\n        /* \"contracts/FarmingC2N.sol\":2952:2964  endTimestamp */\n      0x09\n      0x00\n        /* \"contracts/FarmingC2N.sol\":2952:2977  endTimestamp += timestamp */\n      dup3\n      dup3\n      sload\n      tag_212\n      swap2\n      swap1\n      tag_213\n      jump\t// in\n    tag_212:\n      swap3\n      pop\n      pop\n      dup2\n      swap1\n      sstore\n      pop\n        /* \"contracts/FarmingC2N.sol\":3007:3035  totalRewards.tryAdd(_amount) */\n      tag_214\n        /* \"contracts/FarmingC2N.sol\":3027:3034  _amount */\n      dup3\n        /* \"contracts/FarmingC2N.sol\":3007:3019  totalRewards */\n      sload(0x04)\n        /* \"contracts/FarmingC2N.sol\":3007:3026  totalRewards.tryAdd */\n      tag_127\n      swap1\n        /* \"contracts/FarmingC2N.sol\":3007:3035  totalRewards.tryAdd(_amount) */\n      swap2\n      swap1\n      0xffffffff\n      and\n      jump\t// in\n    tag_214:\n        /* \"contracts/FarmingC2N.sol\":2988:3035  (, totalRewards) = totalRewards.tryAdd(_amount) */\n      swap1\n      pop\n        /* \"contracts/FarmingC2N.sol\":2991:3003  totalRewards */\n      0x04\n      0x00\n        /* \"contracts/FarmingC2N.sol\":2988:3035  (, totalRewards) = totalRewards.tryAdd(_amount) */\n      dup3\n      swap2\n      swap1\n      pop\n      sstore\n      pop\n        /* \"contracts/FarmingC2N.sol\":2679:3042  {... */\n      pop\n        /* \"contracts/FarmingC2N.sol\":2641:3042  function fund(uint256 _amount) public {... */\n      pop\n      jump\t// out\n        /* \"contracts/FarmingC2N.sol\":8500:9549  function deposit(uint256 _pid, uint256 _amount) public {... */\n    tag_103:\n        /* \"contracts/FarmingC2N.sol\":8565:8586  PoolInfo storage pool */\n      0x00\n        /* \"contracts/FarmingC2N.sol\":8589:8597  poolInfo */\n      0x05\n        /* \"contracts/FarmingC2N.sol\":8598:8602  _pid */\n      dup4\n        /* \"contracts/FarmingC2N.sol\":8589:8603  poolInfo[_pid] */\n      dup2\n      sload\n      dup2\n      lt\n      tag_216\n      jumpi\n      tag_217\n      tag_142\n      jump\t// in\n    tag_217:\n    tag_216:\n      swap1\n      0x00\n      mstore\n      keccak256(0x00, 0x20)\n      swap1\n      0x05\n      mul\n      add\n        /* \"contracts/FarmingC2N.sol\":8565:8603  PoolInfo storage pool = poolInfo[_pid] */\n      swap1\n      pop\n        /* \"contracts/FarmingC2N.sol\":8613:8634  UserInfo storage user */\n      0x00\n        /* \"contracts/FarmingC2N.sol\":8637:8645  userInfo */\n      0x06\n        /* \"contracts/FarmingC2N.sol\":8637:8651  userInfo[_pid] */\n      0x00\n        /* \"contracts/FarmingC2N.sol\":8646:8650  _pid */\n      dup6\n        /* \"contracts/FarmingC2N.sol\":8637:8651  userInfo[_pid] */\n      dup2\n      mstore\n      0x20\n      add\n      swap1\n      dup2\n      mstore\n      0x20\n      add\n      0x00\n      keccak256\n        /* \"contracts/FarmingC2N.sol\":8637:8663  userInfo[_pid][msg.sender] */\n      0x00\n        /* \"contracts/FarmingC2N.sol\":8652:8662  msg.sender */\n      caller\n        /* \"contracts/FarmingC2N.sol\":8637:8663  userInfo[_pid][msg.sender] */\n      0xffffffffffffffffffffffffffffffffffffffff\n      and\n      0xffffffffffffffffffffffffffffffffffffffff\n      and\n      dup2\n      mstore\n      0x20\n      add\n      swap1\n      dup2\n      mstore\n      0x20\n      add\n      0x00\n      keccak256\n        /* \"contracts/FarmingC2N.sol\":8613:8663  UserInfo storage user = userInfo[_pid][msg.sender] */\n      swap1\n      pop\n        /* \"contracts/FarmingC2N.sol\":8674:8690  updatePool(_pid) */\n      tag_219\n        /* \"contracts/FarmingC2N.sol\":8685:8689  _pid */\n      dup5\n        /* \"contracts/FarmingC2N.sol\":8674:8684  updatePool */\n      tag_59\n        /* \"contracts/FarmingC2N.sol\":8674:8690  updatePool(_pid) */\n      jump\t// in\n    tag_219:\n        /* \"contracts/FarmingC2N.sol\":8719:8720  0 */\n      0x00\n        /* \"contracts/FarmingC2N.sol\":8705:8709  user */\n      dup2\n        /* \"contracts/FarmingC2N.sol\":8705:8716  user.amount */\n      0x00\n      add\n      sload\n        /* \"contracts/FarmingC2N.sol\":8705:8720  user.amount > 0 */\n      gt\n        /* \"contracts/FarmingC2N.sol\":8701:9165  if (user.amount > 0) {... */\n      iszero\n      tag_220\n      jumpi\n        /* \"contracts/FarmingC2N.sol\":8930:8948  uint256 userReward */\n      0x00\n        /* \"contracts/FarmingC2N.sol\":8952:9023  user.amount.tryMul(... */\n      tag_221\n        /* \"contracts/FarmingC2N.sol\":8988:8992  pool */\n      dup4\n        /* \"contracts/FarmingC2N.sol\":8988:9009  pool.accERC20PerShare */\n      0x03\n      add\n      sload\n        /* \"contracts/FarmingC2N.sol\":8952:8956  user */\n      dup4\n        /* \"contracts/FarmingC2N.sol\":8952:8963  user.amount */\n      0x00\n      add\n      sload\n        /* \"contracts/FarmingC2N.sol\":8952:8970  user.amount.tryMul */\n      tag_136\n      swap1\n        /* \"contracts/FarmingC2N.sol\":8952:9023  user.amount.tryMul(... */\n      swap2\n      swap1\n      0xffffffff\n      and\n      jump\t// in\n    tag_221:\n        /* \"contracts/FarmingC2N.sol\":8927:9023  (, uint256 userReward) = user.amount.tryMul(... */\n      swap2\n      pop\n      pop\n        /* \"contracts/FarmingC2N.sol\":9040:9061  uint256 pendingAmount */\n      0x00\n        /* \"contracts/FarmingC2N.sol\":9065:9099  userReward.trySub(user.rewardDebt) */\n      tag_222\n        /* \"contracts/FarmingC2N.sol\":9083:9087  user */\n      dup4\n        /* \"contracts/FarmingC2N.sol\":9083:9098  user.rewardDebt */\n      0x01\n      add\n      sload\n        /* \"contracts/FarmingC2N.sol\":9065:9075  userReward */\n      dup4\n        /* \"contracts/FarmingC2N.sol\":9065:9082  userReward.trySub */\n      tag_138\n      swap1\n        /* \"contracts/FarmingC2N.sol\":9065:9099  userReward.trySub(user.rewardDebt) */\n      swap2\n      swap1\n      0xffffffff\n      and\n      jump\t// in\n    tag_222:\n        /* \"contracts/FarmingC2N.sol\":9037:9099  (, uint256 pendingAmount) = userReward.trySub(user.rewardDebt) */\n      swap2\n      pop\n      pop\n        /* \"contracts/FarmingC2N.sol\":9114:9154  erc20Transfer(msg.sender, pendingAmount) */\n      tag_223\n        /* \"contracts/FarmingC2N.sol\":9128:9138  msg.sender */\n      caller\n        /* \"contracts/FarmingC2N.sol\":9140:9153  pendingAmount */\n      dup3\n        /* \"contracts/FarmingC2N.sol\":9114:9127  erc20Transfer */\n      tag_151\n        /* \"contracts/FarmingC2N.sol\":9114:9154  erc20Transfer(msg.sender, pendingAmount) */\n      jump\t// in\n    tag_223:\n        /* \"contracts/FarmingC2N.sol\":8722:9165  {... */\n      pop\n      pop\n        /* \"contracts/FarmingC2N.sol\":8701:9165  if (user.amount > 0) {... */\n    tag_220:\n        /* \"contracts/FarmingC2N.sol\":9175:9295  pool.lpToken.safeTransferFrom(... */\n      tag_224\n        /* \"contracts/FarmingC2N.sol\":9226:9236  msg.sender */\n      caller\n        /* \"contracts/FarmingC2N.sol\":9259:9263  this */\n      address\n        /* \"contracts/FarmingC2N.sol\":9278:9285  _amount */\n      dup6\n        /* \"contracts/FarmingC2N.sol\":9175:9179  pool */\n      dup6\n        /* \"contracts/FarmingC2N.sol\":9175:9187  pool.lpToken */\n      0x00\n      add\n      0x00\n      swap1\n      sload\n      swap1\n      0x0100\n      exp\n      swap1\n      div\n      0xffffffffffffffffffffffffffffffffffffffff\n      and\n        /* \"contracts/FarmingC2N.sol\":9175:9204  pool.lpToken.safeTransferFrom */\n      0xffffffffffffffffffffffffffffffffffffffff\n      and\n      tag_210\n      swap1\n        /* \"contracts/FarmingC2N.sol\":9175:9295  pool.lpToken.safeTransferFrom(... */\n      swap4\n      swap3\n      swap2\n      swap1\n      0xffffffff\n      and\n      jump\t// in\n    tag_224:\n        /* \"contracts/FarmingC2N.sol\":9330:9364  pool.totalDeposits.tryAdd(_amount) */\n      tag_225\n        /* \"contracts/FarmingC2N.sol\":9356:9363  _amount */\n      dup4\n        /* \"contracts/FarmingC2N.sol\":9330:9334  pool */\n      dup4\n        /* \"contracts/FarmingC2N.sol\":9330:9348  pool.totalDeposits */\n      0x04\n      add\n      sload\n        /* \"contracts/FarmingC2N.sol\":9330:9355  pool.totalDeposits.tryAdd */\n      tag_127\n      swap1\n        /* \"contracts/FarmingC2N.sol\":9330:9364  pool.totalDeposits.tryAdd(_amount) */\n      swap2\n      swap1\n      0xffffffff\n      and\n      jump\t// in\n    tag_225:\n        /* \"contracts/FarmingC2N.sol\":9305:9364  (, pool.totalDeposits) = pool.totalDeposits.tryAdd(_amount) */\n      swap1\n      pop\n        /* \"contracts/FarmingC2N.sol\":9308:9312  pool */\n      dup3\n        /* \"contracts/FarmingC2N.sol\":9308:9326  pool.totalDeposits */\n      0x04\n      add\n      0x00\n        /* \"contracts/FarmingC2N.sol\":9305:9364  (, pool.totalDeposits) = pool.totalDeposits.tryAdd(_amount) */\n      dup3\n      swap2\n      swap1\n      pop\n      sstore\n      pop\n        /* \"contracts/FarmingC2N.sol\":9393:9420  user.amount.tryAdd(_amount) */\n      tag_226\n        /* \"contracts/FarmingC2N.sol\":9412:9419  _amount */\n      dup4\n        /* \"contracts/FarmingC2N.sol\":9393:9397  user */\n      dup3\n        /* \"contracts/FarmingC2N.sol\":9393:9404  user.amount */\n      0x00\n      add\n      sload\n        /* \"contracts/FarmingC2N.sol\":9393:9411  user.amount.tryAdd */\n      tag_127\n      swap1\n        /* \"contracts/FarmingC2N.sol\":9393:9420  user.amount.tryAdd(_amount) */\n      swap2\n      swap1\n      0xffffffff\n      and\n      jump\t// in\n    tag_226:\n        /* \"contracts/FarmingC2N.sol\":9375:9420  (, user.amount) = user.amount.tryAdd(_amount) */\n      swap1\n      pop\n        /* \"contracts/FarmingC2N.sol\":9378:9382  user */\n      dup2\n        /* \"contracts/FarmingC2N.sol\":9378:9389  user.amount */\n      0x00\n      add\n      0x00\n        /* \"contracts/FarmingC2N.sol\":9375:9420  (, user.amount) = user.amount.tryAdd(_amount) */\n      dup3\n      swap2\n      swap1\n      pop\n      sstore\n      pop\n        /* \"contracts/FarmingC2N.sol\":9452:9493  user.amount.tryMul(pool.accERC20PerShare) */\n      tag_227\n        /* \"contracts/FarmingC2N.sol\":9471:9475  pool */\n      dup3\n        /* \"contracts/FarmingC2N.sol\":9471:9492  pool.accERC20PerShare */\n      0x03\n      add\n      sload\n        /* \"contracts/FarmingC2N.sol\":9452:9456  user */\n      dup3\n        /* \"contracts/FarmingC2N.sol\":9452:9463  user.amount */\n      0x00\n      add\n      sload\n        /* \"contracts/FarmingC2N.sol\":9452:9470  user.amount.tryMul */\n      tag_136\n      swap1\n        /* \"contracts/FarmingC2N.sol\":9452:9493  user.amount.tryMul(pool.accERC20PerShare) */\n      swap2\n      swap1\n      0xffffffff\n      and\n      jump\t// in\n    tag_227:\n        /* \"contracts/FarmingC2N.sol\":9430:9493  (, user.rewardDebt) = user.amount.tryMul(pool.accERC20PerShare) */\n      swap1\n      pop\n        /* \"contracts/FarmingC2N.sol\":9433:9437  user */\n      dup2\n        /* \"contracts/FarmingC2N.sol\":9433:9448  user.rewardDebt */\n      0x01\n      add\n      0x00\n        /* \"contracts/FarmingC2N.sol\":9430:9493  (, user.rewardDebt) = user.amount.tryMul(pool.accERC20PerShare) */\n      dup3\n      swap2\n      swap1\n      pop\n      sstore\n      pop\n        /* \"contracts/FarmingC2N.sol\":9528:9532  _pid */\n      dup4\n        /* \"contracts/FarmingC2N.sol\":9516:9526  msg.sender */\n      caller\n        /* \"contracts/FarmingC2N.sol\":9508:9542  Deposit(msg.sender, _pid, _amount) */\n      0xffffffffffffffffffffffffffffffffffffffff\n      and\n      0x90890809c654f11d6e72a28fa60149770a0d11ec6c92319d6ceb2bb0a4ea1a15\n        /* \"contracts/FarmingC2N.sol\":9534:9541  _amount */\n      dup6\n        /* \"contracts/FarmingC2N.sol\":9508:9542  Deposit(msg.sender, _pid, _amount) */\n      mload(0x40)\n      tag_228\n      swap2\n      swap1\n      tag_33\n      jump\t// in\n    tag_228:\n      mload(0x40)\n      dup1\n      swap2\n      sub\n      swap1\n      log3\n        /* \"contracts/FarmingC2N.sol\":8555:9549  {... */\n      pop\n      pop\n        /* \"contracts/FarmingC2N.sol\":8500:9549  function deposit(uint256 _pid, uint256 _amount) public {... */\n      pop\n      pop\n      jump\t// out\n        /* \"contracts/FarmingC2N.sol\":4666:6340  function pending(uint256 _pid, address _user)... */\n    tag_106:\n        /* \"contracts/FarmingC2N.sol\":4759:4766  uint256 */\n      0x00\n        /* \"contracts/FarmingC2N.sol\":4782:4803  PoolInfo storage pool */\n      dup1\n        /* \"contracts/FarmingC2N.sol\":4806:4814  poolInfo */\n      0x05\n        /* \"contracts/FarmingC2N.sol\":4815:4819  _pid */\n      dup5\n        /* \"contracts/FarmingC2N.sol\":4806:4820  poolInfo[_pid] */\n      dup2\n      sload\n      dup2\n      lt\n      tag_230\n      jumpi\n      tag_231\n      tag_142\n      jump\t// in\n    tag_231:\n    tag_230:\n      swap1\n      0x00\n      mstore\n      keccak256(0x00, 0x20)\n      swap1\n      0x05\n      mul\n      add\n        /* \"contracts/FarmingC2N.sol\":4782:4820  PoolInfo storage pool = poolInfo[_pid] */\n      swap1\n      pop\n        /* \"contracts/FarmingC2N.sol\":4830:4851  UserInfo storage user */\n      0x00\n        /* \"contracts/FarmingC2N.sol\":4854:4862  userInfo */\n      0x06\n        /* \"contracts/FarmingC2N.sol\":4854:4868  userInfo[_pid] */\n      0x00\n        /* \"contracts/FarmingC2N.sol\":4863:4867  _pid */\n      dup7\n        /* \"contracts/FarmingC2N.sol\":4854:4868  userInfo[_pid] */\n      dup2\n      mstore\n      0x20\n      add\n      swap1\n      dup2\n      mstore\n      0x20\n      add\n      0x00\n      keccak256\n        /* \"contracts/FarmingC2N.sol\":4854:4875  userInfo[_pid][_user] */\n      0x00\n        /* \"contracts/FarmingC2N.sol\":4869:4874  _user */\n      dup6\n        /* \"contracts/FarmingC2N.sol\":4854:4875  userInfo[_pid][_user] */\n      0xffffffffffffffffffffffffffffffffffffffff\n      and\n      0xffffffffffffffffffffffffffffffffffffffff\n      and\n      dup2\n      mstore\n      0x20\n      add\n      swap1\n      dup2\n      mstore\n      0x20\n      add\n      0x00\n      keccak256\n        /* \"contracts/FarmingC2N.sol\":4830:4875  UserInfo storage user = userInfo[_pid][_user] */\n      swap1\n      pop\n        /* \"contracts/FarmingC2N.sol\":4885:4909  uint256 accERC20PerShare */\n      0x00\n        /* \"contracts/FarmingC2N.sol\":4912:4916  pool */\n      dup3\n        /* \"contracts/FarmingC2N.sol\":4912:4933  pool.accERC20PerShare */\n      0x03\n      add\n      sload\n        /* \"contracts/FarmingC2N.sol\":4885:4933  uint256 accERC20PerShare = pool.accERC20PerShare */\n      swap1\n      pop\n        /* \"contracts/FarmingC2N.sol\":4943:4961  uint256 userAmount */\n      0x00\n        /* \"contracts/FarmingC2N.sol\":4964:4968  user */\n      dup3\n        /* \"contracts/FarmingC2N.sol\":4964:4975  user.amount */\n      0x00\n      add\n      sload\n        /* \"contracts/FarmingC2N.sol\":4943:4975  uint256 userAmount = user.amount */\n      swap1\n      pop\n        /* \"contracts/FarmingC2N.sol\":4986:5002  uint256 lpSupply */\n      0x00\n        /* \"contracts/FarmingC2N.sol\":5005:5009  pool */\n      dup5\n        /* \"contracts/FarmingC2N.sol\":5005:5023  pool.totalDeposits */\n      0x04\n      add\n      sload\n        /* \"contracts/FarmingC2N.sol\":4986:5023  uint256 lpSupply = pool.totalDeposits */\n      swap1\n      pop\n        /* \"contracts/FarmingC2N.sol\":5056:5060  pool */\n      dup5\n        /* \"contracts/FarmingC2N.sol\":5056:5080  pool.lastRewardTimestamp */\n      0x02\n      add\n      sload\n        /* \"contracts/FarmingC2N.sol\":5038:5053  block.timestamp */\n      timestamp\n        /* \"contracts/FarmingC2N.sol\":5038:5080  block.timestamp > pool.lastRewardTimestamp */\n      gt\n        /* \"contracts/FarmingC2N.sol\":5038:5097  block.timestamp > pool.lastRewardTimestamp && lpSupply != 0 */\n      dup1\n      iszero\n      tag_233\n      jumpi\n      pop\n        /* \"contracts/FarmingC2N.sol\":5096:5097  0 */\n      0x00\n        /* \"contracts/FarmingC2N.sol\":5084:5092  lpSupply */\n      dup2\n        /* \"contracts/FarmingC2N.sol\":5084:5097  lpSupply != 0 */\n      eq\n      iszero\n        /* \"contracts/FarmingC2N.sol\":5038:5097  block.timestamp > pool.lastRewardTimestamp && lpSupply != 0 */\n    tag_233:\n        /* \"contracts/FarmingC2N.sol\":5034:6172  if (block.timestamp > pool.lastRewardTimestamp && lpSupply != 0) {... */\n      iszero\n      tag_234\n      jumpi\n        /* \"contracts/FarmingC2N.sol\":5113:5134  uint256 lastTimestamp */\n      0x00\n        /* \"contracts/FarmingC2N.sol\":5155:5167  endTimestamp */\n      sload(0x09)\n        /* \"contracts/FarmingC2N.sol\":5137:5152  block.timestamp */\n      timestamp\n        /* \"contracts/FarmingC2N.sol\":5137:5167  block.timestamp < endTimestamp */\n      lt\n        /* \"contracts/FarmingC2N.sol\":5137:5232  block.timestamp < endTimestamp... */\n      tag_235\n      jumpi\n        /* \"contracts/FarmingC2N.sol\":5220:5232  endTimestamp */\n      sload(0x09)\n        /* \"contracts/FarmingC2N.sol\":5137:5232  block.timestamp < endTimestamp... */\n      jump(tag_236)\n    tag_235:\n        /* \"contracts/FarmingC2N.sol\":5186:5201  block.timestamp */\n      timestamp\n        /* \"contracts/FarmingC2N.sol\":5137:5232  block.timestamp < endTimestamp... */\n    tag_236:\n        /* \"contracts/FarmingC2N.sol\":5113:5232  uint256 lastTimestamp = block.timestamp < endTimestamp... */\n      swap1\n      pop\n        /* \"contracts/FarmingC2N.sol\":5246:5272  uint256 timestampToCompare */\n      0x00\n        /* \"contracts/FarmingC2N.sol\":5302:5314  endTimestamp */\n      sload(0x09)\n        /* \"contracts/FarmingC2N.sol\":5275:5279  pool */\n      dup8\n        /* \"contracts/FarmingC2N.sol\":5275:5299  pool.lastRewardTimestamp */\n      0x02\n      add\n      sload\n        /* \"contracts/FarmingC2N.sol\":5275:5314  pool.lastRewardTimestamp < endTimestamp */\n      lt\n        /* \"contracts/FarmingC2N.sol\":5275:5388  pool.lastRewardTimestamp < endTimestamp... */\n      tag_237\n      jumpi\n        /* \"contracts/FarmingC2N.sol\":5376:5388  endTimestamp */\n      sload(0x09)\n        /* \"contracts/FarmingC2N.sol\":5275:5388  pool.lastRewardTimestamp < endTimestamp... */\n      jump(tag_238)\n    tag_237:\n        /* \"contracts/FarmingC2N.sol\":5333:5337  pool */\n      dup7\n        /* \"contracts/FarmingC2N.sol\":5333:5357  pool.lastRewardTimestamp */\n      0x02\n      add\n      sload\n        /* \"contracts/FarmingC2N.sol\":5275:5388  pool.lastRewardTimestamp < endTimestamp... */\n    tag_238:\n        /* \"contracts/FarmingC2N.sol\":5246:5388  uint256 timestampToCompare = pool.lastRewardTimestamp < endTimestamp... */\n      swap1\n      pop\n        /* \"contracts/FarmingC2N.sol\":5784:5803  uint256 nrOfSeconds */\n      0x00\n        /* \"contracts/FarmingC2N.sol\":5807:5847  lastTimestamp.trySub(timestampToCompare) */\n      tag_239\n        /* \"contracts/FarmingC2N.sol\":5828:5846  timestampToCompare */\n      dup3\n        /* \"contracts/FarmingC2N.sol\":5807:5820  lastTimestamp */\n      dup5\n        /* \"contracts/FarmingC2N.sol\":5807:5827  lastTimestamp.trySub */\n      tag_138\n      swap1\n        /* \"contracts/FarmingC2N.sol\":5807:5847  lastTimestamp.trySub(timestampToCompare) */\n      swap2\n      swap1\n      0xffffffff\n      and\n      jump\t// in\n    tag_239:\n        /* \"contracts/FarmingC2N.sol\":5781:5847  (, uint256 nrOfSeconds) = lastTimestamp.trySub(timestampToCompare) */\n      swap2\n      pop\n      pop\n        /* \"contracts/FarmingC2N.sol\":5864:5883  uint256 erc20Reward */\n      0x00\n        /* \"contracts/FarmingC2N.sol\":5887:5922  nrOfSeconds.tryMul(rewardPerSecond) */\n      tag_240\n        /* \"contracts/FarmingC2N.sol\":5906:5921  rewardPerSecond */\n      sload(0x03)\n        /* \"contracts/FarmingC2N.sol\":5887:5898  nrOfSeconds */\n      dup4\n        /* \"contracts/FarmingC2N.sol\":5887:5905  nrOfSeconds.tryMul */\n      tag_136\n      swap1\n        /* \"contracts/FarmingC2N.sol\":5887:5922  nrOfSeconds.tryMul(rewardPerSecond) */\n      swap2\n      swap1\n      0xffffffff\n      and\n      jump\t// in\n    tag_240:\n        /* \"contracts/FarmingC2N.sol\":5861:5922  (, uint256 erc20Reward) = nrOfSeconds.tryMul(rewardPerSecond) */\n      swap2\n      pop\n      pop\n        /* \"contracts/FarmingC2N.sol\":5950:6002  erc20Reward.mulDiv(pool.allocPoint, totalAllocPoint) */\n      tag_241\n        /* \"contracts/FarmingC2N.sol\":5969:5973  pool */\n      dup10\n        /* \"contracts/FarmingC2N.sol\":5969:5984  pool.allocPoint */\n      0x01\n      add\n      sload\n        /* \"contracts/FarmingC2N.sol\":5986:6001  totalAllocPoint */\n      sload(0x07)\n        /* \"contracts/FarmingC2N.sol\":5950:5961  erc20Reward */\n      dup4\n        /* \"contracts/FarmingC2N.sol\":5950:5968  erc20Reward.mulDiv */\n      tag_169\n      swap1\n        /* \"contracts/FarmingC2N.sol\":5950:6002  erc20Reward.mulDiv(pool.allocPoint, totalAllocPoint) */\n      swap3\n      swap2\n      swap1\n      0xffffffff\n      and\n      jump\t// in\n    tag_241:\n        /* \"contracts/FarmingC2N.sol\":5936:6002  erc20Reward = erc20Reward.mulDiv(pool.allocPoint, totalAllocPoint) */\n      swap1\n      pop\n        /* \"contracts/FarmingC2N.sol\":6020:6047  uint256 newAccERC20PerShare */\n      0x00\n        /* \"contracts/FarmingC2N.sol\":6051:6079  erc20Reward.tryDiv(lpSupply) */\n      tag_242\n        /* \"contracts/FarmingC2N.sol\":6070:6078  lpSupply */\n      dup7\n        /* \"contracts/FarmingC2N.sol\":6051:6062  erc20Reward */\n      dup4\n        /* \"contracts/FarmingC2N.sol\":6051:6069  erc20Reward.tryDiv */\n      tag_171\n      swap1\n        /* \"contracts/FarmingC2N.sol\":6051:6079  erc20Reward.tryDiv(lpSupply) */\n      swap2\n      swap1\n      0xffffffff\n      and\n      jump\t// in\n    tag_242:\n        /* \"contracts/FarmingC2N.sol\":6017:6079  (, uint256 newAccERC20PerShare) = erc20Reward.tryDiv(lpSupply) */\n      swap2\n      pop\n      pop\n        /* \"contracts/FarmingC2N.sol\":6117:6161  accERC20PerShare.tryAdd(newAccERC20PerShare) */\n      tag_243\n        /* \"contracts/FarmingC2N.sol\":6141:6160  newAccERC20PerShare */\n      dup2\n        /* \"contracts/FarmingC2N.sol\":6117:6133  accERC20PerShare */\n      dup10\n        /* \"contracts/FarmingC2N.sol\":6117:6140  accERC20PerShare.tryAdd */\n      tag_127\n      swap1\n        /* \"contracts/FarmingC2N.sol\":6117:6161  accERC20PerShare.tryAdd(newAccERC20PerShare) */\n      swap2\n      swap1\n      0xffffffff\n      and\n      jump\t// in\n    tag_243:\n        /* \"contracts/FarmingC2N.sol\":6094:6161  (, accERC20PerShare) = accERC20PerShare.tryAdd(newAccERC20PerShare) */\n      swap1\n      pop\n      dup1\n      swap9\n      pop\n      pop\n        /* \"contracts/FarmingC2N.sol\":5099:6172  {... */\n      pop\n      pop\n      pop\n      pop\n      pop\n        /* \"contracts/FarmingC2N.sol\":5034:6172  if (block.timestamp > pool.lastRewardTimestamp && lpSupply != 0) {... */\n    tag_234:\n        /* \"contracts/FarmingC2N.sol\":6185:6204  uint256 totalReward */\n      0x00\n        /* \"contracts/FarmingC2N.sol\":6208:6243  userAmount.tryMul(accERC20PerShare) */\n      tag_244\n        /* \"contracts/FarmingC2N.sol\":6226:6242  accERC20PerShare */\n      dup5\n        /* \"contracts/FarmingC2N.sol\":6208:6218  userAmount */\n      dup5\n        /* \"contracts/FarmingC2N.sol\":6208:6225  userAmount.tryMul */\n      tag_136\n      swap1\n        /* \"contracts/FarmingC2N.sol\":6208:6243  userAmount.tryMul(accERC20PerShare) */\n      swap2\n      swap1\n      0xffffffff\n      and\n      jump\t// in\n    tag_244:\n        /* \"contracts/FarmingC2N.sol\":6182:6243  (, uint256 totalReward) = userAmount.tryMul(accERC20PerShare) */\n      swap2\n      pop\n      pop\n        /* \"contracts/FarmingC2N.sol\":6256:6270  uint256 result */\n      0x00\n        /* \"contracts/FarmingC2N.sol\":6274:6309  totalReward.trySub(user.rewardDebt) */\n      tag_245\n        /* \"contracts/FarmingC2N.sol\":6293:6297  user */\n      dup7\n        /* \"contracts/FarmingC2N.sol\":6293:6308  user.rewardDebt */\n      0x01\n      add\n      sload\n        /* \"contracts/FarmingC2N.sol\":6274:6285  totalReward */\n      dup4\n        /* \"contracts/FarmingC2N.sol\":6274:6292  totalReward.trySub */\n      tag_138\n      swap1\n        /* \"contracts/FarmingC2N.sol\":6274:6309  totalReward.trySub(user.rewardDebt) */\n      swap2\n      swap1\n      0xffffffff\n      and\n      jump\t// in\n    tag_245:\n        /* \"contracts/FarmingC2N.sol\":6253:6309  (, uint256 result) = totalReward.trySub(user.rewardDebt) */\n      swap2\n      pop\n      pop\n        /* \"contracts/FarmingC2N.sol\":6327:6333  result */\n      dup1\n        /* \"contracts/FarmingC2N.sol\":6320:6333  return result */\n      swap8\n      pop\n      pop\n      pop\n      pop\n      pop\n      pop\n      pop\n      pop\n        /* \"contracts/FarmingC2N.sol\":4666:6340  function pending(uint256 _pid, address _user)... */\n      swap3\n      swap2\n      pop\n      pop\n      jump\t// out\n        /* \"contracts/FarmingC2N.sol\":1794:1823  uint256 public startTimestamp */\n    tag_109:\n      sload(0x08)\n      dup2\n      jump\t// out\n        /* \"@openzeppelin/contracts/access/Ownable.sol\":2543:2758  function transferOwnership(address newOwner) public virtual onlyOwner {... */\n    tag_114:\n        /* \"@openzeppelin/contracts/access/Ownable.sol\":1531:1544  _checkOwner() */\n      tag_247\n        /* \"@openzeppelin/contracts/access/Ownable.sol\":1531:1542  _checkOwner */\n      tag_120\n        /* \"@openzeppelin/contracts/access/Ownable.sol\":1531:1544  _checkOwner() */\n      jump\t// in\n    tag_247:\n        /* \"@openzeppelin/contracts/access/Ownable.sol\":2647:2648  0 */\n      0x00\n        /* \"@openzeppelin/contracts/access/Ownable.sol\":2627:2649  newOwner == address(0) */\n      0xffffffffffffffffffffffffffffffffffffffff\n      and\n        /* \"@openzeppelin/contracts/access/Ownable.sol\":2627:2635  newOwner */\n      dup2\n        /* \"@openzeppelin/contracts/access/Ownable.sol\":2627:2649  newOwner == address(0) */\n      0xffffffffffffffffffffffffffffffffffffffff\n      and\n      sub\n        /* \"@openzeppelin/contracts/access/Ownable.sol\":2623:2714  if (newOwner == address(0)) {... */\n      tag_249\n      jumpi\n        /* \"@openzeppelin/contracts/access/Ownable.sol\":2700:2701  0 */\n      0x00\n        /* \"@openzeppelin/contracts/access/Ownable.sol\":2672:2703  OwnableInvalidOwner(address(0)) */\n      mload(0x40)\n      0x1e4fbdf700000000000000000000000000000000000000000000000000000000\n      dup2\n      mstore\n      0x04\n      add\n      tag_250\n      swap2\n      swap1\n      tag_81\n      jump\t// in\n    tag_250:\n      mload(0x40)\n      dup1\n      swap2\n      sub\n      swap1\n      revert\n        /* \"@openzeppelin/contracts/access/Ownable.sol\":2623:2714  if (newOwner == address(0)) {... */\n    tag_249:\n        /* \"@openzeppelin/contracts/access/Ownable.sol\":2723:2751  _transferOwnership(newOwner) */\n      tag_251\n        /* \"@openzeppelin/contracts/access/Ownable.sol\":2742:2750  newOwner */\n      dup2\n        /* \"@openzeppelin/contracts/access/Ownable.sol\":2723:2741  _transferOwnership */\n      tag_202\n        /* \"@openzeppelin/contracts/access/Ownable.sol\":2723:2751  _transferOwnership(newOwner) */\n      jump\t// in\n    tag_251:\n        /* \"@openzeppelin/contracts/access/Ownable.sol\":2543:2758  function transferOwnership(address newOwner) public virtual onlyOwner {... */\n      pop\n      jump\t// out\n        /* \"@openzeppelin/contracts/access/Ownable.sol\":1796:1958  function _checkOwner() internal view virtual {... */\n    tag_120:\n        /* \"@openzeppelin/contracts/access/Ownable.sol\":1866:1878  _msgSender() */\n      tag_253\n        /* \"@openzeppelin/contracts/access/Ownable.sol\":1866:1876  _msgSender */\n      tag_254\n        /* \"@openzeppelin/contracts/access/Ownable.sol\":1866:1878  _msgSender() */\n      jump\t// in\n    tag_253:\n        /* \"@openzeppelin/contracts/access/Ownable.sol\":1855:1878  owner() != _msgSender() */\n      0xffffffffffffffffffffffffffffffffffffffff\n      and\n        /* \"@openzeppelin/contracts/access/Ownable.sol\":1855:1862  owner() */\n      tag_255\n        /* \"@openzeppelin/contracts/access/Ownable.sol\":1855:1860  owner */\n      tag_79\n        /* \"@openzeppelin/contracts/access/Ownable.sol\":1855:1862  owner() */\n      jump\t// in\n    tag_255:\n        /* \"@openzeppelin/contracts/access/Ownable.sol\":1855:1878  owner() != _msgSender() */\n      0xffffffffffffffffffffffffffffffffffffffff\n      and\n      eq\n        /* \"@openzeppelin/contracts/access/Ownable.sol\":1851:1952  if (owner() != _msgSender()) {... */\n      tag_256\n      jumpi\n        /* \"@openzeppelin/contracts/access/Ownable.sol\":1928:1940  _msgSender() */\n      tag_257\n        /* \"@openzeppelin/contracts/access/Ownable.sol\":1928:1938  _msgSender */\n      tag_254\n        /* \"@openzeppelin/contracts/access/Ownable.sol\":1928:1940  _msgSender() */\n      jump\t// in\n    tag_257:\n        /* \"@openzeppelin/contracts/access/Ownable.sol\":1901:1941  OwnableUnauthorizedAccount(_msgSender()) */\n      mload(0x40)\n      0x118cdaa700000000000000000000000000000000000000000000000000000000\n      dup2\n      mstore\n      0x04\n      add\n      tag_258\n      swap2\n      swap1\n      tag_81\n      jump\t// in\n    tag_258:\n      mload(0x40)\n      dup1\n      swap2\n      sub\n      swap1\n      revert\n        /* \"@openzeppelin/contracts/access/Ownable.sol\":1851:1952  if (owner() != _msgSender()) {... */\n    tag_256:\n        /* \"@openzeppelin/contracts/access/Ownable.sol\":1796:1958  function _checkOwner() internal view virtual {... */\n      jump\t// out\n        /* \"@openzeppelin/contracts/utils/math/Math.sol\":585:801  function tryAdd(uint256 a, uint256 b) internal pure returns (bool, uint256) {... */\n    tag_127:\n        /* \"@openzeppelin/contracts/utils/math/Math.sol\":646:650  bool */\n      0x00\n        /* \"@openzeppelin/contracts/utils/math/Math.sol\":652:659  uint256 */\n      dup1\n        /* \"@openzeppelin/contracts/utils/math/Math.sol\":695:704  uint256 c */\n      0x00\n        /* \"@openzeppelin/contracts/utils/math/Math.sol\":711:712  b */\n      dup4\n        /* \"@openzeppelin/contracts/utils/math/Math.sol\":707:708  a */\n      dup6\n        /* \"@openzeppelin/contracts/utils/math/Math.sol\":707:712  a + b */\n      add\n        /* \"@openzeppelin/contracts/utils/math/Math.sol\":695:712  uint256 c = a + b */\n      swap1\n      pop\n        /* \"@openzeppelin/contracts/utils/math/Math.sol\":734:735  a */\n      dup5\n        /* \"@openzeppelin/contracts/utils/math/Math.sol\":730:731  c */\n      dup2\n        /* \"@openzeppelin/contracts/utils/math/Math.sol\":730:735  c < a */\n      lt\n        /* \"@openzeppelin/contracts/utils/math/Math.sol\":726:754  if (c < a) return (false, 0) */\n      iszero\n      tag_260\n      jumpi\n        /* \"@openzeppelin/contracts/utils/math/Math.sol\":745:750  false */\n      0x00\n        /* \"@openzeppelin/contracts/utils/math/Math.sol\":752:753  0 */\n      dup1\n        /* \"@openzeppelin/contracts/utils/math/Math.sol\":737:754  return (false, 0) */\n      swap3\n      pop\n      swap3\n      pop\n      pop\n      jump(tag_259)\n        /* \"@openzeppelin/contracts/utils/math/Math.sol\":726:754  if (c < a) return (false, 0) */\n    tag_260:\n        /* \"@openzeppelin/contracts/utils/math/Math.sol\":776:780  true */\n      0x01\n        /* \"@openzeppelin/contracts/utils/math/Math.sol\":782:783  c */\n      dup2\n        /* \"@openzeppelin/contracts/utils/math/Math.sol\":768:784  return (true, c) */\n      swap3\n      pop\n      swap3\n      pop\n      pop\n        /* \"@openzeppelin/contracts/utils/math/Math.sol\":585:801  function tryAdd(uint256 a, uint256 b) internal pure returns (bool, uint256) {... */\n    tag_259:\n      swap3\n      pop\n      swap3\n      swap1\n      pop\n      jump\t// out\n        /* \"@openzeppelin/contracts/utils/math/Math.sol\":1207:1700  function tryMul(uint256 a, uint256 b) internal pure returns (bool, uint256) {... */\n    tag_136:\n        /* \"@openzeppelin/contracts/utils/math/Math.sol\":1268:1272  bool */\n      0x00\n        /* \"@openzeppelin/contracts/utils/math/Math.sol\":1274:1281  uint256 */\n      dup1\n        /* \"@openzeppelin/contracts/utils/math/Math.sol\":1556:1557  0 */\n      0x00\n        /* \"@openzeppelin/contracts/utils/math/Math.sol\":1551:1552  a */\n      dup5\n        /* \"@openzeppelin/contracts/utils/math/Math.sol\":1551:1557  a == 0 */\n      sub\n        /* \"@openzeppelin/contracts/utils/math/Math.sol\":1547:1575  if (a == 0) return (true, 0) */\n      tag_262\n      jumpi\n        /* \"@openzeppelin/contracts/utils/math/Math.sol\":1567:1571  true */\n      0x01\n        /* \"@openzeppelin/contracts/utils/math/Math.sol\":1573:1574  0 */\n      0x00\n        /* \"@openzeppelin/contracts/utils/math/Math.sol\":1559:1575  return (true, 0) */\n      swap2\n      pop\n      swap2\n      pop\n      jump(tag_261)\n        /* \"@openzeppelin/contracts/utils/math/Math.sol\":1547:1575  if (a == 0) return (true, 0) */\n    tag_262:\n        /* \"@openzeppelin/contracts/utils/math/Math.sol\":1589:1598  uint256 c */\n      0x00\n        /* \"@openzeppelin/contracts/utils/math/Math.sol\":1605:1606  b */\n      dup4\n        /* \"@openzeppelin/contracts/utils/math/Math.sol\":1601:1602  a */\n      dup6\n        /* \"@openzeppelin/contracts/utils/math/Math.sol\":1601:1606  a * b */\n      mul\n        /* \"@openzeppelin/contracts/utils/math/Math.sol\":1589:1606  uint256 c = a * b */\n      swap1\n      pop\n        /* \"@openzeppelin/contracts/utils/math/Math.sol\":1633:1634  b */\n      dup4\n        /* \"@openzeppelin/contracts/utils/math/Math.sol\":1628:1629  a */\n      dup6\n        /* \"@openzeppelin/contracts/utils/math/Math.sol\":1624:1625  c */\n      dup3\n        /* \"@openzeppelin/contracts/utils/math/Math.sol\":1624:1629  c / a */\n      dup2\n      tag_263\n      jumpi\n      tag_264\n      tag_265\n      jump\t// in\n    tag_264:\n    tag_263:\n      div\n        /* \"@openzeppelin/contracts/utils/math/Math.sol\":1624:1634  c / a != b */\n      eq\n        /* \"@openzeppelin/contracts/utils/math/Math.sol\":1620:1653  if (c / a != b) return (false, 0) */\n      tag_266\n      jumpi\n        /* \"@openzeppelin/contracts/utils/math/Math.sol\":1644:1649  false */\n      0x00\n        /* \"@openzeppelin/contracts/utils/math/Math.sol\":1651:1652  0 */\n      dup1\n        /* \"@openzeppelin/contracts/utils/math/Math.sol\":1636:1653  return (false, 0) */\n      swap3\n      pop\n      swap3\n      pop\n      pop\n      jump(tag_261)\n        /* \"@openzeppelin/contracts/utils/math/Math.sol\":1620:1653  if (c / a != b) return (false, 0) */\n    tag_266:\n        /* \"@openzeppelin/contracts/utils/math/Math.sol\":1675:1679  true */\n      0x01\n        /* \"@openzeppelin/contracts/utils/math/Math.sol\":1681:1682  c */\n      dup2\n        /* \"@openzeppelin/contracts/utils/math/Math.sol\":1667:1683  return (true, c) */\n      swap3\n      pop\n      swap3\n      pop\n      pop\n        /* \"@openzeppelin/contracts/utils/math/Math.sol\":1207:1700  function tryMul(uint256 a, uint256 b) internal pure returns (bool, uint256) {... */\n    tag_261:\n      swap3\n      pop\n      swap3\n      swap1\n      pop\n      jump\t// out\n        /* \"@openzeppelin/contracts/utils/math/Math.sol\":908:1097  function trySub(uint256 a, uint256 b) internal pure returns (bool, uint256) {... */\n    tag_138:\n        /* \"@openzeppelin/contracts/utils/math/Math.sol\":969:973  bool */\n      0x00\n        /* \"@openzeppelin/contracts/utils/math/Math.sol\":975:982  uint256 */\n      dup1\n        /* \"@openzeppelin/contracts/utils/math/Math.sol\":1026:1027  a */\n      dup4\n        /* \"@openzeppelin/contracts/utils/math/Math.sol\":1022:1023  b */\n      dup4\n        /* \"@openzeppelin/contracts/utils/math/Math.sol\":1022:1027  b > a */\n      gt\n        /* \"@openzeppelin/contracts/utils/math/Math.sol\":1018:1046  if (b > a) return (false, 0) */\n      iszero\n      tag_268\n      jumpi\n        /* \"@openzeppelin/contracts/utils/math/Math.sol\":1037:1042  false */\n      0x00\n        /* \"@openzeppelin/contracts/utils/math/Math.sol\":1044:1045  0 */\n      dup1\n        /* \"@openzeppelin/contracts/utils/math/Math.sol\":1029:1046  return (false, 0) */\n      swap2\n      pop\n      swap2\n      pop\n      jump(tag_267)\n        /* \"@openzeppelin/contracts/utils/math/Math.sol\":1018:1046  if (b > a) return (false, 0) */\n    tag_268:\n        /* \"@openzeppelin/contracts/utils/math/Math.sol\":1068:1072  true */\n      0x01\n        /* \"@openzeppelin/contracts/utils/math/Math.sol\":1078:1079  b */\n      dup4\n        /* \"@openzeppelin/contracts/utils/math/Math.sol\":1074:1075  a */\n      dup6\n        /* \"@openzeppelin/contracts/utils/math/Math.sol\":1074:1079  a - b */\n      sub\n        /* \"@openzeppelin/contracts/utils/math/Math.sol\":1060:1080  return (true, a - b) */\n      swap2\n      pop\n      swap2\n      pop\n        /* \"@openzeppelin/contracts/utils/math/Math.sol\":908:1097  function trySub(uint256 a, uint256 b) internal pure returns (bool, uint256) {... */\n    tag_267:\n      swap3\n      pop\n      swap3\n      swap1\n      pop\n      jump\t// out\n        /* \"contracts/FarmingC2N.sol\":11282:11417  function erc20Transfer(address _to, uint256 _amount) internal {... */\n    tag_151:\n        /* \"contracts/FarmingC2N.sol\":11354:11359  erc20 */\n      0x01\n      0x00\n      swap1\n      sload\n      swap1\n      0x0100\n      exp\n      swap1\n      div\n      0xffffffffffffffffffffffffffffffffffffffff\n      and\n        /* \"contracts/FarmingC2N.sol\":11354:11368  erc20.transfer */\n      0xffffffffffffffffffffffffffffffffffffffff\n      and\n      0xa9059cbb\n        /* \"contracts/FarmingC2N.sol\":11369:11372  _to */\n      dup4\n        /* \"contracts/FarmingC2N.sol\":11374:11381  _amount */\n      dup4\n        /* \"contracts/FarmingC2N.sol\":11354:11382  erc20.transfer(_to, _amount) */\n      mload(0x40)\n      dup4\n      0xffffffff\n      and\n      0xe0\n      shl\n      dup2\n      mstore\n      0x04\n      add\n      tag_270\n      swap3\n      swap2\n      swap1\n      tag_271\n      jump\t// in\n    tag_270:\n      0x20\n      mload(0x40)\n      dup1\n      dup4\n      sub\n      dup2\n      0x00\n      dup8\n      gas\n      call\n      iszero\n      dup1\n      iszero\n      tag_273\n      jumpi\n      returndatasize\n      0x00\n      dup1\n      returndatacopy\n      revert(0x00, returndatasize)\n    tag_273:\n      pop\n      pop\n      pop\n      pop\n      mload(0x40)\n      returndatasize\n      not(0x1f)\n      0x1f\n      dup3\n      add\n      and\n      dup3\n      add\n      dup1\n      0x40\n      mstore\n      pop\n      dup2\n      add\n      swap1\n      tag_274\n      swap2\n      swap1\n      tag_275\n      jump\t// in\n    tag_274:\n      pop\n        /* \"contracts/FarmingC2N.sol\":11403:11410  _amount */\n      dup1\n        /* \"contracts/FarmingC2N.sol\":11392:11399  paidOut */\n      0x02\n      0x00\n        /* \"contracts/FarmingC2N.sol\":11392:11410  paidOut += _amount */\n      dup3\n      dup3\n      sload\n      tag_276\n      swap2\n      swap1\n      tag_213\n      jump\t// in\n    tag_276:\n      swap3\n      pop\n      pop\n      dup2\n      swap1\n      sstore\n      pop\n        /* \"contracts/FarmingC2N.sol\":11282:11417  function erc20Transfer(address _to, uint256 _amount) internal {... */\n      pop\n      pop\n      jump\t// out\n        /* \"@openzeppelin/contracts/token/ERC20/utils/SafeERC20.sol\":1303:1463  function safeTransfer(IERC20 token, address to, uint256 value) internal {... */\n    tag_155:\n        /* \"@openzeppelin/contracts/token/ERC20/utils/SafeERC20.sol\":1385:1456  _callOptionalReturn(token, abi.encodeCall(token.transfer, (to, value))) */\n      tag_278\n        /* \"@openzeppelin/contracts/token/ERC20/utils/SafeERC20.sol\":1405:1410  token */\n      dup4\n        /* \"@openzeppelin/contracts/token/ERC20/utils/SafeERC20.sol\":1427:1432  token */\n      dup5\n        /* \"@openzeppelin/contracts/token/ERC20/utils/SafeERC20.sol\":1427:1441  token.transfer */\n      0xffffffffffffffffffffffffffffffffffffffff\n      and\n      0xa9059cbb\n        /* \"@openzeppelin/contracts/token/ERC20/utils/SafeERC20.sol\":1444:1446  to */\n      dup6\n        /* \"@openzeppelin/contracts/token/ERC20/utils/SafeERC20.sol\":1448:1453  value */\n      dup6\n        /* \"@openzeppelin/contracts/token/ERC20/utils/SafeERC20.sol\":1412:1455  abi.encodeCall(token.transfer, (to, value)) */\n      add(0x24, mload(0x40))\n      tag_279\n      swap3\n      swap2\n      swap1\n      tag_271\n      jump\t// in\n    tag_279:\n      mload(0x40)\n      0x20\n      dup2\n      dup4\n      sub\n      sub\n      dup2\n      mstore\n      swap1\n      0x40\n      mstore\n      swap2\n      pop\n      0xe0\n      shl\n      0x20\n      dup3\n      add\n      dup1\n      mload\n      0xffffffffffffffffffffffffffffffffffffffffffffffffffffffff\n      dup4\n      dup2\n      dup4\n      and\n      or\n      dup4\n      mstore\n      pop\n      pop\n      pop\n      pop\n        /* \"@openzeppelin/contracts/token/ERC20/utils/SafeERC20.sol\":1385:1404  _callOptionalReturn */\n      tag_280\n        /* \"@openzeppelin/contracts/token/ERC20/utils/SafeERC20.sol\":1385:1456  _callOptionalReturn(token, abi.encodeCall(token.transfer, (to, value))) */\n      jump\t// in\n    tag_278:\n        /* \"@openzeppelin/contracts/token/ERC20/utils/SafeERC20.sol\":1303:1463  function safeTransfer(IERC20 token, address to, uint256 value) internal {... */\n      pop\n      pop\n      pop\n      jump\t// out\n        /* \"@openzeppelin/contracts/utils/math/Math.sol\":3803:7919  function mulDiv(uint256 x, uint256 y, uint256 denominator) internal pure returns (uint256 result) {... */\n    tag_169:\n        /* \"@openzeppelin/contracts/utils/math/Math.sol\":3885:3899  uint256 result */\n      0x00\n        /* \"@openzeppelin/contracts/utils/math/Math.sol\":4232:4245  uint256 prod0 */\n      dup1\n        /* \"@openzeppelin/contracts/utils/math/Math.sol\":4252:4253  y */\n      dup4\n        /* \"@openzeppelin/contracts/utils/math/Math.sol\":4248:4249  x */\n      dup6\n        /* \"@openzeppelin/contracts/utils/math/Math.sol\":4248:4253  x * y */\n      mul\n        /* \"@openzeppelin/contracts/utils/math/Math.sol\":4232:4253  uint256 prod0 = x * y */\n      swap1\n      pop\n        /* \"@openzeppelin/contracts/utils/math/Math.sol\":4312:4325  uint256 prod1 */\n      0x00\n        /* \"@openzeppelin/contracts/utils/math/Math.sol\":4437:4438  0 */\n      dup1\n        /* \"@openzeppelin/contracts/utils/math/Math.sol\":4433:4439  not(0) */\n      not\n        /* \"@openzeppelin/contracts/utils/math/Math.sol\":4430:4431  y */\n      dup6\n        /* \"@openzeppelin/contracts/utils/math/Math.sol\":4427:4428  x */\n      dup8\n        /* \"@openzeppelin/contracts/utils/math/Math.sol\":4420:4440  mulmod(x, y, not(0)) */\n      mulmod\n        /* \"@openzeppelin/contracts/utils/math/Math.sol\":4493:4498  prod0 */\n      dup3\n        /* \"@openzeppelin/contracts/utils/math/Math.sol\":4489:4491  mm */\n      dup2\n        /* \"@openzeppelin/contracts/utils/math/Math.sol\":4486:4499  lt(mm, prod0) */\n      lt\n        /* \"@openzeppelin/contracts/utils/math/Math.sol\":4478:4483  prod0 */\n      dup4\n        /* \"@openzeppelin/contracts/utils/math/Math.sol\":4474:4476  mm */\n      dup3\n        /* \"@openzeppelin/contracts/utils/math/Math.sol\":4470:4484  sub(mm, prod0) */\n      sub\n        /* \"@openzeppelin/contracts/utils/math/Math.sol\":4466:4500  sub(sub(mm, prod0), lt(mm, prod0)) */\n      sub\n        /* \"@openzeppelin/contracts/utils/math/Math.sol\":4457:4500  prod1 := sub(sub(mm, prod0), lt(mm, prod0)) */\n      swap2\n      pop\n        /* \"@openzeppelin/contracts/utils/math/Math.sol\":4392:4514  {... */\n      pop\n        /* \"@openzeppelin/contracts/utils/math/Math.sol\":4604:4605  0 */\n      0x00\n        /* \"@openzeppelin/contracts/utils/math/Math.sol\":4595:4600  prod1 */\n      dup2\n        /* \"@openzeppelin/contracts/utils/math/Math.sol\":4595:4605  prod1 == 0 */\n      sub\n        /* \"@openzeppelin/contracts/utils/math/Math.sol\":4591:4959  if (prod1 == 0) {... */\n      tag_282\n      jumpi\n        /* \"@openzeppelin/contracts/utils/math/Math.sol\":4933:4944  denominator */\n      dup4\n        /* \"@openzeppelin/contracts/utils/math/Math.sol\":4925:4930  prod0 */\n      dup3\n        /* \"@openzeppelin/contracts/utils/math/Math.sol\":4925:4944  prod0 / denominator */\n      dup2\n      tag_283\n      jumpi\n      tag_284\n      tag_265\n      jump\t// in\n    tag_284:\n    tag_283:\n      div\n        /* \"@openzeppelin/contracts/utils/math/Math.sol\":4918:4944  return prod0 / denominator */\n      swap3\n      pop\n      pop\n      pop\n      jump(tag_281)\n        /* \"@openzeppelin/contracts/utils/math/Math.sol\":4591:4959  if (prod1 == 0) {... */\n    tag_282:\n        /* \"@openzeppelin/contracts/utils/math/Math.sol\":5080:5085  prod1 */\n      dup1\n        /* \"@openzeppelin/contracts/utils/math/Math.sol\":5065:5076  denominator */\n      dup5\n        /* \"@openzeppelin/contracts/utils/math/Math.sol\":5065:5085  denominator <= prod1 */\n      gt\n        /* \"@openzeppelin/contracts/utils/math/Math.sol\":5061:5149  if (denominator <= prod1) {... */\n      tag_285\n      jumpi\n        /* \"@openzeppelin/contracts/utils/math/Math.sol\":5112:5134  MathOverflowedMulDiv() */\n      mload(0x40)\n      0x227bc15300000000000000000000000000000000000000000000000000000000\n      dup2\n      mstore\n      0x04\n      add\n      mload(0x40)\n      dup1\n      swap2\n      sub\n      swap1\n      revert\n        /* \"@openzeppelin/contracts/utils/math/Math.sol\":5061:5149  if (denominator <= prod1) {... */\n    tag_285:\n        /* \"@openzeppelin/contracts/utils/math/Math.sol\":5404:5421  uint256 remainder */\n      0x00\n        /* \"@openzeppelin/contracts/utils/math/Math.sol\":5539:5550  denominator */\n      dup5\n        /* \"@openzeppelin/contracts/utils/math/Math.sol\":5536:5537  y */\n      dup7\n        /* \"@openzeppelin/contracts/utils/math/Math.sol\":5533:5534  x */\n      dup9\n        /* \"@openzeppelin/contracts/utils/math/Math.sol\":5526:5551  mulmod(x, y, denominator) */\n      mulmod\n        /* \"@openzeppelin/contracts/utils/math/Math.sol\":5513:5551  remainder := mulmod(x, y, denominator) */\n      swap1\n      pop\n        /* \"@openzeppelin/contracts/utils/math/Math.sol\":5667:5672  prod0 */\n      dup3\n        /* \"@openzeppelin/contracts/utils/math/Math.sol\":5656:5665  remainder */\n      dup2\n        /* \"@openzeppelin/contracts/utils/math/Math.sol\":5653:5673  gt(remainder, prod0) */\n      gt\n        /* \"@openzeppelin/contracts/utils/math/Math.sol\":5646:5651  prod1 */\n      dup3\n        /* \"@openzeppelin/contracts/utils/math/Math.sol\":5642:5674  sub(prod1, gt(remainder, prod0)) */\n      sub\n        /* \"@openzeppelin/contracts/utils/math/Math.sol\":5633:5674  prod1 := sub(prod1, gt(remainder, prod0)) */\n      swap2\n      pop\n        /* \"@openzeppelin/contracts/utils/math/Math.sol\":5711:5720  remainder */\n      dup1\n        /* \"@openzeppelin/contracts/utils/math/Math.sol\":5704:5709  prod0 */\n      dup4\n        /* \"@openzeppelin/contracts/utils/math/Math.sol\":5700:5721  sub(prod0, remainder) */\n      sub\n        /* \"@openzeppelin/contracts/utils/math/Math.sol\":5691:5721  prod0 := sub(prod0, remainder) */\n      swap3\n      pop\n        /* \"@openzeppelin/contracts/utils/math/Math.sol\":5939:5951  uint256 twos */\n      0x00\n        /* \"@openzeppelin/contracts/utils/math/Math.sol\":5973:5984  denominator */\n      dup6\n        /* \"@openzeppelin/contracts/utils/math/Math.sol\":5969:5970  0 */\n      0x00\n        /* \"@openzeppelin/contracts/utils/math/Math.sol\":5969:5984  0 - denominator */\n      sub\n        /* \"@openzeppelin/contracts/utils/math/Math.sol\":5954:5965  denominator */\n      dup7\n        /* \"@openzeppelin/contracts/utils/math/Math.sol\":5954:5985  denominator & (0 - denominator) */\n      and\n        /* \"@openzeppelin/contracts/utils/math/Math.sol\":5939:5985  uint256 twos = denominator & (0 - denominator) */\n      swap1\n      pop\n        /* \"@openzeppelin/contracts/utils/math/Math.sol\":6105:6109  twos */\n      dup1\n        /* \"@openzeppelin/contracts/utils/math/Math.sol\":6092:6103  denominator */\n      dup7\n        /* \"@openzeppelin/contracts/utils/math/Math.sol\":6088:6110  div(denominator, twos) */\n      div\n        /* \"@openzeppelin/contracts/utils/math/Math.sol\":6073:6110  denominator := div(denominator, twos) */\n      swap6\n      pop\n        /* \"@openzeppelin/contracts/utils/math/Math.sol\":6197:6201  twos */\n      dup1\n        /* \"@openzeppelin/contracts/utils/math/Math.sol\":6190:6195  prod0 */\n      dup5\n        /* \"@openzeppelin/contracts/utils/math/Math.sol\":6186:6202  div(prod0, twos) */\n      div\n        /* \"@openzeppelin/contracts/utils/math/Math.sol\":6177:6202  prod0 := div(prod0, twos) */\n      swap4\n      pop\n        /* \"@openzeppelin/contracts/utils/math/Math.sol\":6354:6355  1 */\n      0x01\n        /* \"@openzeppelin/contracts/utils/math/Math.sol\":6347:6351  twos */\n      dup2\n        /* \"@openzeppelin/contracts/utils/math/Math.sol\":6340:6344  twos */\n      dup3\n        /* \"@openzeppelin/contracts/utils/math/Math.sol\":6337:6338  0 */\n      0x00\n        /* \"@openzeppelin/contracts/utils/math/Math.sol\":6333:6345  sub(0, twos) */\n      sub\n        /* \"@openzeppelin/contracts/utils/math/Math.sol\":6329:6352  div(sub(0, twos), twos) */\n      div\n        /* \"@openzeppelin/contracts/utils/math/Math.sol\":6325:6356  add(div(sub(0, twos), twos), 1) */\n      add\n        /* \"@openzeppelin/contracts/utils/math/Math.sol\":6317:6356  twos := add(div(sub(0, twos), twos), 1) */\n      swap1\n      pop\n        /* \"@openzeppelin/contracts/utils/math/Math.sol\":6453:6457  twos */\n      dup1\n        /* \"@openzeppelin/contracts/utils/math/Math.sol\":6445:6450  prod1 */\n      dup4\n        /* \"@openzeppelin/contracts/utils/math/Math.sol\":6445:6457  prod1 * twos */\n      mul\n        /* \"@openzeppelin/contracts/utils/math/Math.sol\":6436:6457  prod0 |= prod1 * twos */\n      dup5\n      or\n      swap4\n      pop\n        /* \"@openzeppelin/contracts/utils/math/Math.sol\":6775:6790  uint256 inverse */\n      0x00\n        /* \"@openzeppelin/contracts/utils/math/Math.sol\":6813:6814  2 */\n      0x02\n        /* \"@openzeppelin/contracts/utils/math/Math.sol\":6798:6809  denominator */\n      dup8\n        /* \"@openzeppelin/contracts/utils/math/Math.sol\":6794:6795  3 */\n      0x03\n        /* \"@openzeppelin/contracts/utils/math/Math.sol\":6794:6809  3 * denominator */\n      mul\n        /* \"@openzeppelin/contracts/utils/math/Math.sol\":6793:6814  (3 * denominator) ^ 2 */\n      xor\n        /* \"@openzeppelin/contracts/utils/math/Math.sol\":6775:6814  uint256 inverse = (3 * denominator) ^ 2 */\n      swap1\n      pop\n        /* \"@openzeppelin/contracts/utils/math/Math.sol\":7060:7067  inverse */\n      dup1\n        /* \"@openzeppelin/contracts/utils/math/Math.sol\":7046:7057  denominator */\n      dup8\n        /* \"@openzeppelin/contracts/utils/math/Math.sol\":7046:7067  denominator * inverse */\n      mul\n        /* \"@openzeppelin/contracts/utils/math/Math.sol\":7042:7043  2 */\n      0x02\n        /* \"@openzeppelin/contracts/utils/math/Math.sol\":7042:7067  2 - denominator * inverse */\n      sub\n        /* \"@openzeppelin/contracts/utils/math/Math.sol\":7031:7067  inverse *= 2 - denominator * inverse */\n      dup2\n      mul\n      swap1\n      pop\n        /* \"@openzeppelin/contracts/utils/math/Math.sol\":7129:7136  inverse */\n      dup1\n        /* \"@openzeppelin/contracts/utils/math/Math.sol\":7115:7126  denominator */\n      dup8\n        /* \"@openzeppelin/contracts/utils/math/Math.sol\":7115:7136  denominator * inverse */\n      mul\n        /* \"@openzeppelin/contracts/utils/math/Math.sol\":7111:7112  2 */\n      0x02\n        /* \"@openzeppelin/contracts/utils/math/Math.sol\":7111:7136  2 - denominator * inverse */\n      sub\n        /* \"@openzeppelin/contracts/utils/math/Math.sol\":7100:7136  inverse *= 2 - denominator * inverse */\n      dup2\n      mul\n      swap1\n      pop\n        /* \"@openzeppelin/contracts/utils/math/Math.sol\":7199:7206  inverse */\n      dup1\n        /* \"@openzeppelin/contracts/utils/math/Math.sol\":7185:7196  denominator */\n      dup8\n        /* \"@openzeppelin/contracts/utils/math/Math.sol\":7185:7206  denominator * inverse */\n      mul\n        /* \"@openzeppelin/contracts/utils/math/Math.sol\":7181:7182  2 */\n      0x02\n        /* \"@openzeppelin/contracts/utils/math/Math.sol\":7181:7206  2 - denominator * inverse */\n      sub\n        /* \"@openzeppelin/contracts/utils/math/Math.sol\":7170:7206  inverse *= 2 - denominator * inverse */\n      dup2\n      mul\n      swap1\n      pop\n        /* \"@openzeppelin/contracts/utils/math/Math.sol\":7269:7276  inverse */\n      dup1\n        /* \"@openzeppelin/contracts/utils/math/Math.sol\":7255:7266  denominator */\n      dup8\n        /* \"@openzeppelin/contracts/utils/math/Math.sol\":7255:7276  denominator * inverse */\n      mul\n        /* \"@openzeppelin/contracts/utils/math/Math.sol\":7251:7252  2 */\n      0x02\n        /* \"@openzeppelin/contracts/utils/math/Math.sol\":7251:7276  2 - denominator * inverse */\n      sub\n        /* \"@openzeppelin/contracts/utils/math/Math.sol\":7240:7276  inverse *= 2 - denominator * inverse */\n      dup2\n      mul\n      swap1\n      pop\n        /* \"@openzeppelin/contracts/utils/math/Math.sol\":7339:7346  inverse */\n      dup1\n        /* \"@openzeppelin/contracts/utils/math/Math.sol\":7325:7336  denominator */\n      dup8\n        /* \"@openzeppelin/contracts/utils/math/Math.sol\":7325:7346  denominator * inverse */\n      mul\n        /* \"@openzeppelin/contracts/utils/math/Math.sol\":7321:7322  2 */\n      0x02\n        /* \"@openzeppelin/contracts/utils/math/Math.sol\":7321:7346  2 - denominator * inverse */\n      sub\n        /* \"@openzeppelin/contracts/utils/math/Math.sol\":7310:7346  inverse *= 2 - denominator * inverse */\n      dup2\n      mul\n      swap1\n      pop\n        /* \"@openzeppelin/contracts/utils/math/Math.sol\":7410:7417  inverse */\n      dup1\n        /* \"@openzeppelin/contracts/utils/math/Math.sol\":7396:7407  denominator */\n      dup8\n        /* \"@openzeppelin/contracts/utils/math/Math.sol\":7396:7417  denominator * inverse */\n      mul\n        /* \"@openzeppelin/contracts/utils/math/Math.sol\":7392:7393  2 */\n      0x02\n        /* \"@openzeppelin/contracts/utils/math/Math.sol\":7392:7417  2 - denominator * inverse */\n      sub\n        /* \"@openzeppelin/contracts/utils/math/Math.sol\":7381:7417  inverse *= 2 - denominator * inverse */\n      dup2\n      mul\n      swap1\n      pop\n        /* \"@openzeppelin/contracts/utils/math/Math.sol\":7868:7875  inverse */\n      dup1\n        /* \"@openzeppelin/contracts/utils/math/Math.sol\":7860:7865  prod0 */\n      dup6\n        /* \"@openzeppelin/contracts/utils/math/Math.sol\":7860:7875  prod0 * inverse */\n      mul\n        /* \"@openzeppelin/contracts/utils/math/Math.sol\":7851:7875  result = prod0 * inverse */\n      swap6\n      pop\n        /* \"@openzeppelin/contracts/utils/math/Math.sol\":7889:7902  return result */\n      pop\n      pop\n      pop\n      pop\n      pop\n        /* \"@openzeppelin/contracts/utils/math/Math.sol\":3803:7919  function mulDiv(uint256 x, uint256 y, uint256 denominator) internal pure returns (uint256 result) {... */\n    tag_281:\n      swap4\n      swap3\n      pop\n      pop\n      pop\n      jump\t// out\n        /* \"@openzeppelin/contracts/utils/math/Math.sol\":1811:2001  function tryDiv(uint256 a, uint256 b) internal pure returns (bool, uint256) {... */\n    tag_171:\n        /* \"@openzeppelin/contracts/utils/math/Math.sol\":1872:1876  bool */\n      0x00\n        /* \"@openzeppelin/contracts/utils/math/Math.sol\":1878:1885  uint256 */\n      dup1\n        /* \"@openzeppelin/contracts/utils/math/Math.sol\":1930:1931  0 */\n      0x00\n        /* \"@openzeppelin/contracts/utils/math/Math.sol\":1925:1926  b */\n      dup4\n        /* \"@openzeppelin/contracts/utils/math/Math.sol\":1925:1931  b == 0 */\n      sub\n        /* \"@openzeppelin/contracts/utils/math/Math.sol\":1921:1950  if (b == 0) return (false, 0) */\n      tag_287\n      jumpi\n        /* \"@openzeppelin/contracts/utils/math/Math.sol\":1941:1946  false */\n      0x00\n        /* \"@openzeppelin/contracts/utils/math/Math.sol\":1948:1949  0 */\n      dup1\n        /* \"@openzeppelin/contracts/utils/math/Math.sol\":1933:1950  return (false, 0) */\n      swap2\n      pop\n      swap2\n      pop\n      jump(tag_286)\n        /* \"@openzeppelin/contracts/utils/math/Math.sol\":1921:1950  if (b == 0) return (false, 0) */\n    tag_287:\n        /* \"@openzeppelin/contracts/utils/math/Math.sol\":1972:1976  true */\n      0x01\n        /* \"@openzeppelin/contracts/utils/math/Math.sol\":1982:1983  b */\n      dup4\n        /* \"@openzeppelin/contracts/utils/math/Math.sol\":1978:1979  a */\n      dup6\n        /* \"@openzeppelin/contracts/utils/math/Math.sol\":1978:1983  a / b */\n      dup2\n      tag_288\n      jumpi\n      tag_289\n      tag_265\n      jump\t// in\n    tag_289:\n    tag_288:\n      div\n        /* \"@openzeppelin/contracts/utils/math/Math.sol\":1964:1984  return (true, a / b) */\n      swap2\n      pop\n      swap2\n      pop\n        /* \"@openzeppelin/contracts/utils/math/Math.sol\":1811:2001  function tryDiv(uint256 a, uint256 b) internal pure returns (bool, uint256) {... */\n    tag_286:\n      swap3\n      pop\n      swap3\n      swap1\n      pop\n      jump\t// out\n        /* \"@openzeppelin/contracts/access/Ownable.sol\":2912:3099  function _transferOwnership(address newOwner) internal virtual {... */\n    tag_202:\n        /* \"@openzeppelin/contracts/access/Ownable.sol\":2985:3001  address oldOwner */\n      0x00\n        /* \"@openzeppelin/contracts/access/Ownable.sol\":3004:3010  _owner */\n      dup1\n      0x00\n      swap1\n      sload\n      swap1\n      0x0100\n      exp\n      swap1\n      div\n      0xffffffffffffffffffffffffffffffffffffffff\n      and\n        /* \"@openzeppelin/contracts/access/Ownable.sol\":2985:3010  address oldOwner = _owner */\n      swap1\n      pop\n        /* \"@openzeppelin/contracts/access/Ownable.sol\":3029:3037  newOwner */\n      dup2\n        /* \"@openzeppelin/contracts/access/Ownable.sol\":3020:3026  _owner */\n      0x00\n      dup1\n        /* \"@openzeppelin/contracts/access/Ownable.sol\":3020:3037  _owner = newOwner */\n      0x0100\n      exp\n      dup2\n      sload\n      dup2\n      0xffffffffffffffffffffffffffffffffffffffff\n      mul\n      not\n      and\n      swap1\n      dup4\n      0xffffffffffffffffffffffffffffffffffffffff\n      and\n      mul\n      or\n      swap1\n      sstore\n      pop\n        /* \"@openzeppelin/contracts/access/Ownable.sol\":3083:3091  newOwner */\n      dup2\n        /* \"@openzeppelin/contracts/access/Ownable.sol\":3052:3092  OwnershipTransferred(oldOwner, newOwner) */\n      0xffffffffffffffffffffffffffffffffffffffff\n      and\n        /* \"@openzeppelin/contracts/access/Ownable.sol\":3073:3081  oldOwner */\n      dup2\n        /* \"@openzeppelin/contracts/access/Ownable.sol\":3052:3092  OwnershipTransferred(oldOwner, newOwner) */\n      0xffffffffffffffffffffffffffffffffffffffff\n      and\n      0x8be0079c531659141344cd1fd0a4f28419497f9722a3daafe3b4186f6b6457e0\n      mload(0x40)\n      mload(0x40)\n      dup1\n      swap2\n      sub\n      swap1\n      log3\n        /* \"@openzeppelin/contracts/access/Ownable.sol\":2975:3099  {... */\n      pop\n        /* \"@openzeppelin/contracts/access/Ownable.sol\":2912:3099  function _transferOwnership(address newOwner) internal virtual {... */\n      pop\n      jump\t// out\n        /* \"@openzeppelin/contracts/token/ERC20/utils/SafeERC20.sol\":1702:1890  function safeTransferFrom(IERC20 token, address from, address to, uint256 value) internal {... */\n    tag_210:\n        /* \"@openzeppelin/contracts/token/ERC20/utils/SafeERC20.sol\":1802:1883  _callOptionalReturn(token, abi.encodeCall(token.transferFrom, (from, to, value))) */\n      tag_292\n        /* \"@openzeppelin/contracts/token/ERC20/utils/SafeERC20.sol\":1822:1827  token */\n      dup5\n        /* \"@openzeppelin/contracts/token/ERC20/utils/SafeERC20.sol\":1844:1849  token */\n      dup6\n        /* \"@openzeppelin/contracts/token/ERC20/utils/SafeERC20.sol\":1844:1862  token.transferFrom */\n      0xffffffffffffffffffffffffffffffffffffffff\n      and\n      0x23b872dd\n        /* \"@openzeppelin/contracts/token/ERC20/utils/SafeERC20.sol\":1865:1869  from */\n      dup7\n        /* \"@openzeppelin/contracts/token/ERC20/utils/SafeERC20.sol\":1871:1873  to */\n      dup7\n        /* \"@openzeppelin/contracts/token/ERC20/utils/SafeERC20.sol\":1875:1880  value */\n      dup7\n        /* \"@openzeppelin/contracts/token/ERC20/utils/SafeERC20.sol\":1829:1882  abi.encodeCall(token.transferFrom, (from, to, value)) */\n      add(0x24, mload(0x40))\n      tag_293\n      swap4\n      swap3\n      swap2\n      swap1\n      tag_294\n      jump\t// in\n    tag_293:\n      mload(0x40)\n      0x20\n      dup2\n      dup4\n      sub\n      sub\n      dup2\n      mstore\n      swap1\n      0x40\n      mstore\n      swap2\n      pop\n      0xe0\n      shl\n      0x20\n      dup3\n      add\n      dup1\n      mload\n      0xffffffffffffffffffffffffffffffffffffffffffffffffffffffff\n      dup4\n      dup2\n      dup4\n      and\n      or\n      dup4\n      mstore\n      pop\n      pop\n      pop\n      pop\n        /* \"@openzeppelin/contracts/token/ERC20/utils/SafeERC20.sol\":1802:1821  _callOptionalReturn */\n      tag_280\n        /* \"@openzeppelin/contracts/token/ERC20/utils/SafeERC20.sol\":1802:1883  _callOptionalReturn(token, abi.encodeCall(token.transferFrom, (from, to, value))) */\n      jump\t// in\n    tag_292:\n        /* \"@openzeppelin/contracts/token/ERC20/utils/SafeERC20.sol\":1702:1890  function safeTransferFrom(IERC20 token, address from, address to, uint256 value) internal {... */\n      pop\n      pop\n      pop\n      pop\n      jump\t// out\n        /* \"@openzeppelin/contracts/utils/Context.sol\":656:752  function _msgSender() internal view virtual returns (address) {... */\n    tag_254:\n        /* \"@openzeppelin/contracts/utils/Context.sol\":709:716  address */\n      0x00\n        /* \"@openzeppelin/contracts/utils/Context.sol\":735:745  msg.sender */\n      caller\n        /* \"@openzeppelin/contracts/utils/Context.sol\":728:745  return msg.sender */\n      swap1\n      pop\n        /* \"@openzeppelin/contracts/utils/Context.sol\":656:752  function _msgSender() internal view virtual returns (address) {... */\n      swap1\n      jump\t// out\n        /* \"@openzeppelin/contracts/token/ERC20/utils/SafeERC20.sol\":4059:4688  function _callOptionalReturn(IERC20 token, bytes memory data) private {... */\n    tag_280:\n        /* \"@openzeppelin/contracts/token/ERC20/utils/SafeERC20.sol\":4478:4501  bytes memory returndata */\n      0x00\n        /* \"@openzeppelin/contracts/token/ERC20/utils/SafeERC20.sol\":4504:4537  address(token).functionCall(data) */\n      tag_297\n        /* \"@openzeppelin/contracts/token/ERC20/utils/SafeERC20.sol\":4532:4536  data */\n      dup3\n        /* \"@openzeppelin/contracts/token/ERC20/utils/SafeERC20.sol\":4512:4517  token */\n      dup5\n        /* \"@openzeppelin/contracts/token/ERC20/utils/SafeERC20.sol\":4504:4531  address(token).functionCall */\n      0xffffffffffffffffffffffffffffffffffffffff\n      and\n      tag_298\n      swap1\n        /* \"@openzeppelin/contracts/token/ERC20/utils/SafeERC20.sol\":4504:4537  address(token).functionCall(data) */\n      swap2\n      swap1\n      0xffffffff\n      and\n      jump\t// in\n    tag_297:\n        /* \"@openzeppelin/contracts/token/ERC20/utils/SafeERC20.sol\":4478:4537  bytes memory returndata = address(token).functionCall(data) */\n      swap1\n      pop\n        /* \"@openzeppelin/contracts/token/ERC20/utils/SafeERC20.sol\":4572:4573  0 */\n      0x00\n        /* \"@openzeppelin/contracts/token/ERC20/utils/SafeERC20.sol\":4551:4561  returndata */\n      dup2\n        /* \"@openzeppelin/contracts/token/ERC20/utils/SafeERC20.sol\":4551:4568  returndata.length */\n      mload\n        /* \"@openzeppelin/contracts/token/ERC20/utils/SafeERC20.sol\":4551:4573  returndata.length != 0 */\n      eq\n      iszero\n        /* \"@openzeppelin/contracts/token/ERC20/utils/SafeERC20.sol\":4551:4608  returndata.length != 0 && !abi.decode(returndata, (bool)) */\n      dup1\n      iszero\n      tag_299\n      jumpi\n      pop\n        /* \"@openzeppelin/contracts/token/ERC20/utils/SafeERC20.sol\":4589:4599  returndata */\n      dup1\n        /* \"@openzeppelin/contracts/token/ERC20/utils/SafeERC20.sol\":4578:4608  abi.decode(returndata, (bool)) */\n      dup1\n      0x20\n      add\n      swap1\n      mload\n      dup2\n      add\n      swap1\n      tag_300\n      swap2\n      swap1\n      tag_275\n      jump\t// in\n    tag_300:\n        /* \"@openzeppelin/contracts/token/ERC20/utils/SafeERC20.sol\":4577:4608  !abi.decode(returndata, (bool)) */\n      iszero\n        /* \"@openzeppelin/contracts/token/ERC20/utils/SafeERC20.sol\":4551:4608  returndata.length != 0 && !abi.decode(returndata, (bool)) */\n    tag_299:\n        /* \"@openzeppelin/contracts/token/ERC20/utils/SafeERC20.sol\":4547:4682  if (returndata.length != 0 && !abi.decode(returndata, (bool))) {... */\n      iszero\n      tag_301\n      jumpi\n        /* \"@openzeppelin/contracts/token/ERC20/utils/SafeERC20.sol\":4664:4669  token */\n      dup3\n        /* \"@openzeppelin/contracts/token/ERC20/utils/SafeERC20.sol\":4631:4671  SafeERC20FailedOperation(address(token)) */\n      mload(0x40)\n      0x5274afe700000000000000000000000000000000000000000000000000000000\n      dup2\n      mstore\n      0x04\n      add\n      tag_302\n      swap2\n      swap1\n      tag_81\n      jump\t// in\n    tag_302:\n      mload(0x40)\n      dup1\n      swap2\n      sub\n      swap1\n      revert\n        /* \"@openzeppelin/contracts/token/ERC20/utils/SafeERC20.sol\":4547:4682  if (returndata.length != 0 && !abi.decode(returndata, (bool))) {... */\n    tag_301:\n        /* \"@openzeppelin/contracts/token/ERC20/utils/SafeERC20.sol\":4129:4688  {... */\n      pop\n        /* \"@openzeppelin/contracts/token/ERC20/utils/SafeERC20.sol\":4059:4688  function _callOptionalReturn(IERC20 token, bytes memory data) private {... */\n      pop\n      pop\n      jump\t// out\n        /* \"@openzeppelin/contracts/utils/Address.sol\":2705:2856  function functionCall(address target, bytes memory data) internal returns (bytes memory) {... */\n    tag_298:\n        /* \"@openzeppelin/contracts/utils/Address.sol\":2780:2792  bytes memory */\n      0x60\n        /* \"@openzeppelin/contracts/utils/Address.sol\":2811:2849  functionCallWithValue(target, data, 0) */\n      tag_304\n        /* \"@openzeppelin/contracts/utils/Address.sol\":2833:2839  target */\n      dup4\n        /* \"@openzeppelin/contracts/utils/Address.sol\":2841:2845  data */\n      dup4\n        /* \"@openzeppelin/contracts/utils/Address.sol\":2847:2848  0 */\n      0x00\n        /* \"@openzeppelin/contracts/utils/Address.sol\":2811:2832  functionCallWithValue */\n      tag_305\n        /* \"@openzeppelin/contracts/utils/Address.sol\":2811:2849  functionCallWithValue(target, data, 0) */\n      jump\t// in\n    tag_304:\n        /* \"@openzeppelin/contracts/utils/Address.sol\":2804:2849  return functionCallWithValue(target, data, 0) */\n      swap1\n      pop\n        /* \"@openzeppelin/contracts/utils/Address.sol\":2705:2856  function functionCall(address target, bytes memory data) internal returns (bytes memory) {... */\n      swap3\n      swap2\n      pop\n      pop\n      jump\t// out\n        /* \"@openzeppelin/contracts/utils/Address.sol\":3180:3572  function functionCallWithValue(address target, bytes memory data, uint256 value) internal returns (bytes memory) {... */\n    tag_305:\n        /* \"@openzeppelin/contracts/utils/Address.sol\":3279:3291  bytes memory */\n      0x60\n        /* \"@openzeppelin/contracts/utils/Address.sol\":3331:3336  value */\n      dup2\n        /* \"@openzeppelin/contracts/utils/Address.sol\":3307:3328  address(this).balance */\n      selfbalance\n        /* \"@openzeppelin/contracts/utils/Address.sol\":3307:3336  address(this).balance < value */\n      lt\n        /* \"@openzeppelin/contracts/utils/Address.sol\":3303:3411  if (address(this).balance < value) {... */\n      iszero\n      tag_307\n      jumpi\n        /* \"@openzeppelin/contracts/utils/Address.sol\":3394:3398  this */\n      address\n        /* \"@openzeppelin/contracts/utils/Address.sol\":3359:3400  AddressInsufficientBalance(address(this)) */\n      mload(0x40)\n      0xcd78605900000000000000000000000000000000000000000000000000000000\n      dup2\n      mstore\n      0x04\n      add\n      tag_308\n      swap2\n      swap1\n      tag_81\n      jump\t// in\n    tag_308:\n      mload(0x40)\n      dup1\n      swap2\n      sub\n      swap1\n      revert\n        /* \"@openzeppelin/contracts/utils/Address.sol\":3303:3411  if (address(this).balance < value) {... */\n    tag_307:\n        /* \"@openzeppelin/contracts/utils/Address.sol\":3421:3433  bool success */\n      0x00\n        /* \"@openzeppelin/contracts/utils/Address.sol\":3435:3458  bytes memory returndata */\n      dup1\n        /* \"@openzeppelin/contracts/utils/Address.sol\":3462:3468  target */\n      dup6\n        /* \"@openzeppelin/contracts/utils/Address.sol\":3462:3473  target.call */\n      0xffffffffffffffffffffffffffffffffffffffff\n      and\n        /* \"@openzeppelin/contracts/utils/Address.sol\":3481:3486  value */\n      dup5\n        /* \"@openzeppelin/contracts/utils/Address.sol\":3488:3492  data */\n      dup7\n        /* \"@openzeppelin/contracts/utils/Address.sol\":3462:3493  target.call{value: value}(data) */\n      mload(0x40)\n      tag_309\n      swap2\n      swap1\n      tag_310\n      jump\t// in\n    tag_309:\n      0x00\n      mload(0x40)\n      dup1\n      dup4\n      sub\n      dup2\n      dup6\n      dup8\n      gas\n      call\n      swap3\n      pop\n      pop\n      pop\n      returndatasize\n      dup1\n      0x00\n      dup2\n      eq\n      tag_313\n      jumpi\n      mload(0x40)\n      swap2\n      pop\n      and(add(returndatasize, 0x3f), not(0x1f))\n      dup3\n      add\n      0x40\n      mstore\n      returndatasize\n      dup3\n      mstore\n      returndatasize\n      0x00\n      0x20\n      dup5\n      add\n      returndatacopy\n      jump(tag_312)\n    tag_313:\n      0x60\n      swap2\n      pop\n    tag_312:\n      pop\n        /* \"@openzeppelin/contracts/utils/Address.sol\":3420:3493  (bool success, bytes memory returndata) = target.call{value: value}(data) */\n      swap2\n      pop\n      swap2\n      pop\n        /* \"@openzeppelin/contracts/utils/Address.sol\":3510:3565  verifyCallResultFromTarget(target, success, returndata) */\n      tag_314\n        /* \"@openzeppelin/contracts/utils/Address.sol\":3537:3543  target */\n      dup7\n        /* \"@openzeppelin/contracts/utils/Address.sol\":3545:3552  success */\n      dup4\n        /* \"@openzeppelin/contracts/utils/Address.sol\":3554:3564  returndata */\n      dup4\n        /* \"@openzeppelin/contracts/utils/Address.sol\":3510:3536  verifyCallResultFromTarget */\n      tag_315\n        /* \"@openzeppelin/contracts/utils/Address.sol\":3510:3565  verifyCallResultFromTarget(target, success, returndata) */\n      jump\t// in\n    tag_314:\n        /* \"@openzeppelin/contracts/utils/Address.sol\":3503:3565  return verifyCallResultFromTarget(target, success, returndata) */\n      swap3\n      pop\n      pop\n      pop\n        /* \"@openzeppelin/contracts/utils/Address.sol\":3180:3572  function functionCallWithValue(address target, bytes memory data, uint256 value) internal returns (bytes memory) {... */\n      swap4\n      swap3\n      pop\n      pop\n      pop\n      jump\t// out\n        /* \"@openzeppelin/contracts/utils/Address.sol\":4625:5207  function verifyCallResultFromTarget(... */\n    tag_315:\n        /* \"@openzeppelin/contracts/utils/Address.sol\":4769:4781  bytes memory */\n      0x60\n        /* \"@openzeppelin/contracts/utils/Address.sol\":4798:4805  success */\n      dup3\n        /* \"@openzeppelin/contracts/utils/Address.sol\":4793:5201  if (!success) {... */\n      tag_317\n      jumpi\n        /* \"@openzeppelin/contracts/utils/Address.sol\":4821:4840  _revert(returndata) */\n      tag_318\n        /* \"@openzeppelin/contracts/utils/Address.sol\":4829:4839  returndata */\n      dup3\n        /* \"@openzeppelin/contracts/utils/Address.sol\":4821:4828  _revert */\n      tag_319\n        /* \"@openzeppelin/contracts/utils/Address.sol\":4821:4840  _revert(returndata) */\n      jump\t// in\n    tag_318:\n        /* \"@openzeppelin/contracts/utils/Address.sol\":4793:5201  if (!success) {... */\n      jump(tag_320)\n    tag_317:\n        /* \"@openzeppelin/contracts/utils/Address.sol\":5066:5067  0 */\n      0x00\n        /* \"@openzeppelin/contracts/utils/Address.sol\":5045:5055  returndata */\n      dup3\n        /* \"@openzeppelin/contracts/utils/Address.sol\":5045:5062  returndata.length */\n      mload\n        /* \"@openzeppelin/contracts/utils/Address.sol\":5045:5067  returndata.length == 0 */\n      eq\n        /* \"@openzeppelin/contracts/utils/Address.sol\":5045:5094  returndata.length == 0 && target.code.length == 0 */\n      dup1\n      iszero\n      tag_321\n      jumpi\n      pop\n        /* \"@openzeppelin/contracts/utils/Address.sol\":5093:5094  0 */\n      0x00\n        /* \"@openzeppelin/contracts/utils/Address.sol\":5071:5077  target */\n      dup5\n        /* \"@openzeppelin/contracts/utils/Address.sol\":5071:5089  target.code.length */\n      0xffffffffffffffffffffffffffffffffffffffff\n      and\n      extcodesize\n        /* \"@openzeppelin/contracts/utils/Address.sol\":5071:5094  target.code.length == 0 */\n      eq\n        /* \"@openzeppelin/contracts/utils/Address.sol\":5045:5094  returndata.length == 0 && target.code.length == 0 */\n    tag_321:\n        /* \"@openzeppelin/contracts/utils/Address.sol\":5041:5160  if (returndata.length == 0 && target.code.length == 0) {... */\n      iszero\n      tag_322\n      jumpi\n        /* \"@openzeppelin/contracts/utils/Address.sol\":5138:5144  target */\n      dup4\n        /* \"@openzeppelin/contracts/utils/Address.sol\":5121:5145  AddressEmptyCode(target) */\n      mload(0x40)\n      0x9996b31500000000000000000000000000000000000000000000000000000000\n      dup2\n      mstore\n      0x04\n      add\n      tag_323\n      swap2\n      swap1\n      tag_81\n      jump\t// in\n    tag_323:\n      mload(0x40)\n      dup1\n      swap2\n      sub\n      swap1\n      revert\n        /* \"@openzeppelin/contracts/utils/Address.sol\":5041:5160  if (returndata.length == 0 && target.code.length == 0) {... */\n    tag_322:\n        /* \"@openzeppelin/contracts/utils/Address.sol\":5180:5190  returndata */\n      dup2\n        /* \"@openzeppelin/contracts/utils/Address.sol\":5173:5190  return returndata */\n      swap1\n      pop\n      jump(tag_316)\n        /* \"@openzeppelin/contracts/utils/Address.sol\":4793:5201  if (!success) {... */\n    tag_320:\n        /* \"@openzeppelin/contracts/utils/Address.sol\":4625:5207  function verifyCallResultFromTarget(... */\n    tag_316:\n      swap4\n      swap3\n      pop\n      pop\n      pop\n      jump\t// out\n        /* \"@openzeppelin/contracts/utils/Address.sol\":5743:6259  function _revert(bytes memory returndata) private pure {... */\n    tag_319:\n        /* \"@openzeppelin/contracts/utils/Address.sol\":5894:5895  0 */\n      0x00\n        /* \"@openzeppelin/contracts/utils/Address.sol\":5874:5884  returndata */\n      dup2\n        /* \"@openzeppelin/contracts/utils/Address.sol\":5874:5891  returndata.length */\n      mload\n        /* \"@openzeppelin/contracts/utils/Address.sol\":5874:5895  returndata.length > 0 */\n      gt\n        /* \"@openzeppelin/contracts/utils/Address.sol\":5870:6253  if (returndata.length > 0) {... */\n      iszero\n      tag_325\n      jumpi\n        /* \"@openzeppelin/contracts/utils/Address.sol\":6102:6112  returndata */\n      dup1\n        /* \"@openzeppelin/contracts/utils/Address.sol\":6096:6113  mload(returndata) */\n      mload\n        /* \"@openzeppelin/contracts/utils/Address.sol\":6158:6173  returndata_size */\n      dup1\n        /* \"@openzeppelin/contracts/utils/Address.sol\":6145:6155  returndata */\n      dup3\n        /* \"@openzeppelin/contracts/utils/Address.sol\":6141:6143  32 */\n      0x20\n        /* \"@openzeppelin/contracts/utils/Address.sol\":6137:6156  add(32, returndata) */\n      add\n        /* \"@openzeppelin/contracts/utils/Address.sol\":6130:6174  revert(add(32, returndata), returndata_size) */\n      revert\n        /* \"@openzeppelin/contracts/utils/Address.sol\":5870:6253  if (returndata.length > 0) {... */\n    tag_325:\n        /* \"@openzeppelin/contracts/utils/Address.sol\":6225:6242  FailedInnerCall() */\n      mload(0x40)\n      0x1425ea4200000000000000000000000000000000000000000000000000000000\n      dup2\n      mstore\n      0x04\n      add\n      mload(0x40)\n      dup1\n      swap2\n      sub\n      swap1\n      revert\n        /* \"#utility.yul\":7:84   */\n    tag_327:\n        /* \"#utility.yul\":44:51   */\n      0x00\n        /* \"#utility.yul\":73:78   */\n      dup2\n        /* \"#utility.yul\":62:78   */\n      swap1\n      pop\n        /* \"#utility.yul\":7:84   */\n      swap2\n      swap1\n      pop\n      jump\t// out\n        /* \"#utility.yul\":90:208   */\n    tag_328:\n        /* \"#utility.yul\":177:201   */\n      tag_364\n        /* \"#utility.yul\":195:200   */\n      dup2\n        /* \"#utility.yul\":177:201   */\n      tag_327\n      jump\t// in\n    tag_364:\n        /* \"#utility.yul\":172:175   */\n      dup3\n        /* \"#utility.yul\":165:202   */\n      mstore\n        /* \"#utility.yul\":90:208   */\n      pop\n      pop\n      jump\t// out\n        /* \"#utility.yul\":214:436   */\n    tag_33:\n        /* \"#utility.yul\":307:311   */\n      0x00\n        /* \"#utility.yul\":345:347   */\n      0x20\n        /* \"#utility.yul\":334:343   */\n      dup3\n        /* \"#utility.yul\":330:348   */\n      add\n        /* \"#utility.yul\":322:348   */\n      swap1\n      pop\n        /* \"#utility.yul\":358:429   */\n      tag_366\n        /* \"#utility.yul\":426:427   */\n      0x00\n        /* \"#utility.yul\":415:424   */\n      dup4\n        /* \"#utility.yul\":411:428   */\n      add\n        /* \"#utility.yul\":402:408   */\n      dup5\n        /* \"#utility.yul\":358:429   */\n      tag_328\n      jump\t// in\n    tag_366:\n        /* \"#utility.yul\":214:436   */\n      swap3\n      swap2\n      pop\n      pop\n      jump\t// out\n        /* \"#utility.yul\":523:640   */\n    tag_330:\n        /* \"#utility.yul\":632:633   */\n      0x00\n        /* \"#utility.yul\":629:630   */\n      dup1\n        /* \"#utility.yul\":622:634   */\n      revert\n        /* \"#utility.yul\":769:891   */\n    tag_332:\n        /* \"#utility.yul\":842:866   */\n      tag_371\n        /* \"#utility.yul\":860:865   */\n      dup2\n        /* \"#utility.yul\":842:866   */\n      tag_327\n      jump\t// in\n    tag_371:\n        /* \"#utility.yul\":835:840   */\n      dup2\n        /* \"#utility.yul\":832:867   */\n      eq\n        /* \"#utility.yul\":822:885   */\n      tag_372\n      jumpi\n        /* \"#utility.yul\":881:882   */\n      0x00\n        /* \"#utility.yul\":878:879   */\n      dup1\n        /* \"#utility.yul\":871:883   */\n      revert\n        /* \"#utility.yul\":822:885   */\n    tag_372:\n        /* \"#utility.yul\":769:891   */\n      pop\n      jump\t// out\n        /* \"#utility.yul\":897:1036   */\n    tag_333:\n        /* \"#utility.yul\":943:948   */\n      0x00\n        /* \"#utility.yul\":981:987   */\n      dup2\n        /* \"#utility.yul\":968:988   */\n      calldataload\n        /* \"#utility.yul\":959:988   */\n      swap1\n      pop\n        /* \"#utility.yul\":997:1030   */\n      tag_374\n        /* \"#utility.yul\":1024:1029   */\n      dup2\n        /* \"#utility.yul\":997:1030   */\n      tag_332\n      jump\t// in\n    tag_374:\n        /* \"#utility.yul\":897:1036   */\n      swap3\n      swap2\n      pop\n      pop\n      jump\t// out\n        /* \"#utility.yul\":1042:1371   */\n    tag_39:\n        /* \"#utility.yul\":1101:1107   */\n      0x00\n        /* \"#utility.yul\":1150:1152   */\n      0x20\n        /* \"#utility.yul\":1138:1147   */\n      dup3\n        /* \"#utility.yul\":1129:1136   */\n      dup5\n        /* \"#utility.yul\":1125:1148   */\n      sub\n        /* \"#utility.yul\":1121:1153   */\n      slt\n        /* \"#utility.yul\":1118:1237   */\n      iszero\n      tag_376\n      jumpi\n        /* \"#utility.yul\":1156:1235   */\n      tag_377\n      tag_330\n      jump\t// in\n    tag_377:\n        /* \"#utility.yul\":1118:1237   */\n    tag_376:\n        /* \"#utility.yul\":1276:1277   */\n      0x00\n        /* \"#utility.yul\":1301:1354   */\n      tag_378\n        /* \"#utility.yul\":1346:1353   */\n      dup5\n        /* \"#utility.yul\":1337:1343   */\n      dup3\n        /* \"#utility.yul\":1326:1335   */\n      dup6\n        /* \"#utility.yul\":1322:1344   */\n      add\n        /* \"#utility.yul\":1301:1354   */\n      tag_333\n      jump\t// in\n    tag_378:\n        /* \"#utility.yul\":1291:1354   */\n      swap2\n      pop\n        /* \"#utility.yul\":1247:1364   */\n      pop\n        /* \"#utility.yul\":1042:1371   */\n      swap3\n      swap2\n      pop\n      pop\n      jump\t// out\n        /* \"#utility.yul\":1377:1503   */\n    tag_334:\n        /* \"#utility.yul\":1414:1421   */\n      0x00\n        /* \"#utility.yul\":1454:1496   */\n      0xffffffffffffffffffffffffffffffffffffffff\n        /* \"#utility.yul\":1447:1452   */\n      dup3\n        /* \"#utility.yul\":1443:1497   */\n      and\n        /* \"#utility.yul\":1432:1497   */\n      swap1\n      pop\n        /* \"#utility.yul\":1377:1503   */\n      swap2\n      swap1\n      pop\n      jump\t// out\n        /* \"#utility.yul\":1509:1569   */\n    tag_335:\n        /* \"#utility.yul\":1537:1540   */\n      0x00\n        /* \"#utility.yul\":1558:1563   */\n      dup2\n        /* \"#utility.yul\":1551:1563   */\n      swap1\n      pop\n        /* \"#utility.yul\":1509:1569   */\n      swap2\n      swap1\n      pop\n      jump\t// out\n        /* \"#utility.yul\":1575:1717   */\n    tag_336:\n        /* \"#utility.yul\":1625:1634   */\n      0x00\n        /* \"#utility.yul\":1658:1711   */\n      tag_382\n        /* \"#utility.yul\":1676:1710   */\n      tag_383\n        /* \"#utility.yul\":1685:1709   */\n      tag_384\n        /* \"#utility.yul\":1703:1708   */\n      dup5\n        /* \"#utility.yul\":1685:1709   */\n      tag_334\n      jump\t// in\n    tag_384:\n        /* \"#utility.yul\":1676:1710   */\n      tag_335\n      jump\t// in\n    tag_383:\n        /* \"#utility.yul\":1658:1711   */\n      tag_334\n      jump\t// in\n    tag_382:\n        /* \"#utility.yul\":1645:1711   */\n      swap1\n      pop\n        /* \"#utility.yul\":1575:1717   */\n      swap2\n      swap1\n      pop\n      jump\t// out\n        /* \"#utility.yul\":1723:1849   */\n    tag_337:\n        /* \"#utility.yul\":1773:1782   */\n      0x00\n        /* \"#utility.yul\":1806:1843   */\n      tag_386\n        /* \"#utility.yul\":1837:1842   */\n      dup3\n        /* \"#utility.yul\":1806:1843   */\n      tag_336\n      jump\t// in\n    tag_386:\n        /* \"#utility.yul\":1793:1843   */\n      swap1\n      pop\n        /* \"#utility.yul\":1723:1849   */\n      swap2\n      swap1\n      pop\n      jump\t// out\n        /* \"#utility.yul\":1855:1995   */\n    tag_338:\n        /* \"#utility.yul\":1919:1928   */\n      0x00\n        /* \"#utility.yul\":1952:1989   */\n      tag_388\n        /* \"#utility.yul\":1983:1988   */\n      dup3\n        /* \"#utility.yul\":1952:1989   */\n      tag_337\n      jump\t// in\n    tag_388:\n        /* \"#utility.yul\":1939:1989   */\n      swap1\n      pop\n        /* \"#utility.yul\":1855:1995   */\n      swap2\n      swap1\n      pop\n      jump\t// out\n        /* \"#utility.yul\":2001:2160   */\n    tag_339:\n        /* \"#utility.yul\":2102:2153   */\n      tag_390\n        /* \"#utility.yul\":2147:2152   */\n      dup2\n        /* \"#utility.yul\":2102:2153   */\n      tag_338\n      jump\t// in\n    tag_390:\n        /* \"#utility.yul\":2097:2100   */\n      dup3\n        /* \"#utility.yul\":2090:2154   */\n      mstore\n        /* \"#utility.yul\":2001:2160   */\n      pop\n      pop\n      jump\t// out\n        /* \"#utility.yul\":2166:2858   */\n    tag_42:\n        /* \"#utility.yul\":2385:2389   */\n      0x00\n        /* \"#utility.yul\":2423:2426   */\n      0xa0\n        /* \"#utility.yul\":2412:2421   */\n      dup3\n        /* \"#utility.yul\":2408:2427   */\n      add\n        /* \"#utility.yul\":2400:2427   */\n      swap1\n      pop\n        /* \"#utility.yul\":2437:2522   */\n      tag_392\n        /* \"#utility.yul\":2519:2520   */\n      0x00\n        /* \"#utility.yul\":2508:2517   */\n      dup4\n        /* \"#utility.yul\":2504:2521   */\n      add\n        /* \"#utility.yul\":2495:2501   */\n      dup9\n        /* \"#utility.yul\":2437:2522   */\n      tag_339\n      jump\t// in\n    tag_392:\n        /* \"#utility.yul\":2532:2604   */\n      tag_393\n        /* \"#utility.yul\":2600:2602   */\n      0x20\n        /* \"#utility.yul\":2589:2598   */\n      dup4\n        /* \"#utility.yul\":2585:2603   */\n      add\n        /* \"#utility.yul\":2576:2582   */\n      dup8\n        /* \"#utility.yul\":2532:2604   */\n      tag_328\n      jump\t// in\n    tag_393:\n        /* \"#utility.yul\":2614:2686   */\n      tag_394\n        /* \"#utility.yul\":2682:2684   */\n      0x40\n        /* \"#utility.yul\":2671:2680   */\n      dup4\n        /* \"#utility.yul\":2667:2685   */\n      add\n        /* \"#utility.yul\":2658:2664   */\n      dup7\n        /* \"#utility.yul\":2614:2686   */\n      tag_328\n      jump\t// in\n    tag_394:\n        /* \"#utility.yul\":2696:2768   */\n      tag_395\n        /* \"#utility.yul\":2764:2766   */\n      0x60\n        /* \"#utility.yul\":2753:2762   */\n      dup4\n        /* \"#utility.yul\":2749:2767   */\n      add\n        /* \"#utility.yul\":2740:2746   */\n      dup6\n        /* \"#utility.yul\":2696:2768   */\n      tag_328\n      jump\t// in\n    tag_395:\n        /* \"#utility.yul\":2778:2851   */\n      tag_396\n        /* \"#utility.yul\":2846:2849   */\n      0x80\n        /* \"#utility.yul\":2835:2844   */\n      dup4\n        /* \"#utility.yul\":2831:2850   */\n      add\n        /* \"#utility.yul\":2822:2828   */\n      dup5\n        /* \"#utility.yul\":2778:2851   */\n      tag_328\n      jump\t// in\n    tag_396:\n        /* \"#utility.yul\":2166:2858   */\n      swap7\n      swap6\n      pop\n      pop\n      pop\n      pop\n      pop\n      pop\n      jump\t// out\n        /* \"#utility.yul\":2864:2960   */\n    tag_340:\n        /* \"#utility.yul\":2901:2908   */\n      0x00\n        /* \"#utility.yul\":2930:2954   */\n      tag_398\n        /* \"#utility.yul\":2948:2953   */\n      dup3\n        /* \"#utility.yul\":2930:2954   */\n      tag_334\n      jump\t// in\n    tag_398:\n        /* \"#utility.yul\":2919:2954   */\n      swap1\n      pop\n        /* \"#utility.yul\":2864:2960   */\n      swap2\n      swap1\n      pop\n      jump\t// out\n        /* \"#utility.yul\":2966:3076   */\n    tag_341:\n        /* \"#utility.yul\":3017:3024   */\n      0x00\n        /* \"#utility.yul\":3046:3070   */\n      tag_400\n        /* \"#utility.yul\":3064:3069   */\n      dup3\n        /* \"#utility.yul\":3046:3070   */\n      tag_340\n      jump\t// in\n    tag_400:\n        /* \"#utility.yul\":3035:3070   */\n      swap1\n      pop\n        /* \"#utility.yul\":2966:3076   */\n      swap2\n      swap1\n      pop\n      jump\t// out\n        /* \"#utility.yul\":3082:3232   */\n    tag_342:\n        /* \"#utility.yul\":3169:3207   */\n      tag_402\n        /* \"#utility.yul\":3201:3206   */\n      dup2\n        /* \"#utility.yul\":3169:3207   */\n      tag_341\n      jump\t// in\n    tag_402:\n        /* \"#utility.yul\":3162:3167   */\n      dup2\n        /* \"#utility.yul\":3159:3208   */\n      eq\n        /* \"#utility.yul\":3149:3226   */\n      tag_403\n      jumpi\n        /* \"#utility.yul\":3222:3223   */\n      0x00\n        /* \"#utility.yul\":3219:3220   */\n      dup1\n        /* \"#utility.yul\":3212:3224   */\n      revert\n        /* \"#utility.yul\":3149:3226   */\n    tag_403:\n        /* \"#utility.yul\":3082:3232   */\n      pop\n      jump\t// out\n        /* \"#utility.yul\":3238:3405   */\n    tag_343:\n        /* \"#utility.yul\":3298:3303   */\n      0x00\n        /* \"#utility.yul\":3336:3342   */\n      dup2\n        /* \"#utility.yul\":3323:3343   */\n      calldataload\n        /* \"#utility.yul\":3314:3343   */\n      swap1\n      pop\n        /* \"#utility.yul\":3352:3399   */\n      tag_405\n        /* \"#utility.yul\":3393:3398   */\n      dup2\n        /* \"#utility.yul\":3352:3399   */\n      tag_342\n      jump\t// in\n    tag_405:\n        /* \"#utility.yul\":3238:3405   */\n      swap3\n      swap2\n      pop\n      pop\n      jump\t// out\n        /* \"#utility.yul\":3411:3501   */\n    tag_344:\n        /* \"#utility.yul\":3445:3452   */\n      0x00\n        /* \"#utility.yul\":3488:3493   */\n      dup2\n        /* \"#utility.yul\":3481:3494   */\n      iszero\n        /* \"#utility.yul\":3474:3495   */\n      iszero\n        /* \"#utility.yul\":3463:3495   */\n      swap1\n      pop\n        /* \"#utility.yul\":3411:3501   */\n      swap2\n      swap1\n      pop\n      jump\t// out\n        /* \"#utility.yul\":3507:3623   */\n    tag_345:\n        /* \"#utility.yul\":3577:3598   */\n      tag_408\n        /* \"#utility.yul\":3592:3597   */\n      dup2\n        /* \"#utility.yul\":3577:3598   */\n      tag_344\n      jump\t// in\n    tag_408:\n        /* \"#utility.yul\":3570:3575   */\n      dup2\n        /* \"#utility.yul\":3567:3599   */\n      eq\n        /* \"#utility.yul\":3557:3617   */\n      tag_409\n      jumpi\n        /* \"#utility.yul\":3613:3614   */\n      0x00\n        /* \"#utility.yul\":3610:3611   */\n      dup1\n        /* \"#utility.yul\":3603:3615   */\n      revert\n        /* \"#utility.yul\":3557:3617   */\n    tag_409:\n        /* \"#utility.yul\":3507:3623   */\n      pop\n      jump\t// out\n        /* \"#utility.yul\":3629:3762   */\n    tag_346:\n        /* \"#utility.yul\":3672:3677   */\n      0x00\n        /* \"#utility.yul\":3710:3716   */\n      dup2\n        /* \"#utility.yul\":3697:3717   */\n      calldataload\n        /* \"#utility.yul\":3688:3717   */\n      swap1\n      pop\n        /* \"#utility.yul\":3726:3756   */\n      tag_411\n        /* \"#utility.yul\":3750:3755   */\n      dup2\n        /* \"#utility.yul\":3726:3756   */\n      tag_345\n      jump\t// in\n    tag_411:\n        /* \"#utility.yul\":3629:3762   */\n      swap3\n      swap2\n      pop\n      pop\n      jump\t// out\n        /* \"#utility.yul\":3768:4409   */\n    tag_48:\n        /* \"#utility.yul\":3856:3862   */\n      0x00\n        /* \"#utility.yul\":3864:3870   */\n      dup1\n        /* \"#utility.yul\":3872:3878   */\n      0x00\n        /* \"#utility.yul\":3921:3923   */\n      0x60\n        /* \"#utility.yul\":3909:3918   */\n      dup5\n        /* \"#utility.yul\":3900:3907   */\n      dup7\n        /* \"#utility.yul\":3896:3919   */\n      sub\n        /* \"#utility.yul\":3892:3924   */\n      slt\n        /* \"#utility.yul\":3889:4008   */\n      iszero\n      tag_413\n      jumpi\n        /* \"#utility.yul\":3927:4006   */\n      tag_414\n      tag_330\n      jump\t// in\n    tag_414:\n        /* \"#utility.yul\":3889:4008   */\n    tag_413:\n        /* \"#utility.yul\":4047:4048   */\n      0x00\n        /* \"#utility.yul\":4072:4125   */\n      tag_415\n        /* \"#utility.yul\":4117:4124   */\n      dup7\n        /* \"#utility.yul\":4108:4114   */\n      dup3\n        /* \"#utility.yul\":4097:4106   */\n      dup8\n        /* \"#utility.yul\":4093:4115   */\n      add\n        /* \"#utility.yul\":4072:4125   */\n      tag_333\n      jump\t// in\n    tag_415:\n        /* \"#utility.yul\":4062:4125   */\n      swap4\n      pop\n        /* \"#utility.yul\":4018:4135   */\n      pop\n        /* \"#utility.yul\":4174:4176   */\n      0x20\n        /* \"#utility.yul\":4200:4267   */\n      tag_416\n        /* \"#utility.yul\":4259:4266   */\n      dup7\n        /* \"#utility.yul\":4250:4256   */\n      dup3\n        /* \"#utility.yul\":4239:4248   */\n      dup8\n        /* \"#utility.yul\":4235:4257   */\n      add\n        /* \"#utility.yul\":4200:4267   */\n      tag_343\n      jump\t// in\n    tag_416:\n        /* \"#utility.yul\":4190:4267   */\n      swap3\n      pop\n        /* \"#utility.yul\":4145:4277   */\n      pop\n        /* \"#utility.yul\":4316:4318   */\n      0x40\n        /* \"#utility.yul\":4342:4392   */\n      tag_417\n        /* \"#utility.yul\":4384:4391   */\n      dup7\n        /* \"#utility.yul\":4375:4381   */\n      dup3\n        /* \"#utility.yul\":4364:4373   */\n      dup8\n        /* \"#utility.yul\":4360:4382   */\n      add\n        /* \"#utility.yul\":4342:4392   */\n      tag_346\n      jump\t// in\n    tag_417:\n        /* \"#utility.yul\":4332:4392   */\n      swap2\n      pop\n        /* \"#utility.yul\":4287:4402   */\n      pop\n        /* \"#utility.yul\":3768:4409   */\n      swap3\n      pop\n      swap3\n      pop\n      swap3\n      jump\t// out\n        /* \"#utility.yul\":4415:4889   */\n    tag_55:\n        /* \"#utility.yul\":4483:4489   */\n      0x00\n        /* \"#utility.yul\":4491:4497   */\n      dup1\n        /* \"#utility.yul\":4540:4542   */\n      0x40\n        /* \"#utility.yul\":4528:4537   */\n      dup4\n        /* \"#utility.yul\":4519:4526   */\n      dup6\n        /* \"#utility.yul\":4515:4538   */\n      sub\n        /* \"#utility.yul\":4511:4543   */\n      slt\n        /* \"#utility.yul\":4508:4627   */\n      iszero\n      tag_419\n      jumpi\n        /* \"#utility.yul\":4546:4625   */\n      tag_420\n      tag_330\n      jump\t// in\n    tag_420:\n        /* \"#utility.yul\":4508:4627   */\n    tag_419:\n        /* \"#utility.yul\":4666:4667   */\n      0x00\n        /* \"#utility.yul\":4691:4744   */\n      tag_421\n        /* \"#utility.yul\":4736:4743   */\n      dup6\n        /* \"#utility.yul\":4727:4733   */\n      dup3\n        /* \"#utility.yul\":4716:4725   */\n      dup7\n        /* \"#utility.yul\":4712:4734   */\n      add\n        /* \"#utility.yul\":4691:4744   */\n      tag_333\n      jump\t// in\n    tag_421:\n        /* \"#utility.yul\":4681:4744   */\n      swap3\n      pop\n        /* \"#utility.yul\":4637:4754   */\n      pop\n        /* \"#utility.yul\":4793:4795   */\n      0x20\n        /* \"#utility.yul\":4819:4872   */\n      tag_422\n        /* \"#utility.yul\":4864:4871   */\n      dup6\n        /* \"#utility.yul\":4855:4861   */\n      dup3\n        /* \"#utility.yul\":4844:4853   */\n      dup7\n        /* \"#utility.yul\":4840:4862   */\n      add\n        /* \"#utility.yul\":4819:4872   */\n      tag_333\n      jump\t// in\n    tag_422:\n        /* \"#utility.yul\":4809:4872   */\n      swap2\n      pop\n        /* \"#utility.yul\":4764:4882   */\n      pop\n        /* \"#utility.yul\":4415:4889   */\n      swap3\n      pop\n      swap3\n      swap1\n      pop\n      jump\t// out\n        /* \"#utility.yul\":4895:5508   */\n    tag_70:\n        /* \"#utility.yul\":4969:4975   */\n      0x00\n        /* \"#utility.yul\":4977:4983   */\n      dup1\n        /* \"#utility.yul\":4985:4991   */\n      0x00\n        /* \"#utility.yul\":5034:5036   */\n      0x60\n        /* \"#utility.yul\":5022:5031   */\n      dup5\n        /* \"#utility.yul\":5013:5020   */\n      dup7\n        /* \"#utility.yul\":5009:5032   */\n      sub\n        /* \"#utility.yul\":5005:5037   */\n      slt\n        /* \"#utility.yul\":5002:5121   */\n      iszero\n      tag_424\n      jumpi\n        /* \"#utility.yul\":5040:5119   */\n      tag_425\n      tag_330\n      jump\t// in\n    tag_425:\n        /* \"#utility.yul\":5002:5121   */\n    tag_424:\n        /* \"#utility.yul\":5160:5161   */\n      0x00\n        /* \"#utility.yul\":5185:5238   */\n      tag_426\n        /* \"#utility.yul\":5230:5237   */\n      dup7\n        /* \"#utility.yul\":5221:5227   */\n      dup3\n        /* \"#utility.yul\":5210:5219   */\n      dup8\n        /* \"#utility.yul\":5206:5228   */\n      add\n        /* \"#utility.yul\":5185:5238   */\n      tag_333\n      jump\t// in\n    tag_426:\n        /* \"#utility.yul\":5175:5238   */\n      swap4\n      pop\n        /* \"#utility.yul\":5131:5248   */\n      pop\n        /* \"#utility.yul\":5287:5289   */\n      0x20\n        /* \"#utility.yul\":5313:5366   */\n      tag_427\n        /* \"#utility.yul\":5358:5365   */\n      dup7\n        /* \"#utility.yul\":5349:5355   */\n      dup3\n        /* \"#utility.yul\":5338:5347   */\n      dup8\n        /* \"#utility.yul\":5334:5356   */\n      add\n        /* \"#utility.yul\":5313:5366   */\n      tag_333\n      jump\t// in\n    tag_427:\n        /* \"#utility.yul\":5303:5366   */\n      swap3\n      pop\n        /* \"#utility.yul\":5258:5376   */\n      pop\n        /* \"#utility.yul\":5415:5417   */\n      0x40\n        /* \"#utility.yul\":5441:5491   */\n      tag_428\n        /* \"#utility.yul\":5483:5490   */\n      dup7\n        /* \"#utility.yul\":5474:5480   */\n      dup3\n        /* \"#utility.yul\":5463:5472   */\n      dup8\n        /* \"#utility.yul\":5459:5481   */\n      add\n        /* \"#utility.yul\":5441:5491   */\n      tag_346\n      jump\t// in\n    tag_428:\n        /* \"#utility.yul\":5431:5491   */\n      swap2\n      pop\n        /* \"#utility.yul\":5386:5501   */\n      pop\n        /* \"#utility.yul\":4895:5508   */\n      swap3\n      pop\n      swap3\n      pop\n      swap3\n      jump\t// out\n        /* \"#utility.yul\":5514:5764   */\n    tag_77:\n        /* \"#utility.yul\":5621:5625   */\n      0x00\n        /* \"#utility.yul\":5659:5661   */\n      0x20\n        /* \"#utility.yul\":5648:5657   */\n      dup3\n        /* \"#utility.yul\":5644:5662   */\n      add\n        /* \"#utility.yul\":5636:5662   */\n      swap1\n      pop\n        /* \"#utility.yul\":5672:5757   */\n      tag_430\n        /* \"#utility.yul\":5754:5755   */\n      0x00\n        /* \"#utility.yul\":5743:5752   */\n      dup4\n        /* \"#utility.yul\":5739:5756   */\n      add\n        /* \"#utility.yul\":5730:5736   */\n      dup5\n        /* \"#utility.yul\":5672:5757   */\n      tag_339\n      jump\t// in\n    tag_430:\n        /* \"#utility.yul\":5514:5764   */\n      swap3\n      swap2\n      pop\n      pop\n      jump\t// out\n        /* \"#utility.yul\":5770:5888   */\n    tag_347:\n        /* \"#utility.yul\":5857:5881   */\n      tag_432\n        /* \"#utility.yul\":5875:5880   */\n      dup2\n        /* \"#utility.yul\":5857:5881   */\n      tag_340\n      jump\t// in\n    tag_432:\n        /* \"#utility.yul\":5852:5855   */\n      dup3\n        /* \"#utility.yul\":5845:5882   */\n      mstore\n        /* \"#utility.yul\":5770:5888   */\n      pop\n      pop\n      jump\t// out\n        /* \"#utility.yul\":5894:6116   */\n    tag_81:\n        /* \"#utility.yul\":5987:5991   */\n      0x00\n        /* \"#utility.yul\":6025:6027   */\n      0x20\n        /* \"#utility.yul\":6014:6023   */\n      dup3\n        /* \"#utility.yul\":6010:6028   */\n      add\n        /* \"#utility.yul\":6002:6028   */\n      swap1\n      pop\n        /* \"#utility.yul\":6038:6109   */\n      tag_434\n        /* \"#utility.yul\":6106:6107   */\n      0x00\n        /* \"#utility.yul\":6095:6104   */\n      dup4\n        /* \"#utility.yul\":6091:6108   */\n      add\n        /* \"#utility.yul\":6082:6088   */\n      dup5\n        /* \"#utility.yul\":6038:6109   */\n      tag_347\n      jump\t// in\n    tag_434:\n        /* \"#utility.yul\":5894:6116   */\n      swap3\n      swap2\n      pop\n      pop\n      jump\t// out\n        /* \"#utility.yul\":6122:6244   */\n    tag_348:\n        /* \"#utility.yul\":6195:6219   */\n      tag_436\n        /* \"#utility.yul\":6213:6218   */\n      dup2\n        /* \"#utility.yul\":6195:6219   */\n      tag_340\n      jump\t// in\n    tag_436:\n        /* \"#utility.yul\":6188:6193   */\n      dup2\n        /* \"#utility.yul\":6185:6220   */\n      eq\n        /* \"#utility.yul\":6175:6238   */\n      tag_437\n      jumpi\n        /* \"#utility.yul\":6234:6235   */\n      0x00\n        /* \"#utility.yul\":6231:6232   */\n      dup1\n        /* \"#utility.yul\":6224:6236   */\n      revert\n        /* \"#utility.yul\":6175:6238   */\n    tag_437:\n        /* \"#utility.yul\":6122:6244   */\n      pop\n      jump\t// out\n        /* \"#utility.yul\":6250:6389   */\n    tag_349:\n        /* \"#utility.yul\":6296:6301   */\n      0x00\n        /* \"#utility.yul\":6334:6340   */\n      dup2\n        /* \"#utility.yul\":6321:6341   */\n      calldataload\n        /* \"#utility.yul\":6312:6341   */\n      swap1\n      pop\n        /* \"#utility.yul\":6350:6383   */\n      tag_439\n        /* \"#utility.yul\":6377:6382   */\n      dup2\n        /* \"#utility.yul\":6350:6383   */\n      tag_348\n      jump\t// in\n    tag_439:\n        /* \"#utility.yul\":6250:6389   */\n      swap3\n      swap2\n      pop\n      pop\n      jump\t// out\n        /* \"#utility.yul\":6395:6869   */\n    tag_87:\n        /* \"#utility.yul\":6463:6469   */\n      0x00\n        /* \"#utility.yul\":6471:6477   */\n      dup1\n        /* \"#utility.yul\":6520:6522   */\n      0x40\n        /* \"#utility.yul\":6508:6517   */\n      dup4\n        /* \"#utility.yul\":6499:6506   */\n      dup6\n        /* \"#utility.yul\":6495:6518   */\n      sub\n        /* \"#utility.yul\":6491:6523   */\n      slt\n        /* \"#utility.yul\":6488:6607   */\n      iszero\n      tag_441\n      jumpi\n        /* \"#utility.yul\":6526:6605   */\n      tag_442\n      tag_330\n      jump\t// in\n    tag_442:\n        /* \"#utility.yul\":6488:6607   */\n    tag_441:\n        /* \"#utility.yul\":6646:6647   */\n      0x00\n        /* \"#utility.yul\":6671:6724   */\n      tag_443\n        /* \"#utility.yul\":6716:6723   */\n      dup6\n        /* \"#utility.yul\":6707:6713   */\n      dup3\n        /* \"#utility.yul\":6696:6705   */\n      dup7\n        /* \"#utility.yul\":6692:6714   */\n      add\n        /* \"#utility.yul\":6671:6724   */\n      tag_333\n      jump\t// in\n    tag_443:\n        /* \"#utility.yul\":6661:6724   */\n      swap3\n      pop\n        /* \"#utility.yul\":6617:6734   */\n      pop\n        /* \"#utility.yul\":6773:6775   */\n      0x20\n        /* \"#utility.yul\":6799:6852   */\n      tag_444\n        /* \"#utility.yul\":6844:6851   */\n      dup6\n        /* \"#utility.yul\":6835:6841   */\n      dup3\n        /* \"#utility.yul\":6824:6833   */\n      dup7\n        /* \"#utility.yul\":6820:6842   */\n      add\n        /* \"#utility.yul\":6799:6852   */\n      tag_349\n      jump\t// in\n    tag_444:\n        /* \"#utility.yul\":6789:6852   */\n      swap2\n      pop\n        /* \"#utility.yul\":6744:6862   */\n      pop\n        /* \"#utility.yul\":6395:6869   */\n      swap3\n      pop\n      swap3\n      swap1\n      pop\n      jump\t// out\n        /* \"#utility.yul\":6875:7207   */\n    tag_90:\n        /* \"#utility.yul\":6996:7000   */\n      0x00\n        /* \"#utility.yul\":7034:7036   */\n      0x40\n        /* \"#utility.yul\":7023:7032   */\n      dup3\n        /* \"#utility.yul\":7019:7037   */\n      add\n        /* \"#utility.yul\":7011:7037   */\n      swap1\n      pop\n        /* \"#utility.yul\":7047:7118   */\n      tag_446\n        /* \"#utility.yul\":7115:7116   */\n      0x00\n        /* \"#utility.yul\":7104:7113   */\n      dup4\n        /* \"#utility.yul\":7100:7117   */\n      add\n        /* \"#utility.yul\":7091:7097   */\n      dup6\n        /* \"#utility.yul\":7047:7118   */\n      tag_328\n      jump\t// in\n    tag_446:\n        /* \"#utility.yul\":7128:7200   */\n      tag_447\n        /* \"#utility.yul\":7196:7198   */\n      0x20\n        /* \"#utility.yul\":7185:7194   */\n      dup4\n        /* \"#utility.yul\":7181:7199   */\n      add\n        /* \"#utility.yul\":7172:7178   */\n      dup5\n        /* \"#utility.yul\":7128:7200   */\n      tag_328\n      jump\t// in\n    tag_447:\n        /* \"#utility.yul\":6875:7207   */\n      swap4\n      swap3\n      pop\n      pop\n      pop\n      jump\t// out\n        /* \"#utility.yul\":7213:7542   */\n    tag_113:\n        /* \"#utility.yul\":7272:7278   */\n      0x00\n        /* \"#utility.yul\":7321:7323   */\n      0x20\n        /* \"#utility.yul\":7309:7318   */\n      dup3\n        /* \"#utility.yul\":7300:7307   */\n      dup5\n        /* \"#utility.yul\":7296:7319   */\n      sub\n        /* \"#utility.yul\":7292:7324   */\n      slt\n        /* \"#utility.yul\":7289:7408   */\n      iszero\n      tag_449\n      jumpi\n        /* \"#utility.yul\":7327:7406   */\n      tag_450\n      tag_330\n      jump\t// in\n    tag_450:\n        /* \"#utility.yul\":7289:7408   */\n    tag_449:\n        /* \"#utility.yul\":7447:7448   */\n      0x00\n        /* \"#utility.yul\":7472:7525   */\n      tag_451\n        /* \"#utility.yul\":7517:7524   */\n      dup5\n        /* \"#utility.yul\":7508:7514   */\n      dup3\n        /* \"#utility.yul\":7497:7506   */\n      dup6\n        /* \"#utility.yul\":7493:7515   */\n      add\n        /* \"#utility.yul\":7472:7525   */\n      tag_349\n      jump\t// in\n    tag_451:\n        /* \"#utility.yul\":7462:7525   */\n      swap2\n      pop\n        /* \"#utility.yul\":7418:7535   */\n      pop\n        /* \"#utility.yul\":7213:7542   */\n      swap3\n      swap2\n      pop\n      pop\n      jump\t// out\n        /* \"#utility.yul\":7548:7728   */\n    tag_350:\n        /* \"#utility.yul\":7596:7673   */\n      0x4e487b7100000000000000000000000000000000000000000000000000000000\n        /* \"#utility.yul\":7593:7594   */\n      0x00\n        /* \"#utility.yul\":7586:7674   */\n      mstore\n        /* \"#utility.yul\":7693:7697   */\n      0x11\n        /* \"#utility.yul\":7690:7691   */\n      0x04\n        /* \"#utility.yul\":7683:7698   */\n      mstore\n        /* \"#utility.yul\":7717:7721   */\n      0x24\n        /* \"#utility.yul\":7714:7715   */\n      0x00\n        /* \"#utility.yul\":7707:7722   */\n      revert\n        /* \"#utility.yul\":7734:7928   */\n    tag_135:\n        /* \"#utility.yul\":7774:7778   */\n      0x00\n        /* \"#utility.yul\":7794:7814   */\n      tag_454\n        /* \"#utility.yul\":7812:7813   */\n      dup3\n        /* \"#utility.yul\":7794:7814   */\n      tag_327\n      jump\t// in\n    tag_454:\n        /* \"#utility.yul\":7789:7814   */\n      swap2\n      pop\n        /* \"#utility.yul\":7828:7848   */\n      tag_455\n        /* \"#utility.yul\":7846:7847   */\n      dup4\n        /* \"#utility.yul\":7828:7848   */\n      tag_327\n      jump\t// in\n    tag_455:\n        /* \"#utility.yul\":7823:7848   */\n      swap3\n      pop\n        /* \"#utility.yul\":7872:7873   */\n      dup3\n        /* \"#utility.yul\":7869:7870   */\n      dup3\n        /* \"#utility.yul\":7865:7874   */\n      sub\n        /* \"#utility.yul\":7857:7874   */\n      swap1\n      pop\n        /* \"#utility.yul\":7896:7897   */\n      dup2\n        /* \"#utility.yul\":7890:7894   */\n      dup2\n        /* \"#utility.yul\":7887:7898   */\n      gt\n        /* \"#utility.yul\":7884:7921   */\n      iszero\n      tag_456\n      jumpi\n        /* \"#utility.yul\":7901:7919   */\n      tag_457\n      tag_350\n      jump\t// in\n    tag_457:\n        /* \"#utility.yul\":7884:7921   */\n    tag_456:\n        /* \"#utility.yul\":7734:7928   */\n      swap3\n      swap2\n      pop\n      pop\n      jump\t// out\n        /* \"#utility.yul\":7934:8114   */\n    tag_142:\n        /* \"#utility.yul\":7982:8059   */\n      0x4e487b7100000000000000000000000000000000000000000000000000000000\n        /* \"#utility.yul\":7979:7980   */\n      0x00\n        /* \"#utility.yul\":7972:8060   */\n      mstore\n        /* \"#utility.yul\":8079:8083   */\n      0x32\n        /* \"#utility.yul\":8076:8077   */\n      0x04\n        /* \"#utility.yul\":8069:8084   */\n      mstore\n        /* \"#utility.yul\":8103:8107   */\n      0x24\n        /* \"#utility.yul\":8100:8101   */\n      0x00\n        /* \"#utility.yul\":8093:8108   */\n      revert\n        /* \"#utility.yul\":8120:8289   */\n    tag_351:\n        /* \"#utility.yul\":8204:8215   */\n      0x00\n        /* \"#utility.yul\":8238:8244   */\n      dup3\n        /* \"#utility.yul\":8233:8236   */\n      dup3\n        /* \"#utility.yul\":8226:8245   */\n      mstore\n        /* \"#utility.yul\":8278:8282   */\n      0x20\n        /* \"#utility.yul\":8273:8276   */\n      dup3\n        /* \"#utility.yul\":8269:8283   */\n      add\n        /* \"#utility.yul\":8254:8283   */\n      swap1\n      pop\n        /* \"#utility.yul\":8120:8289   */\n      swap3\n      swap2\n      pop\n      pop\n      jump\t// out\n        /* \"#utility.yul\":8295:8524   */\n    tag_352:\n        /* \"#utility.yul\":8435:8469   */\n      0x77697468647261773a2063616e2774207769746864726177206d6f7265207468\n        /* \"#utility.yul\":8431:8432   */\n      0x00\n        /* \"#utility.yul\":8423:8429   */\n      dup3\n        /* \"#utility.yul\":8419:8433   */\n      add\n        /* \"#utility.yul\":8412:8470   */\n      mstore\n        /* \"#utility.yul\":8504:8516   */\n      0x616e206465706f73697400000000000000000000000000000000000000000000\n        /* \"#utility.yul\":8499:8501   */\n      0x20\n        /* \"#utility.yul\":8491:8497   */\n      dup3\n        /* \"#utility.yul\":8487:8502   */\n      add\n        /* \"#utility.yul\":8480:8517   */\n      mstore\n        /* \"#utility.yul\":8295:8524   */\n      pop\n      jump\t// out\n        /* \"#utility.yul\":8530:8896   */\n    tag_353:\n        /* \"#utility.yul\":8672:8675   */\n      0x00\n        /* \"#utility.yul\":8693:8760   */\n      tag_462\n        /* \"#utility.yul\":8757:8759   */\n      0x2a\n        /* \"#utility.yul\":8752:8755   */\n      dup4\n        /* \"#utility.yul\":8693:8760   */\n      tag_351\n      jump\t// in\n    tag_462:\n        /* \"#utility.yul\":8686:8760   */\n      swap2\n      pop\n        /* \"#utility.yul\":8769:8862   */\n      tag_463\n        /* \"#utility.yul\":8858:8861   */\n      dup3\n        /* \"#utility.yul\":8769:8862   */\n      tag_352\n      jump\t// in\n    tag_463:\n        /* \"#utility.yul\":8887:8889   */\n      0x40\n        /* \"#utility.yul\":8882:8885   */\n      dup3\n        /* \"#utility.yul\":8878:8890   */\n      add\n        /* \"#utility.yul\":8871:8890   */\n      swap1\n      pop\n        /* \"#utility.yul\":8530:8896   */\n      swap2\n      swap1\n      pop\n      jump\t// out\n        /* \"#utility.yul\":8902:9321   */\n    tag_146:\n        /* \"#utility.yul\":9068:9072   */\n      0x00\n        /* \"#utility.yul\":9106:9108   */\n      0x20\n        /* \"#utility.yul\":9095:9104   */\n      dup3\n        /* \"#utility.yul\":9091:9109   */\n      add\n        /* \"#utility.yul\":9083:9109   */\n      swap1\n      pop\n        /* \"#utility.yul\":9155:9164   */\n      dup2\n        /* \"#utility.yul\":9149:9153   */\n      dup2\n        /* \"#utility.yul\":9145:9165   */\n      sub\n        /* \"#utility.yul\":9141:9142   */\n      0x00\n        /* \"#utility.yul\":9130:9139   */\n      dup4\n        /* \"#utility.yul\":9126:9143   */\n      add\n        /* \"#utility.yul\":9119:9166   */\n      mstore\n        /* \"#utility.yul\":9183:9314   */\n      tag_465\n        /* \"#utility.yul\":9309:9313   */\n      dup2\n        /* \"#utility.yul\":9183:9314   */\n      tag_353\n      jump\t// in\n    tag_465:\n        /* \"#utility.yul\":9175:9314   */\n      swap1\n      pop\n        /* \"#utility.yul\":8902:9321   */\n      swap2\n      swap1\n      pop\n      jump\t// out\n        /* \"#utility.yul\":9327:9548   */\n    tag_354:\n        /* \"#utility.yul\":9467:9501   */\n      0x66756e643a20746f6f206c6174652c20746865206661726d20697320636c6f73\n        /* \"#utility.yul\":9463:9464   */\n      0x00\n        /* \"#utility.yul\":9455:9461   */\n      dup3\n        /* \"#utility.yul\":9451:9465   */\n      add\n        /* \"#utility.yul\":9444:9502   */\n      mstore\n        /* \"#utility.yul\":9536:9540   */\n      0x6564000000000000000000000000000000000000000000000000000000000000\n        /* \"#utility.yul\":9531:9533   */\n      0x20\n        /* \"#utility.yul\":9523:9529   */\n      dup3\n        /* \"#utility.yul\":9519:9534   */\n      add\n        /* \"#utility.yul\":9512:9541   */\n      mstore\n        /* \"#utility.yul\":9327:9548   */\n      pop\n      jump\t// out\n        /* \"#utility.yul\":9554:9920   */\n    tag_355:\n        /* \"#utility.yul\":9696:9699   */\n      0x00\n        /* \"#utility.yul\":9717:9784   */\n      tag_468\n        /* \"#utility.yul\":9781:9783   */\n      0x22\n        /* \"#utility.yul\":9776:9779   */\n      dup4\n        /* \"#utility.yul\":9717:9784   */\n      tag_351\n      jump\t// in\n    tag_468:\n        /* \"#utility.yul\":9710:9784   */\n      swap2\n      pop\n        /* \"#utility.yul\":9793:9886   */\n      tag_469\n        /* \"#utility.yul\":9882:9885   */\n      dup3\n        /* \"#utility.yul\":9793:9886   */\n      tag_354\n      jump\t// in\n    tag_469:\n        /* \"#utility.yul\":9911:9913   */\n      0x40\n        /* \"#utility.yul\":9906:9909   */\n      dup3\n        /* \"#utility.yul\":9902:9914   */\n      add\n        /* \"#utility.yul\":9895:9914   */\n      swap1\n      pop\n        /* \"#utility.yul\":9554:9920   */\n      swap2\n      swap1\n      pop\n      jump\t// out\n        /* \"#utility.yul\":9926:10345   */\n    tag_208:\n        /* \"#utility.yul\":10092:10096   */\n      0x00\n        /* \"#utility.yul\":10130:10132   */\n      0x20\n        /* \"#utility.yul\":10119:10128   */\n      dup3\n        /* \"#utility.yul\":10115:10133   */\n      add\n        /* \"#utility.yul\":10107:10133   */\n      swap1\n      pop\n        /* \"#utility.yul\":10179:10188   */\n      dup2\n        /* \"#utility.yul\":10173:10177   */\n      dup2\n        /* \"#utility.yul\":10169:10189   */\n      sub\n        /* \"#utility.yul\":10165:10166   */\n      0x00\n        /* \"#utility.yul\":10154:10163   */\n      dup4\n        /* \"#utility.yul\":10150:10167   */\n      add\n        /* \"#utility.yul\":10143:10190   */\n      mstore\n        /* \"#utility.yul\":10207:10338   */\n      tag_471\n        /* \"#utility.yul\":10333:10337   */\n      dup2\n        /* \"#utility.yul\":10207:10338   */\n      tag_355\n      jump\t// in\n    tag_471:\n        /* \"#utility.yul\":10199:10338   */\n      swap1\n      pop\n        /* \"#utility.yul\":9926:10345   */\n      swap2\n      swap1\n      pop\n      jump\t// out\n        /* \"#utility.yul\":10351:10542   */\n    tag_213:\n        /* \"#utility.yul\":10391:10394   */\n      0x00\n        /* \"#utility.yul\":10410:10430   */\n      tag_473\n        /* \"#utility.yul\":10428:10429   */\n      dup3\n        /* \"#utility.yul\":10410:10430   */\n      tag_327\n      jump\t// in\n    tag_473:\n        /* \"#utility.yul\":10405:10430   */\n      swap2\n      pop\n        /* \"#utility.yul\":10444:10464   */\n      tag_474\n        /* \"#utility.yul\":10462:10463   */\n      dup4\n        /* \"#utility.yul\":10444:10464   */\n      tag_327\n      jump\t// in\n    tag_474:\n        /* \"#utility.yul\":10439:10464   */\n      swap3\n      pop\n        /* \"#utility.yul\":10487:10488   */\n      dup3\n        /* \"#utility.yul\":10484:10485   */\n      dup3\n        /* \"#utility.yul\":10480:10489   */\n      add\n        /* \"#utility.yul\":10473:10489   */\n      swap1\n      pop\n        /* \"#utility.yul\":10508:10511   */\n      dup1\n        /* \"#utility.yul\":10505:10506   */\n      dup3\n        /* \"#utility.yul\":10502:10512   */\n      gt\n        /* \"#utility.yul\":10499:10535   */\n      iszero\n      tag_475\n      jumpi\n        /* \"#utility.yul\":10515:10533   */\n      tag_476\n      tag_350\n      jump\t// in\n    tag_476:\n        /* \"#utility.yul\":10499:10535   */\n    tag_475:\n        /* \"#utility.yul\":10351:10542   */\n      swap3\n      swap2\n      pop\n      pop\n      jump\t// out\n        /* \"#utility.yul\":10548:10728   */\n    tag_265:\n        /* \"#utility.yul\":10596:10673   */\n      0x4e487b7100000000000000000000000000000000000000000000000000000000\n        /* \"#utility.yul\":10593:10594   */\n      0x00\n        /* \"#utility.yul\":10586:10674   */\n      mstore\n        /* \"#utility.yul\":10693:10697   */\n      0x12\n        /* \"#utility.yul\":10690:10691   */\n      0x04\n        /* \"#utility.yul\":10683:10698   */\n      mstore\n        /* \"#utility.yul\":10717:10721   */\n      0x24\n        /* \"#utility.yul\":10714:10715   */\n      0x00\n        /* \"#utility.yul\":10707:10722   */\n      revert\n        /* \"#utility.yul\":10734:11066   */\n    tag_271:\n        /* \"#utility.yul\":10855:10859   */\n      0x00\n        /* \"#utility.yul\":10893:10895   */\n      0x40\n        /* \"#utility.yul\":10882:10891   */\n      dup3\n        /* \"#utility.yul\":10878:10896   */\n      add\n        /* \"#utility.yul\":10870:10896   */\n      swap1\n      pop\n        /* \"#utility.yul\":10906:10977   */\n      tag_479\n        /* \"#utility.yul\":10974:10975   */\n      0x00\n        /* \"#utility.yul\":10963:10972   */\n      dup4\n        /* \"#utility.yul\":10959:10976   */\n      add\n        /* \"#utility.yul\":10950:10956   */\n      dup6\n        /* \"#utility.yul\":10906:10977   */\n      tag_347\n      jump\t// in\n    tag_479:\n        /* \"#utility.yul\":10987:11059   */\n      tag_480\n        /* \"#utility.yul\":11055:11057   */\n      0x20\n        /* \"#utility.yul\":11044:11053   */\n      dup4\n        /* \"#utility.yul\":11040:11058   */\n      add\n        /* \"#utility.yul\":11031:11037   */\n      dup5\n        /* \"#utility.yul\":10987:11059   */\n      tag_328\n      jump\t// in\n    tag_480:\n        /* \"#utility.yul\":10734:11066   */\n      swap4\n      swap3\n      pop\n      pop\n      pop\n      jump\t// out\n        /* \"#utility.yul\":11072:11209   */\n    tag_356:\n        /* \"#utility.yul\":11126:11131   */\n      0x00\n        /* \"#utility.yul\":11157:11163   */\n      dup2\n        /* \"#utility.yul\":11151:11164   */\n      mload\n        /* \"#utility.yul\":11142:11164   */\n      swap1\n      pop\n        /* \"#utility.yul\":11173:11203   */\n      tag_482\n        /* \"#utility.yul\":11197:11202   */\n      dup2\n        /* \"#utility.yul\":11173:11203   */\n      tag_345\n      jump\t// in\n    tag_482:\n        /* \"#utility.yul\":11072:11209   */\n      swap3\n      swap2\n      pop\n      pop\n      jump\t// out\n        /* \"#utility.yul\":11215:11560   */\n    tag_275:\n        /* \"#utility.yul\":11282:11288   */\n      0x00\n        /* \"#utility.yul\":11331:11333   */\n      0x20\n        /* \"#utility.yul\":11319:11328   */\n      dup3\n        /* \"#utility.yul\":11310:11317   */\n      dup5\n        /* \"#utility.yul\":11306:11329   */\n      sub\n        /* \"#utility.yul\":11302:11334   */\n      slt\n        /* \"#utility.yul\":11299:11418   */\n      iszero\n      tag_484\n      jumpi\n        /* \"#utility.yul\":11337:11416   */\n      tag_485\n      tag_330\n      jump\t// in\n    tag_485:\n        /* \"#utility.yul\":11299:11418   */\n    tag_484:\n        /* \"#utility.yul\":11457:11458   */\n      0x00\n        /* \"#utility.yul\":11482:11543   */\n      tag_486\n        /* \"#utility.yul\":11535:11542   */\n      dup5\n        /* \"#utility.yul\":11526:11532   */\n      dup3\n        /* \"#utility.yul\":11515:11524   */\n      dup6\n        /* \"#utility.yul\":11511:11533   */\n      add\n        /* \"#utility.yul\":11482:11543   */\n      tag_356\n      jump\t// in\n    tag_486:\n        /* \"#utility.yul\":11472:11543   */\n      swap2\n      pop\n        /* \"#utility.yul\":11428:11553   */\n      pop\n        /* \"#utility.yul\":11215:11560   */\n      swap3\n      swap2\n      pop\n      pop\n      jump\t// out\n        /* \"#utility.yul\":11566:12008   */\n    tag_294:\n        /* \"#utility.yul\":11715:11719   */\n      0x00\n        /* \"#utility.yul\":11753:11755   */\n      0x60\n        /* \"#utility.yul\":11742:11751   */\n      dup3\n        /* \"#utility.yul\":11738:11756   */\n      add\n        /* \"#utility.yul\":11730:11756   */\n      swap1\n      pop\n        /* \"#utility.yul\":11766:11837   */\n      tag_488\n        /* \"#utility.yul\":11834:11835   */\n      0x00\n        /* \"#utility.yul\":11823:11832   */\n      dup4\n        /* \"#utility.yul\":11819:11836   */\n      add\n        /* \"#utility.yul\":11810:11816   */\n      dup7\n        /* \"#utility.yul\":11766:11837   */\n      tag_347\n      jump\t// in\n    tag_488:\n        /* \"#utility.yul\":11847:11919   */\n      tag_489\n        /* \"#utility.yul\":11915:11917   */\n      0x20\n        /* \"#utility.yul\":11904:11913   */\n      dup4\n        /* \"#utility.yul\":11900:11918   */\n      add\n        /* \"#utility.yul\":11891:11897   */\n      dup6\n        /* \"#utility.yul\":11847:11919   */\n      tag_347\n      jump\t// in\n    tag_489:\n        /* \"#utility.yul\":11929:12001   */\n      tag_490\n        /* \"#utility.yul\":11997:11999   */\n      0x40\n        /* \"#utility.yul\":11986:11995   */\n      dup4\n        /* \"#utility.yul\":11982:12000   */\n      add\n        /* \"#utility.yul\":11973:11979   */\n      dup5\n        /* \"#utility.yul\":11929:12001   */\n      tag_328\n      jump\t// in\n    tag_490:\n        /* \"#utility.yul\":11566:12008   */\n      swap5\n      swap4\n      pop\n      pop\n      pop\n      pop\n      jump\t// out\n        /* \"#utility.yul\":12014:12112   */\n    tag_357:\n        /* \"#utility.yul\":12065:12071   */\n      0x00\n        /* \"#utility.yul\":12099:12104   */\n      dup2\n        /* \"#utility.yul\":12093:12105   */\n      mload\n        /* \"#utility.yul\":12083:12105   */\n      swap1\n      pop\n        /* \"#utility.yul\":12014:12112   */\n      swap2\n      swap1\n      pop\n      jump\t// out\n        /* \"#utility.yul\":12118:12265   */\n    tag_358:\n        /* \"#utility.yul\":12219:12230   */\n      0x00\n        /* \"#utility.yul\":12256:12259   */\n      dup2\n        /* \"#utility.yul\":12241:12259   */\n      swap1\n      pop\n        /* \"#utility.yul\":12118:12265   */\n      swap3\n      swap2\n      pop\n      pop\n      jump\t// out\n        /* \"#utility.yul\":12271:12517   */\n    tag_359:\n        /* \"#utility.yul\":12352:12353   */\n      0x00\n        /* \"#utility.yul\":12362:12475   */\n    tag_494:\n        /* \"#utility.yul\":12376:12382   */\n      dup4\n        /* \"#utility.yul\":12373:12374   */\n      dup2\n        /* \"#utility.yul\":12370:12383   */\n      lt\n        /* \"#utility.yul\":12362:12475   */\n      iszero\n      tag_496\n      jumpi\n        /* \"#utility.yul\":12461:12462   */\n      dup1\n        /* \"#utility.yul\":12456:12459   */\n      dup3\n        /* \"#utility.yul\":12452:12463   */\n      add\n        /* \"#utility.yul\":12446:12464   */\n      mload\n        /* \"#utility.yul\":12442:12443   */\n      dup2\n        /* \"#utility.yul\":12437:12440   */\n      dup5\n        /* \"#utility.yul\":12433:12444   */\n      add\n        /* \"#utility.yul\":12426:12465   */\n      mstore\n        /* \"#utility.yul\":12398:12400   */\n      0x20\n        /* \"#utility.yul\":12395:12396   */\n      dup2\n        /* \"#utility.yul\":12391:12401   */\n      add\n        /* \"#utility.yul\":12386:12401   */\n      swap1\n      pop\n        /* \"#utility.yul\":12362:12475   */\n      jump(tag_494)\n    tag_496:\n        /* \"#utility.yul\":12509:12510   */\n      0x00\n        /* \"#utility.yul\":12500:12506   */\n      dup5\n        /* \"#utility.yul\":12495:12498   */\n      dup5\n        /* \"#utility.yul\":12491:12507   */\n      add\n        /* \"#utility.yul\":12484:12511   */\n      mstore\n        /* \"#utility.yul\":12333:12517   */\n      pop\n        /* \"#utility.yul\":12271:12517   */\n      pop\n      pop\n      pop\n      jump\t// out\n        /* \"#utility.yul\":12523:12909   */\n    tag_360:\n        /* \"#utility.yul\":12627:12630   */\n      0x00\n        /* \"#utility.yul\":12655:12693   */\n      tag_498\n        /* \"#utility.yul\":12687:12692   */\n      dup3\n        /* \"#utility.yul\":12655:12693   */\n      tag_357\n      jump\t// in\n    tag_498:\n        /* \"#utility.yul\":12709:12797   */\n      tag_499\n        /* \"#utility.yul\":12790:12796   */\n      dup2\n        /* \"#utility.yul\":12785:12788   */\n      dup6\n        /* \"#utility.yul\":12709:12797   */\n      tag_358\n      jump\t// in\n    tag_499:\n        /* \"#utility.yul\":12702:12797   */\n      swap4\n      pop\n        /* \"#utility.yul\":12806:12871   */\n      tag_500\n        /* \"#utility.yul\":12864:12870   */\n      dup2\n        /* \"#utility.yul\":12859:12862   */\n      dup6\n        /* \"#utility.yul\":12852:12856   */\n      0x20\n        /* \"#utility.yul\":12845:12850   */\n      dup7\n        /* \"#utility.yul\":12841:12857   */\n      add\n        /* \"#utility.yul\":12806:12871   */\n      tag_359\n      jump\t// in\n    tag_500:\n        /* \"#utility.yul\":12896:12902   */\n      dup1\n        /* \"#utility.yul\":12891:12894   */\n      dup5\n        /* \"#utility.yul\":12887:12903   */\n      add\n        /* \"#utility.yul\":12880:12903   */\n      swap2\n      pop\n        /* \"#utility.yul\":12631:12909   */\n      pop\n        /* \"#utility.yul\":12523:12909   */\n      swap3\n      swap2\n      pop\n      pop\n      jump\t// out\n        /* \"#utility.yul\":12915:13186   */\n    tag_310:\n        /* \"#utility.yul\":13045:13048   */\n      0x00\n        /* \"#utility.yul\":13067:13160   */\n      tag_502\n        /* \"#utility.yul\":13156:13159   */\n      dup3\n        /* \"#utility.yul\":13147:13153   */\n      dup5\n        /* \"#utility.yul\":13067:13160   */\n      tag_360\n      jump\t// in\n    tag_502:\n        /* \"#utility.yul\":13060:13160   */\n      swap2\n      pop\n        /* \"#utility.yul\":13177:13180   */\n      dup2\n        /* \"#utility.yul\":13170:13180   */\n      swap1\n      pop\n        /* \"#utility.yul\":12915:13186   */\n      swap3\n      swap2\n      pop\n      pop\n      jump\t// out\n\n    auxdata: 0xa26469706673582212203852f52e7b5a406fec373a239aa07d0230e1a99afacb40ddd9a7e2ed48e9882564736f6c63430008180033\n}\n",
				"bytecode": {
					"linkReferences": {},
					"object": "608060405234801562000010575f80fd5b50604051620023153803806200231583398181016040528101906200003691906200028b565b335f73ffffffffffffffffffffffffffffffffffffffff168173ffffffffffffffffffffffffffffffffffffffff1603620000aa575f6040517f1e4fbdf7000000000000000000000000000000000000000000000000000000008152600401620000a19190620002f5565b60405180910390fd5b620000bb816200011a60201b60201c565b508260015f6101000a81548173ffffffffffffffffffffffffffffffffffffffff021916908373ffffffffffffffffffffffffffffffffffffffff16021790555081600381905550806008819055508060098190555050505062000310565b5f805f9054906101000a900473ffffffffffffffffffffffffffffffffffffffff169050815f806101000a81548173ffffffffffffffffffffffffffffffffffffffff021916908373ffffffffffffffffffffffffffffffffffffffff1602179055508173ffffffffffffffffffffffffffffffffffffffff168173ffffffffffffffffffffffffffffffffffffffff167f8be0079c531659141344cd1fd0a4f28419497f9722a3daafe3b4186f6b6457e060405160405180910390a35050565b5f80fd5b5f73ffffffffffffffffffffffffffffffffffffffff82169050919050565b5f6200020a82620001df565b9050919050565b5f6200021d82620001fe565b9050919050565b6200022f8162000211565b81146200023a575f80fd5b50565b5f815190506200024d8162000224565b92915050565b5f819050919050565b620002678162000253565b811462000272575f80fd5b50565b5f8151905062000285816200025c565b92915050565b5f805f60608486031215620002a557620002a4620001db565b5b5f620002b4868287016200023d565b9350506020620002c78682870162000275565b9250506040620002da8682870162000275565b9150509250925092565b620002ef81620001fe565b82525050565b5f6020820190506200030a5f830184620002e4565b92915050565b611ff7806200031e5f395ff3fe608060405234801561000f575f80fd5b5060043610610156575f3560e01c8063715018a6116100c1578063a85adeab1161007a578063a85adeab1461037f578063ca1d209d1461039d578063e2bbb158146103b9578063e4c75c27146103d5578063e6fd48bc14610405578063f2fde38b1461042357610156565b8063715018a6146102ba578063785e9e86146102c45780638da5cb5b146102e25780638f10369a1461030057806393f1a40b1461031e578063a23831061461034f57610156565b8063441a3e7011610113578063441a3e701461022257806351eb05a61461023e5780635312ea8e1461025a5780635c76ca2d14610276578063630b5ba11461029457806364482f791461029e57610156565b8063081e3eda1461015a5780630e15561a146101785780631526fe271461019657806317caf6f1146101ca5780631eaaa045146101e85780633f90916a14610204575b5f80fd5b61016261043f565b60405161016f91906118f4565b60405180910390f35b61018061044b565b60405161018d91906118f4565b60405180910390f35b6101b060048036038101906101ab919061193b565b610451565b6040516101c19594939291906119e0565b60405180910390f35b6101d26104b1565b6040516101df91906118f4565b60405180910390f35b61020260048036038101906101fd9190611ab2565b6104b7565b005b61020c6105dd565b60405161021991906118f4565b60405180910390f35b61023c60048036038101906102379190611b02565b61064e565b005b6102586004803603810190610253919061193b565b610863565b005b610274600480360381019061026f919061193b565b61096d565b005b61027e610b09565b60405161028b91906118f4565b60405180910390f35b61029c610b0f565b005b6102b860048036038101906102b39190611b40565b610b3a565b005b6102c2610be1565b005b6102cc610bf4565b6040516102d99190611b90565b60405180910390f35b6102ea610c19565b6040516102f79190611bb8565b60405180910390f35b610308610c40565b60405161031591906118f4565b60405180910390f35b61033860048036038101906103339190611bfb565b610c46565b604051610346929190611c39565b60405180910390f35b61036960048036038101906103649190611bfb565b610c71565b60405161037691906118f4565b60405180910390f35b610387610cce565b60405161039491906118f4565b60405180910390f35b6103b760048036038101906103b2919061193b565b610cd4565b005b6103d360048036038101906103ce9190611b02565b610dbb565b005b6103ef60048036038101906103ea9190611bfb565b610f98565b6040516103fc91906118f4565b60405180910390f35b61040d611133565b60405161041a91906118f4565b60405180910390f35b61043d60048036038101906104389190611c60565b611139565b005b5f600580549050905090565b60045481565b60058181548110610460575f80fd5b905f5260205f2090600502015f91509050805f015f9054906101000a900473ffffffffffffffffffffffffffffffffffffffff16908060010154908060020154908060030154908060040154905085565b60075481565b6104bf6111bd565b80156104ce576104cd610b0f565b5b5f60085442116104e0576008546104e2565b425b90506104f98460075461124490919063ffffffff16565b905060075f82919050555060056040518060a001604052808573ffffffffffffffffffffffffffffffffffffffff1681526020018681526020018381526020015f81526020015f815250908060018154018082558091505060019003905f5260205f2090600502015f909190919091505f820151815f015f6101000a81548173ffffffffffffffffffffffffffffffffffffffff021916908373ffffffffffffffffffffffffffffffffffffffff16021790555060208201518160010155604082015181600201556060820151816003015560808201518160040155505050505050565b5f60085442116105ef575f905061064b565b5f600954421061060157600954610603565b425b90505f610628600854836106179190611cb8565b60035461127090919063ffffffff16565b9150505f610641600254836112be90919063ffffffff16565b9150508093505050505b90565b5f6005838154811061066357610662611ceb565b5b905f5260205f20906005020190505f60065f8581526020019081526020015f205f3373ffffffffffffffffffffffffffffffffffffffff1673ffffffffffffffffffffffffffffffffffffffff1681526020019081526020015f20905082815f01541015610706576040517f08c379a00000000000000000000000000000000000000000000000000000000081526004016106fd90611d98565b60405180910390fd5b61070f84610863565b5f61072a8360030154835f015461127090919063ffffffff16565b9150505f6107458360010154836112be90919063ffffffff16565b91505061075233826112e4565b61076885845f01546112be90919063ffffffff16565b9050835f015f82919050555061078e8460030154845f015461127090919063ffffffff16565b9050836001015f8291905055506107e83386865f015f9054906101000a900473ffffffffffffffffffffffffffffffffffffffff1673ffffffffffffffffffffffffffffffffffffffff1661139d9092919063ffffffff16565b6107ff8585600401546112be90919063ffffffff16565b9050846004015f829190505550853373ffffffffffffffffffffffffffffffffffffffff167ff279e6a1f5e320cca91135676d9cb6e44ca8a08c0b88342bcdb1144f6511b5688760405161085391906118f4565b60405180910390a3505050505050565b5f6005828154811061087857610877611ceb565b5b905f5260205f20906005020190505f60095442106108985760095461089a565b425b9050816002015481116108ae57505061096a565b5f826004015490505f81036108ce5781836002018190555050505061096a565b5f6108e68460020154846112be90919063ffffffff16565b9150505f6108ff6003548361127090919063ffffffff16565b91505061091d85600101546007548361141c9092919063ffffffff16565b90505f610933848361151b90919063ffffffff16565b91505061094d81876003015461124490919063ffffffff16565b9050866003015f8291905055504286600201819055505050505050505b50565b5f6005828154811061098257610981611ceb565b5b905f5260205f20906005020190505f60065f8481526020019081526020015f205f3373ffffffffffffffffffffffffffffffffffffffff1673ffffffffffffffffffffffffffffffffffffffff1681526020019081526020015f209050610a2f33825f0154845f015f9054906101000a900473ffffffffffffffffffffffffffffffffffffffff1673ffffffffffffffffffffffffffffffffffffffff1661139d9092919063ffffffff16565b610a49815f015483600401546112be90919063ffffffff16565b9050826004015f829190505550823373ffffffffffffffffffffffffffffffffffffffff167fbb757047c2b5f3974fe26b7c10f732e7bce710b0952a71082702781e62ae0595835f0154604051610aa091906118f4565b60405180910390a360065f8481526020019081526020015f205f3373ffffffffffffffffffffffffffffffffffffffff1673ffffffffffffffffffffffffffffffffffffffff1681526020019081526020015f205f8082015f9055600182015f90555050505050565b60025481565b5f60058054905090505f5b81811015610b3657610b2b81610863565b806001019050610b1a565b5050565b610b426111bd565b8015610b5157610b50610b0f565b5b610b8960058481548110610b6857610b67611ceb565b5b905f5260205f209060050201600101546007546112be90919063ffffffff16565b905060075f829190505550610ba98260075461124490919063ffffffff16565b905060075f8291905055508160058481548110610bc957610bc8611ceb565b5b905f5260205f20906005020160010181905550505050565b610be96111bd565b610bf25f61154e565b565b60015f9054906101000a900473ffffffffffffffffffffffffffffffffffffffff1681565b5f805f9054906101000a900473ffffffffffffffffffffffffffffffffffffffff16905090565b60035481565b6006602052815f5260405f20602052805f5260405f205f9150915050805f0154908060010154905082565b5f8060065f8581526020019081526020015f205f8473ffffffffffffffffffffffffffffffffffffffff1673ffffffffffffffffffffffffffffffffffffffff1681526020019081526020015f209050805f015491505092915050565b60095481565b6009544210610d18576040517f08c379a0000000000000000000000000000000000000000000000000000000008152600401610d0f90611e26565b60405180910390fd5b610d6633308360015f9054906101000a900473ffffffffffffffffffffffffffffffffffffffff1673ffffffffffffffffffffffffffffffffffffffff1661160f909392919063ffffffff16565b5f610d7c6003548361151b90919063ffffffff16565b9150508060095f828254610d909190611e44565b92505081905550610dac8260045461124490919063ffffffff16565b905060045f8291905055505050565b5f60058381548110610dd057610dcf611ceb565b5b905f5260205f20906005020190505f60065f8581526020019081526020015f205f3373ffffffffffffffffffffffffffffffffffffffff1673ffffffffffffffffffffffffffffffffffffffff1681526020019081526020015f209050610e3684610863565b5f815f01541115610e87575f610e5c8360030154835f015461127090919063ffffffff16565b9150505f610e778360010154836112be90919063ffffffff16565b915050610e8433826112e4565b50505b610ed6333085855f015f9054906101000a900473ffffffffffffffffffffffffffffffffffffffff1673ffffffffffffffffffffffffffffffffffffffff1661160f909392919063ffffffff16565b610eed83836004015461124490919063ffffffff16565b9050826004015f829190505550610f1083825f015461124490919063ffffffff16565b9050815f015f829190505550610f368260030154825f015461127090919063ffffffff16565b9050816001015f829190505550833373ffffffffffffffffffffffffffffffffffffffff167f90890809c654f11d6e72a28fa60149770a0d11ec6c92319d6ceb2bb0a4ea1a1585604051610f8a91906118f4565b60405180910390a350505050565b5f8060058481548110610fae57610fad611ceb565b5b905f5260205f20906005020190505f60065f8681526020019081526020015f205f8573ffffffffffffffffffffffffffffffffffffffff1673ffffffffffffffffffffffffffffffffffffffff1681526020019081526020015f2090505f826003015490505f825f015490505f8460040154905084600201544211801561103557505f8114155b156110f1575f600954421061104c5760095461104e565b425b90505f6009548760020154106110665760095461106c565b86600201545b90505f61108282846112be90919063ffffffff16565b9150505f61109b6003548361127090919063ffffffff16565b9150506110b989600101546007548361141c9092919063ffffffff16565b90505f6110cf868361151b90919063ffffffff16565b9150506110e5818961124490919063ffffffff16565b90508098505050505050505b5f611105848461127090919063ffffffff16565b9150505f6111208660010154836112be90919063ffffffff16565b9150508097505050505050505092915050565b60085481565b6111416111bd565b5f73ffffffffffffffffffffffffffffffffffffffff168173ffffffffffffffffffffffffffffffffffffffff16036111b1575f6040517f1e4fbdf70000000000000000000000000000000000000000000000000000000081526004016111a89190611bb8565b60405180910390fd5b6111ba8161154e565b50565b6111c5611691565b73ffffffffffffffffffffffffffffffffffffffff166111e3610c19565b73ffffffffffffffffffffffffffffffffffffffff161461124257611206611691565b6040517f118cdaa70000000000000000000000000000000000000000000000000000000081526004016112399190611bb8565b60405180910390fd5b565b5f805f838501905084811015611260575f809250925050611269565b60018192509250505b9250929050565b5f805f84036112855760015f915091506112b7565b5f83850290508385828161129c5761129b611e77565b5b04146112ae575f8092509250506112b7565b60018192509250505b9250929050565b5f80838311156112d3575f80915091506112dd565b6001838503915091505b9250929050565b60015f9054906101000a900473ffffffffffffffffffffffffffffffffffffffff1673ffffffffffffffffffffffffffffffffffffffff1663a9059cbb83836040518363ffffffff1660e01b8152600401611340929190611ea4565b6020604051808303815f875af115801561135c573d5f803e3d5ffd5b505050506040513d601f19601f820116820180604052508101906113809190611edf565b508060025f8282546113929190611e44565b925050819055505050565b611417838473ffffffffffffffffffffffffffffffffffffffff1663a9059cbb85856040516024016113d0929190611ea4565b604051602081830303815290604052915060e01b6020820180517bffffffffffffffffffffffffffffffffffffffffffffffffffffffff8381831617835250505050611698565b505050565b5f8083850290505f8019858709828110838203039150505f81036114545783828161144a57611449611e77565b5b0492505050611514565b80841161148d576040517f227bc15300000000000000000000000000000000000000000000000000000000815260040160405180910390fd5b5f8486880990508281118203915080830392505f855f038616905080860495508084049350600181825f0304019050808302841793505f600287600302189050808702600203810290508087026002038102905080870260020381029050808702600203810290508087026002038102905080870260020381029050808502955050505050505b9392505050565b5f805f830361152f575f8091509150611547565b600183858161154157611540611e77565b5b04915091505b9250929050565b5f805f9054906101000a900473ffffffffffffffffffffffffffffffffffffffff169050815f806101000a81548173ffffffffffffffffffffffffffffffffffffffff021916908373ffffffffffffffffffffffffffffffffffffffff1602179055508173ffffffffffffffffffffffffffffffffffffffff168173ffffffffffffffffffffffffffffffffffffffff167f8be0079c531659141344cd1fd0a4f28419497f9722a3daafe3b4186f6b6457e060405160405180910390a35050565b61168b848573ffffffffffffffffffffffffffffffffffffffff166323b872dd86868660405160240161164493929190611f0a565b604051602081830303815290604052915060e01b6020820180517bffffffffffffffffffffffffffffffffffffffffffffffffffffffff8381831617835250505050611698565b50505050565b5f33905090565b5f6116c2828473ffffffffffffffffffffffffffffffffffffffff1661172d90919063ffffffff16565b90505f8151141580156116e65750808060200190518101906116e49190611edf565b155b1561172857826040517f5274afe700000000000000000000000000000000000000000000000000000000815260040161171f9190611bb8565b60405180910390fd5b505050565b606061173a83835f611742565b905092915050565b60608147101561178957306040517fcd7860590000000000000000000000000000000000000000000000000000000081526004016117809190611bb8565b60405180910390fd5b5f808573ffffffffffffffffffffffffffffffffffffffff1684866040516117b19190611fab565b5f6040518083038185875af1925050503d805f81146117eb576040519150601f19603f3d011682016040523d82523d5f602084013e6117f0565b606091505b509150915061180086838361180b565b925050509392505050565b6060826118205761181b82611898565b611890565b5f825114801561184657505f8473ffffffffffffffffffffffffffffffffffffffff163b145b1561188857836040517f9996b31500000000000000000000000000000000000000000000000000000000815260040161187f9190611bb8565b60405180910390fd5b819050611891565b5b9392505050565b5f815111156118aa5780518082602001fd5b6040517f1425ea4200000000000000000000000000000000000000000000000000000000815260040160405180910390fd5b5f819050919050565b6118ee816118dc565b82525050565b5f6020820190506119075f8301846118e5565b92915050565b5f80fd5b61191a816118dc565b8114611924575f80fd5b50565b5f8135905061193581611911565b92915050565b5f602082840312156119505761194f61190d565b5b5f61195d84828501611927565b91505092915050565b5f73ffffffffffffffffffffffffffffffffffffffff82169050919050565b5f819050919050565b5f6119a86119a361199e84611966565b611985565b611966565b9050919050565b5f6119b98261198e565b9050919050565b5f6119ca826119af565b9050919050565b6119da816119c0565b82525050565b5f60a0820190506119f35f8301886119d1565b611a0060208301876118e5565b611a0d60408301866118e5565b611a1a60608301856118e5565b611a2760808301846118e5565b9695505050505050565b5f611a3b82611966565b9050919050565b5f611a4c82611a31565b9050919050565b611a5c81611a42565b8114611a66575f80fd5b50565b5f81359050611a7781611a53565b92915050565b5f8115159050919050565b611a9181611a7d565b8114611a9b575f80fd5b50565b5f81359050611aac81611a88565b92915050565b5f805f60608486031215611ac957611ac861190d565b5b5f611ad686828701611927565b9350506020611ae786828701611a69565b9250506040611af886828701611a9e565b9150509250925092565b5f8060408385031215611b1857611b1761190d565b5b5f611b2585828601611927565b9250506020611b3685828601611927565b9150509250929050565b5f805f60608486031215611b5757611b5661190d565b5b5f611b6486828701611927565b9350506020611b7586828701611927565b9250506040611b8686828701611a9e565b9150509250925092565b5f602082019050611ba35f8301846119d1565b92915050565b611bb281611a31565b82525050565b5f602082019050611bcb5f830184611ba9565b92915050565b611bda81611a31565b8114611be4575f80fd5b50565b5f81359050611bf581611bd1565b92915050565b5f8060408385031215611c1157611c1061190d565b5b5f611c1e85828601611927565b9250506020611c2f85828601611be7565b9150509250929050565b5f604082019050611c4c5f8301856118e5565b611c5960208301846118e5565b9392505050565b5f60208284031215611c7557611c7461190d565b5b5f611c8284828501611be7565b91505092915050565b7f4e487b71000000000000000000000000000000000000000000000000000000005f52601160045260245ffd5b5f611cc2826118dc565b9150611ccd836118dc565b9250828203905081811115611ce557611ce4611c8b565b5b92915050565b7f4e487b71000000000000000000000000000000000000000000000000000000005f52603260045260245ffd5b5f82825260208201905092915050565b7f77697468647261773a2063616e2774207769746864726177206d6f72652074685f8201527f616e206465706f73697400000000000000000000000000000000000000000000602082015250565b5f611d82602a83611d18565b9150611d8d82611d28565b604082019050919050565b5f6020820190508181035f830152611daf81611d76565b9050919050565b7f66756e643a20746f6f206c6174652c20746865206661726d20697320636c6f735f8201527f6564000000000000000000000000000000000000000000000000000000000000602082015250565b5f611e10602283611d18565b9150611e1b82611db6565b604082019050919050565b5f6020820190508181035f830152611e3d81611e04565b9050919050565b5f611e4e826118dc565b9150611e59836118dc565b9250828201905080821115611e7157611e70611c8b565b5b92915050565b7f4e487b71000000000000000000000000000000000000000000000000000000005f52601260045260245ffd5b5f604082019050611eb75f830185611ba9565b611ec460208301846118e5565b9392505050565b5f81519050611ed981611a88565b92915050565b5f60208284031215611ef457611ef361190d565b5b5f611f0184828501611ecb565b91505092915050565b5f606082019050611f1d5f830186611ba9565b611f2a6020830185611ba9565b611f3760408301846118e5565b949350505050565b5f81519050919050565b5f81905092915050565b5f5b83811015611f70578082015181840152602081019050611f55565b5f8484015250505050565b5f611f8582611f3f565b611f8f8185611f49565b9350611f9f818560208601611f53565b80840191505092915050565b5f611fb68284611f7b565b91508190509291505056fea26469706673582212203852f52e7b5a406fec373a239aa07d0230e1a99afacb40ddd9a7e2ed48e9882564736f6c63430008180033",
					"opcodes": "PUSH1 0x80 PUSH1 0x40 MSTORE CALLVALUE DUP1 ISZERO PUSH3 0x10 JUMPI PUSH0 DUP1 REVERT JUMPDEST POP PUSH1 0x40 MLOAD PUSH3 0x2315 CODESIZE SUB DUP1 PUSH3 0x2315 DUP4 CODECOPY DUP2 DUP2 ADD PUSH1 0x40 MSTORE DUP2 ADD SWAP1 PUSH3 0x36 SWAP2 SWAP1 PUSH3 0x28B JUMP JUMPDEST CALLER PUSH0 PUSH20 0xFFFFFFFFFFFFFFFFFFFFFFFFFFFFFFFFFFFFFFFF AND DUP2 PUSH20 0xFFFFFFFFFFFFFFFFFFFFFFFFFFFFFFFFFFFFFFFF AND SUB PUSH3 0xAA JUMPI PUSH0 PUSH1 0x40 MLOAD PUSH32 0x1E4FBDF700000000000000000000000000000000000000000000000000000000 DUP2 MSTORE PUSH1 0x4 ADD PUSH3 0xA1 SWAP2 SWAP1 PUSH3 0x2F5 JUMP JUMPDEST PUSH1 0x40 MLOAD DUP1 SWAP2 SUB SWAP1 REVERT JUMPDEST PUSH3 0xBB DUP2 PUSH3 0x11A PUSH1 0x20 SHL PUSH1 0x20 SHR JUMP JUMPDEST POP DUP3 PUSH1 0x1 PUSH0 PUSH2 0x100 EXP DUP2 SLOAD DUP2 PUSH20 0xFFFFFFFFFFFFFFFFFFFFFFFFFFFFFFFFFFFFFFFF MUL NOT AND SWAP1 DUP4 PUSH20 0xFFFFFFFFFFFFFFFFFFFFFFFFFFFFFFFFFFFFFFFF AND MUL OR SWAP1 SSTORE POP DUP2 PUSH1 0x3 DUP2 SWAP1 SSTORE POP DUP1 PUSH1 0x8 DUP2 SWAP1 SSTORE POP DUP1 PUSH1 0x9 DUP2 SWAP1 SSTORE POP POP POP POP PUSH3 0x310 JUMP JUMPDEST PUSH0 DUP1 PUSH0 SWAP1 SLOAD SWAP1 PUSH2 0x100 EXP SWAP1 DIV PUSH20 0xFFFFFFFFFFFFFFFFFFFFFFFFFFFFFFFFFFFFFFFF AND SWAP1 POP DUP2 PUSH0 DUP1 PUSH2 0x100 EXP DUP2 SLOAD DUP2 PUSH20 0xFFFFFFFFFFFFFFFFFFFFFFFFFFFFFFFFFFFFFFFF MUL NOT AND SWAP1 DUP4 PUSH20 0xFFFFFFFFFFFFFFFFFFFFFFFFFFFFFFFFFFFFFFFF AND MUL OR SWAP1 SSTORE POP DUP2 PUSH20 0xFFFFFFFFFFFFFFFFFFFFFFFFFFFFFFFFFFFFFFFF AND DUP2 PUSH20 0xFFFFFFFFFFFFFFFFFFFFFFFFFFFFFFFFFFFFFFFF AND PUSH32 0x8BE0079C531659141344CD1FD0A4F28419497F9722A3DAAFE3B4186F6B6457E0 PUSH1 0x40 MLOAD PUSH1 0x40 MLOAD DUP1 SWAP2 SUB SWAP1 LOG3 POP POP JUMP JUMPDEST PUSH0 DUP1 REVERT JUMPDEST PUSH0 PUSH20 0xFFFFFFFFFFFFFFFFFFFFFFFFFFFFFFFFFFFFFFFF DUP3 AND SWAP1 POP SWAP2 SWAP1 POP JUMP JUMPDEST PUSH0 PUSH3 0x20A DUP3 PUSH3 0x1DF JUMP JUMPDEST SWAP1 POP SWAP2 SWAP1 POP JUMP JUMPDEST PUSH0 PUSH3 0x21D DUP3 PUSH3 0x1FE JUMP JUMPDEST SWAP1 POP SWAP2 SWAP1 POP JUMP JUMPDEST PUSH3 0x22F DUP2 PUSH3 0x211 JUMP JUMPDEST DUP2 EQ PUSH3 0x23A JUMPI PUSH0 DUP1 REVERT JUMPDEST POP JUMP JUMPDEST PUSH0 DUP2 MLOAD SWAP1 POP PUSH3 0x24D DUP2 PUSH3 0x224 JUMP JUMPDEST SWAP3 SWAP2 POP POP JUMP JUMPDEST PUSH0 DUP2 SWAP1 POP SWAP2 SWAP1 POP JUMP JUMPDEST PUSH3 0x267 DUP2 PUSH3 0x253 JUMP JUMPDEST DUP2 EQ PUSH3 0x272 JUMPI PUSH0 DUP1 REVERT JUMPDEST POP JUMP JUMPDEST PUSH0 DUP2 MLOAD SWAP1 POP PUSH3 0x285 DUP2 PUSH3 0x25C JUMP JUMPDEST SWAP3 SWAP2 POP POP JUMP JUMPDEST PUSH0 DUP1 PUSH0 PUSH1 0x60 DUP5 DUP7 SUB SLT ISZERO PUSH3 0x2A5 JUMPI PUSH3 0x2A4 PUSH3 0x1DB JUMP JUMPDEST JUMPDEST PUSH0 PUSH3 0x2B4 DUP7 DUP3 DUP8 ADD PUSH3 0x23D JUMP JUMPDEST SWAP4 POP POP PUSH1 0x20 PUSH3 0x2C7 DUP7 DUP3 DUP8 ADD PUSH3 0x275 JUMP JUMPDEST SWAP3 POP POP PUSH1 0x40 PUSH3 0x2DA DUP7 DUP3 DUP8 ADD PUSH3 0x275 JUMP JUMPDEST SWAP2 POP POP SWAP3 POP SWAP3 POP SWAP3 JUMP JUMPDEST PUSH3 0x2EF DUP2 PUSH3 0x1FE JUMP JUMPDEST DUP3 MSTORE POP POP JUMP JUMPDEST PUSH0 PUSH1 0x20 DUP3 ADD SWAP1 POP PUSH3 0x30A PUSH0 DUP4 ADD DUP5 PUSH3 0x2E4 JUMP JUMPDEST SWAP3 SWAP2 POP POP JUMP JUMPDEST PUSH2 0x1FF7 DUP1 PUSH3 0x31E PUSH0 CODECOPY PUSH0 RETURN INVALID PUSH1 0x80 PUSH1 0x40 MSTORE CALLVALUE DUP1 ISZERO PUSH2 0xF JUMPI PUSH0 DUP1 REVERT JUMPDEST POP PUSH1 0x4 CALLDATASIZE LT PUSH2 0x156 JUMPI PUSH0 CALLDATALOAD PUSH1 0xE0 SHR DUP1 PUSH4 0x715018A6 GT PUSH2 0xC1 JUMPI DUP1 PUSH4 0xA85ADEAB GT PUSH2 0x7A JUMPI DUP1 PUSH4 0xA85ADEAB EQ PUSH2 0x37F JUMPI DUP1 PUSH4 0xCA1D209D EQ PUSH2 0x39D JUMPI DUP1 PUSH4 0xE2BBB158 EQ PUSH2 0x3B9 JUMPI DUP1 PUSH4 0xE4C75C27 EQ PUSH2 0x3D5 JUMPI DUP1 PUSH4 0xE6FD48BC EQ PUSH2 0x405 JUMPI DUP1 PUSH4 0xF2FDE38B EQ PUSH2 0x423 JUMPI PUSH2 0x156 JUMP JUMPDEST DUP1 PUSH4 0x715018A6 EQ PUSH2 0x2BA JUMPI DUP1 PUSH4 0x785E9E86 EQ PUSH2 0x2C4 JUMPI DUP1 PUSH4 0x8DA5CB5B EQ PUSH2 0x2E2 JUMPI DUP1 PUSH4 0x8F10369A EQ PUSH2 0x300 JUMPI DUP1 PUSH4 0x93F1A40B EQ PUSH2 0x31E JUMPI DUP1 PUSH4 0xA2383106 EQ PUSH2 0x34F JUMPI PUSH2 0x156 JUMP JUMPDEST DUP1 PUSH4 0x441A3E70 GT PUSH2 0x113 JUMPI DUP1 PUSH4 0x441A3E70 EQ PUSH2 0x222 JUMPI DUP1 PUSH4 0x51EB05A6 EQ PUSH2 0x23E JUMPI DUP1 PUSH4 0x5312EA8E EQ PUSH2 0x25A JUMPI DUP1 PUSH4 0x5C76CA2D EQ PUSH2 0x276 JUMPI DUP1 PUSH4 0x630B5BA1 EQ PUSH2 0x294 JUMPI DUP1 PUSH4 0x64482F79 EQ PUSH2 0x29E JUMPI PUSH2 0x156 JUMP JUMPDEST DUP1 PUSH4 0x81E3EDA EQ PUSH2 0x15A JUMPI DUP1 PUSH4 0xE15561A EQ PUSH2 0x178 JUMPI DUP1 PUSH4 0x1526FE27 EQ PUSH2 0x196 JUMPI DUP1 PUSH4 0x17CAF6F1 EQ PUSH2 0x1CA JUMPI DUP1 PUSH4 0x1EAAA045 EQ PUSH2 0x1E8 JUMPI DUP1 PUSH4 0x3F90916A EQ PUSH2 0x204 JUMPI JUMPDEST PUSH0 DUP1 REVERT JUMPDEST PUSH2 0x162 PUSH2 0x43F JUMP JUMPDEST PUSH1 0x40 MLOAD PUSH2 0x16F SWAP2 SWAP1 PUSH2 0x18F4 JUMP JUMPDEST PUSH1 0x40 MLOAD DUP1 SWAP2 SUB SWAP1 RETURN JUMPDEST PUSH2 0x180 PUSH2 0x44B JUMP JUMPDEST PUSH1 0x40 MLOAD PUSH2 0x18D SWAP2 SWAP1 PUSH2 0x18F4 JUMP JUMPDEST PUSH1 0x40 MLOAD DUP1 SWAP2 SUB SWAP1 RETURN JUMPDEST PUSH2 0x1B0 PUSH1 0x4 DUP1 CALLDATASIZE SUB DUP2 ADD SWAP1 PUSH2 0x1AB SWAP2 SWAP1 PUSH2 0x193B JUMP JUMPDEST PUSH2 0x451 JUMP JUMPDEST PUSH1 0x40 MLOAD PUSH2 0x1C1 SWAP6 SWAP5 SWAP4 SWAP3 SWAP2 SWAP1 PUSH2 0x19E0 JUMP JUMPDEST PUSH1 0x40 MLOAD DUP1 SWAP2 SUB SWAP1 RETURN JUMPDEST PUSH2 0x1D2 PUSH2 0x4B1 JUMP JUMPDEST PUSH1 0x40 MLOAD PUSH2 0x1DF SWAP2 SWAP1 PUSH2 0x18F4 JUMP JUMPDEST PUSH1 0x40 MLOAD DUP1 SWAP2 SUB SWAP1 RETURN JUMPDEST PUSH2 0x202 PUSH1 0x4 DUP1 CALLDATASIZE SUB DUP2 ADD SWAP1 PUSH2 0x1FD SWAP2 SWAP1 PUSH2 0x1AB2 JUMP JUMPDEST PUSH2 0x4B7 JUMP JUMPDEST STOP JUMPDEST PUSH2 0x20C PUSH2 0x5DD JUMP JUMPDEST PUSH1 0x40 MLOAD PUSH2 0x219 SWAP2 SWAP1 PUSH2 0x18F4 JUMP JUMPDEST PUSH1 0x40 MLOAD DUP1 SWAP2 SUB SWAP1 RETURN JUMPDEST PUSH2 0x23C PUSH1 0x4 DUP1 CALLDATASIZE SUB DUP2 ADD SWAP1 PUSH2 0x237 SWAP2 SWAP1 PUSH2 0x1B02 JUMP JUMPDEST PUSH2 0x64E JUMP JUMPDEST STOP JUMPDEST PUSH2 0x258 PUSH1 0x4 DUP1 CALLDATASIZE SUB DUP2 ADD SWAP1 PUSH2 0x253 SWAP2 SWAP1 PUSH2 0x193B JUMP JUMPDEST PUSH2 0x863 JUMP JUMPDEST STOP JUMPDEST PUSH2 0x274 PUSH1 0x4 DUP1 CALLDATASIZE SUB DUP2 ADD SWAP1 PUSH2 0x26F SWAP2 SWAP1 PUSH2 0x193B JUMP JUMPDEST PUSH2 0x96D JUMP JUMPDEST STOP JUMPDEST PUSH2 0x27E PUSH2 0xB09 JUMP JUMPDEST PUSH1 0x40 MLOAD PUSH2 0x28B SWAP2 SWAP1 PUSH2 0x18F4 JUMP JUMPDEST PUSH1 0x40 MLOAD DUP1 SWAP2 SUB SWAP1 RETURN JUMPDEST PUSH2 0x29C PUSH2 0xB0F JUMP JUMPDEST STOP JUMPDEST PUSH2 0x2B8 PUSH1 0x4 DUP1 CALLDATASIZE SUB DUP2 ADD SWAP1 PUSH2 0x2B3 SWAP2 SWAP1 PUSH2 0x1B40 JUMP JUMPDEST PUSH2 0xB3A JUMP JUMPDEST STOP JUMPDEST PUSH2 0x2C2 PUSH2 0xBE1 JUMP JUMPDEST STOP JUMPDEST PUSH2 0x2CC PUSH2 0xBF4 JUMP JUMPDEST PUSH1 0x40 MLOAD PUSH2 0x2D9 SWAP2 SWAP1 PUSH2 0x1B90 JUMP JUMPDEST PUSH1 0x40 MLOAD DUP1 SWAP2 SUB SWAP1 RETURN JUMPDEST PUSH2 0x2EA PUSH2 0xC19 JUMP JUMPDEST PUSH1 0x40 MLOAD PUSH2 0x2F7 SWAP2 SWAP1 PUSH2 0x1BB8 JUMP JUMPDEST PUSH1 0x40 MLOAD DUP1 SWAP2 SUB SWAP1 RETURN JUMPDEST PUSH2 0x308 PUSH2 0xC40 JUMP JUMPDEST PUSH1 0x40 MLOAD PUSH2 0x315 SWAP2 SWAP1 PUSH2 0x18F4 JUMP JUMPDEST PUSH1 0x40 MLOAD DUP1 SWAP2 SUB SWAP1 RETURN JUMPDEST PUSH2 0x338 PUSH1 0x4 DUP1 CALLDATASIZE SUB DUP2 ADD SWAP1 PUSH2 0x333 SWAP2 SWAP1 PUSH2 0x1BFB JUMP JUMPDEST PUSH2 0xC46 JUMP JUMPDEST PUSH1 0x40 MLOAD PUSH2 0x346 SWAP3 SWAP2 SWAP1 PUSH2 0x1C39 JUMP JUMPDEST PUSH1 0x40 MLOAD DUP1 SWAP2 SUB SWAP1 RETURN JUMPDEST PUSH2 0x369 PUSH1 0x4 DUP1 CALLDATASIZE SUB DUP2 ADD SWAP1 PUSH2 0x364 SWAP2 SWAP1 PUSH2 0x1BFB JUMP JUMPDEST PUSH2 0xC71 JUMP JUMPDEST PUSH1 0x40 MLOAD PUSH2 0x376 SWAP2 SWAP1 PUSH2 0x18F4 JUMP JUMPDEST PUSH1 0x40 MLOAD DUP1 SWAP2 SUB SWAP1 RETURN JUMPDEST PUSH2 0x387 PUSH2 0xCCE JUMP JUMPDEST PUSH1 0x40 MLOAD PUSH2 0x394 SWAP2 SWAP1 PUSH2 0x18F4 JUMP JUMPDEST PUSH1 0x40 MLOAD DUP1 SWAP2 SUB SWAP1 RETURN JUMPDEST PUSH2 0x3B7 PUSH1 0x4 DUP1 CALLDATASIZE SUB DUP2 ADD SWAP1 PUSH2 0x3B2 SWAP2 SWAP1 PUSH2 0x193B JUMP JUMPDEST PUSH2 0xCD4 JUMP JUMPDEST STOP JUMPDEST PUSH2 0x3D3 PUSH1 0x4 DUP1 CALLDATASIZE SUB DUP2 ADD SWAP1 PUSH2 0x3CE SWAP2 SWAP1 PUSH2 0x1B02 JUMP JUMPDEST PUSH2 0xDBB JUMP JUMPDEST STOP JUMPDEST PUSH2 0x3EF PUSH1 0x4 DUP1 CALLDATASIZE SUB DUP2 ADD SWAP1 PUSH2 0x3EA SWAP2 SWAP1 PUSH2 0x1BFB JUMP JUMPDEST PUSH2 0xF98 JUMP JUMPDEST PUSH1 0x40 MLOAD PUSH2 0x3FC SWAP2 SWAP1 PUSH2 0x18F4 JUMP JUMPDEST PUSH1 0x40 MLOAD DUP1 SWAP2 SUB SWAP1 RETURN JUMPDEST PUSH2 0x40D PUSH2 0x1133 JUMP JUMPDEST PUSH1 0x40 MLOAD PUSH2 0x41A SWAP2 SWAP1 PUSH2 0x18F4 JUMP JUMPDEST PUSH1 0x40 MLOAD DUP1 SWAP2 SUB SWAP1 RETURN JUMPDEST PUSH2 0x43D PUSH1 0x4 DUP1 CALLDATASIZE SUB DUP2 ADD SWAP1 PUSH2 0x438 SWAP2 SWAP1 PUSH2 0x1C60 JUMP JUMPDEST PUSH2 0x1139 JUMP JUMPDEST STOP JUMPDEST PUSH0 PUSH1 0x5 DUP1 SLOAD SWAP1 POP SWAP1 POP SWAP1 JUMP JUMPDEST PUSH1 0x4 SLOAD DUP2 JUMP JUMPDEST PUSH1 0x5 DUP2 DUP2 SLOAD DUP2 LT PUSH2 0x460 JUMPI PUSH0 DUP1 REVERT JUMPDEST SWAP1 PUSH0 MSTORE PUSH1 0x20 PUSH0 KECCAK256 SWAP1 PUSH1 0x5 MUL ADD PUSH0 SWAP2 POP SWAP1 POP DUP1 PUSH0 ADD PUSH0 SWAP1 SLOAD SWAP1 PUSH2 0x100 EXP SWAP1 DIV PUSH20 0xFFFFFFFFFFFFFFFFFFFFFFFFFFFFFFFFFFFFFFFF AND SWAP1 DUP1 PUSH1 0x1 ADD SLOAD SWAP1 DUP1 PUSH1 0x2 ADD SLOAD SWAP1 DUP1 PUSH1 0x3 ADD SLOAD SWAP1 DUP1 PUSH1 0x4 ADD SLOAD SWAP1 POP DUP6 JUMP JUMPDEST PUSH1 0x7 SLOAD DUP2 JUMP JUMPDEST PUSH2 0x4BF PUSH2 0x11BD JUMP JUMPDEST DUP1 ISZERO PUSH2 0x4CE JUMPI PUSH2 0x4CD PUSH2 0xB0F JUMP JUMPDEST JUMPDEST PUSH0 PUSH1 0x8 SLOAD TIMESTAMP GT PUSH2 0x4E0 JUMPI PUSH1 0x8 SLOAD PUSH2 0x4E2 JUMP JUMPDEST TIMESTAMP JUMPDEST SWAP1 POP PUSH2 0x4F9 DUP5 PUSH1 0x7 SLOAD PUSH2 0x1244 SWAP1 SWAP2 SWAP1 PUSH4 0xFFFFFFFF AND JUMP JUMPDEST SWAP1 POP PUSH1 0x7 PUSH0 DUP3 SWAP2 SWAP1 POP SSTORE POP PUSH1 0x5 PUSH1 0x40 MLOAD DUP1 PUSH1 0xA0 ADD PUSH1 0x40 MSTORE DUP1 DUP6 PUSH20 0xFFFFFFFFFFFFFFFFFFFFFFFFFFFFFFFFFFFFFFFF AND DUP2 MSTORE PUSH1 0x20 ADD DUP7 DUP2 MSTORE PUSH1 0x20 ADD DUP4 DUP2 MSTORE PUSH1 0x20 ADD PUSH0 DUP2 MSTORE PUSH1 0x20 ADD PUSH0 DUP2 MSTORE POP SWAP1 DUP1 PUSH1 0x1 DUP2 SLOAD ADD DUP1 DUP3 SSTORE DUP1 SWAP2 POP POP PUSH1 0x1 SWAP1 SUB SWAP1 PUSH0 MSTORE PUSH1 0x20 PUSH0 KECCAK256 SWAP1 PUSH1 0x5 MUL ADD PUSH0 SWAP1 SWAP2 SWAP1 SWAP2 SWAP1 SWAP2 POP PUSH0 DUP3 ADD MLOAD DUP2 PUSH0 ADD PUSH0 PUSH2 0x100 EXP DUP2 SLOAD DUP2 PUSH20 0xFFFFFFFFFFFFFFFFFFFFFFFFFFFFFFFFFFFFFFFF MUL NOT AND SWAP1 DUP4 PUSH20 0xFFFFFFFFFFFFFFFFFFFFFFFFFFFFFFFFFFFFFFFF AND MUL OR SWAP1 SSTORE POP PUSH1 0x20 DUP3 ADD MLOAD DUP2 PUSH1 0x1 ADD SSTORE PUSH1 0x40 DUP3 ADD MLOAD DUP2 PUSH1 0x2 ADD SSTORE PUSH1 0x60 DUP3 ADD MLOAD DUP2 PUSH1 0x3 ADD SSTORE PUSH1 0x80 DUP3 ADD MLOAD DUP2 PUSH1 0x4 ADD SSTORE POP POP POP POP POP POP JUMP JUMPDEST PUSH0 PUSH1 0x8 SLOAD TIMESTAMP GT PUSH2 0x5EF JUMPI PUSH0 SWAP1 POP PUSH2 0x64B JUMP JUMPDEST PUSH0 PUSH1 0x9 SLOAD TIMESTAMP LT PUSH2 0x601 JUMPI PUSH1 0x9 SLOAD PUSH2 0x603 JUMP JUMPDEST TIMESTAMP JUMPDEST SWAP1 POP PUSH0 PUSH2 0x628 PUSH1 0x8 SLOAD DUP4 PUSH2 0x617 SWAP2 SWAP1 PUSH2 0x1CB8 JUMP JUMPDEST PUSH1 0x3 SLOAD PUSH2 0x1270 SWAP1 SWAP2 SWAP1 PUSH4 0xFFFFFFFF AND JUMP JUMPDEST SWAP2 POP POP PUSH0 PUSH2 0x641 PUSH1 0x2 SLOAD DUP4 PUSH2 0x12BE SWAP1 SWAP2 SWAP1 PUSH4 0xFFFFFFFF AND JUMP JUMPDEST SWAP2 POP POP DUP1 SWAP4 POP POP POP POP JUMPDEST SWAP1 JUMP JUMPDEST PUSH0 PUSH1 0x5 DUP4 DUP2 SLOAD DUP2 LT PUSH2 0x663 JUMPI PUSH2 0x662 PUSH2 0x1CEB JUMP JUMPDEST JUMPDEST SWAP1 PUSH0 MSTORE PUSH1 0x20 PUSH0 KECCAK256 SWAP1 PUSH1 0x5 MUL ADD SWAP1 POP PUSH0 PUSH1 0x6 PUSH0 DUP6 DUP2 MSTORE PUSH1 0x20 ADD SWAP1 DUP2 MSTORE PUSH1 0x20 ADD PUSH0 KECCAK256 PUSH0 CALLER PUSH20 0xFFFFFFFFFFFFFFFFFFFFFFFFFFFFFFFFFFFFFFFF AND PUSH20 0xFFFFFFFFFFFFFFFFFFFFFFFFFFFFFFFFFFFFFFFF AND DUP2 MSTORE PUSH1 0x20 ADD SWAP1 DUP2 MSTORE PUSH1 0x20 ADD PUSH0 KECCAK256 SWAP1 POP DUP3 DUP2 PUSH0 ADD SLOAD LT ISZERO PUSH2 0x706 JUMPI PUSH1 0x40 MLOAD PUSH32 0x8C379A000000000000000000000000000000000000000000000000000000000 DUP2 MSTORE PUSH1 0x4 ADD PUSH2 0x6FD SWAP1 PUSH2 0x1D98 JUMP JUMPDEST PUSH1 0x40 MLOAD DUP1 SWAP2 SUB SWAP1 REVERT JUMPDEST PUSH2 0x70F DUP5 PUSH2 0x863 JUMP JUMPDEST PUSH0 PUSH2 0x72A DUP4 PUSH1 0x3 ADD SLOAD DUP4 PUSH0 ADD SLOAD PUSH2 0x1270 SWAP1 SWAP2 SWAP1 PUSH4 0xFFFFFFFF AND JUMP JUMPDEST SWAP2 POP POP PUSH0 PUSH2 0x745 DUP4 PUSH1 0x1 ADD SLOAD DUP4 PUSH2 0x12BE SWAP1 SWAP2 SWAP1 PUSH4 0xFFFFFFFF AND JUMP JUMPDEST SWAP2 POP POP PUSH2 0x752 CALLER DUP3 PUSH2 0x12E4 JUMP JUMPDEST PUSH2 0x768 DUP6 DUP5 PUSH0 ADD SLOAD PUSH2 0x12BE SWAP1 SWAP2 SWAP1 PUSH4 0xFFFFFFFF AND JUMP JUMPDEST SWAP1 POP DUP4 PUSH0 ADD PUSH0 DUP3 SWAP2 SWAP1 POP SSTORE POP PUSH2 0x78E DUP5 PUSH1 0x3 ADD SLOAD DUP5 PUSH0 ADD SLOAD PUSH2 0x1270 SWAP1 SWAP2 SWAP1 PUSH4 0xFFFFFFFF AND JUMP JUMPDEST SWAP1 POP DUP4 PUSH1 0x1 ADD PUSH0 DUP3 SWAP2 SWAP1 POP SSTORE POP PUSH2 0x7E8 CALLER DUP7 DUP7 PUSH0 ADD PUSH0 SWAP1 SLOAD SWAP1 PUSH2 0x100 EXP SWAP1 DIV PUSH20 0xFFFFFFFFFFFFFFFFFFFFFFFFFFFFFFFFFFFFFFFF AND PUSH20 0xFFFFFFFFFFFFFFFFFFFFFFFFFFFFFFFFFFFFFFFF AND PUSH2 0x139D SWAP1 SWAP3 SWAP2 SWAP1 PUSH4 0xFFFFFFFF AND JUMP JUMPDEST PUSH2 0x7FF DUP6 DUP6 PUSH1 0x4 ADD SLOAD PUSH2 0x12BE SWAP1 SWAP2 SWAP1 PUSH4 0xFFFFFFFF AND JUMP JUMPDEST SWAP1 POP DUP5 PUSH1 0x4 ADD PUSH0 DUP3 SWAP2 SWAP1 POP SSTORE POP DUP6 CALLER PUSH20 0xFFFFFFFFFFFFFFFFFFFFFFFFFFFFFFFFFFFFFFFF AND PUSH32 0xF279E6A1F5E320CCA91135676D9CB6E44CA8A08C0B88342BCDB1144F6511B568 DUP8 PUSH1 0x40 MLOAD PUSH2 0x853 SWAP2 SWAP1 PUSH2 0x18F4 JUMP JUMPDEST PUSH1 0x40 MLOAD DUP1 SWAP2 SUB SWAP1 LOG3 POP POP POP POP POP POP JUMP JUMPDEST PUSH0 PUSH1 0x5 DUP3 DUP2 SLOAD DUP2 LT PUSH2 0x878 JUMPI PUSH2 0x877 PUSH2 0x1CEB JUMP JUMPDEST JUMPDEST SWAP1 PUSH0 MSTORE PUSH1 0x20 PUSH0 KECCAK256 SWAP1 PUSH1 0x5 MUL ADD SWAP1 POP PUSH0 PUSH1 0x9 SLOAD TIMESTAMP LT PUSH2 0x898 JUMPI PUSH1 0x9 SLOAD PUSH2 0x89A JUMP JUMPDEST TIMESTAMP JUMPDEST SWAP1 POP DUP2 PUSH1 0x2 ADD SLOAD DUP2 GT PUSH2 0x8AE JUMPI POP POP PUSH2 0x96A JUMP JUMPDEST PUSH0 DUP3 PUSH1 0x4 ADD SLOAD SWAP1 POP PUSH0 DUP2 SUB PUSH2 0x8CE JUMPI DUP2 DUP4 PUSH1 0x2 ADD DUP2 SWAP1 SSTORE POP POP POP POP PUSH2 0x96A JUMP JUMPDEST PUSH0 PUSH2 0x8E6 DUP5 PUSH1 0x2 ADD SLOAD DUP5 PUSH2 0x12BE SWAP1 SWAP2 SWAP1 PUSH4 0xFFFFFFFF AND JUMP JUMPDEST SWAP2 POP POP PUSH0 PUSH2 0x8FF PUSH1 0x3 SLOAD DUP4 PUSH2 0x1270 SWAP1 SWAP2 SWAP1 PUSH4 0xFFFFFFFF AND JUMP JUMPDEST SWAP2 POP POP PUSH2 0x91D DUP6 PUSH1 0x1 ADD SLOAD PUSH1 0x7 SLOAD DUP4 PUSH2 0x141C SWAP1 SWAP3 SWAP2 SWAP1 PUSH4 0xFFFFFFFF AND JUMP JUMPDEST SWAP1 POP PUSH0 PUSH2 0x933 DUP5 DUP4 PUSH2 0x151B SWAP1 SWAP2 SWAP1 PUSH4 0xFFFFFFFF AND JUMP JUMPDEST SWAP2 POP POP PUSH2 0x94D DUP2 DUP8 PUSH1 0x3 ADD SLOAD PUSH2 0x1244 SWAP1 SWAP2 SWAP1 PUSH4 0xFFFFFFFF AND JUMP JUMPDEST SWAP1 POP DUP7 PUSH1 0x3 ADD PUSH0 DUP3 SWAP2 SWAP1 POP SSTORE POP TIMESTAMP DUP7 PUSH1 0x2 ADD DUP2 SWAP1 SSTORE POP POP POP POP POP POP POP JUMPDEST POP JUMP JUMPDEST PUSH0 PUSH1 0x5 DUP3 DUP2 SLOAD DUP2 LT PUSH2 0x982 JUMPI PUSH2 0x981 PUSH2 0x1CEB JUMP JUMPDEST JUMPDEST SWAP1 PUSH0 MSTORE PUSH1 0x20 PUSH0 KECCAK256 SWAP1 PUSH1 0x5 MUL ADD SWAP1 POP PUSH0 PUSH1 0x6 PUSH0 DUP5 DUP2 MSTORE PUSH1 0x20 ADD SWAP1 DUP2 MSTORE PUSH1 0x20 ADD PUSH0 KECCAK256 PUSH0 CALLER PUSH20 0xFFFFFFFFFFFFFFFFFFFFFFFFFFFFFFFFFFFFFFFF AND PUSH20 0xFFFFFFFFFFFFFFFFFFFFFFFFFFFFFFFFFFFFFFFF AND DUP2 MSTORE PUSH1 0x20 ADD SWAP1 DUP2 MSTORE PUSH1 0x20 ADD PUSH0 KECCAK256 SWAP1 POP PUSH2 0xA2F CALLER DUP3 PUSH0 ADD SLOAD DUP5 PUSH0 ADD PUSH0 SWAP1 SLOAD SWAP1 PUSH2 0x100 EXP SWAP1 DIV PUSH20 0xFFFFFFFFFFFFFFFFFFFFFFFFFFFFFFFFFFFFFFFF AND PUSH20 0xFFFFFFFFFFFFFFFFFFFFFFFFFFFFFFFFFFFFFFFF AND PUSH2 0x139D SWAP1 SWAP3 SWAP2 SWAP1 PUSH4 0xFFFFFFFF AND JUMP JUMPDEST PUSH2 0xA49 DUP2 PUSH0 ADD SLOAD DUP4 PUSH1 0x4 ADD SLOAD PUSH2 0x12BE SWAP1 SWAP2 SWAP1 PUSH4 0xFFFFFFFF AND JUMP JUMPDEST SWAP1 POP DUP3 PUSH1 0x4 ADD PUSH0 DUP3 SWAP2 SWAP1 POP SSTORE POP DUP3 CALLER PUSH20 0xFFFFFFFFFFFFFFFFFFFFFFFFFFFFFFFFFFFFFFFF AND PUSH32 0xBB757047C2B5F3974FE26B7C10F732E7BCE710B0952A71082702781E62AE0595 DUP4 PUSH0 ADD SLOAD PUSH1 0x40 MLOAD PUSH2 0xAA0 SWAP2 SWAP1 PUSH2 0x18F4 JUMP JUMPDEST PUSH1 0x40 MLOAD DUP1 SWAP2 SUB SWAP1 LOG3 PUSH1 0x6 PUSH0 DUP5 DUP2 MSTORE PUSH1 0x20 ADD SWAP1 DUP2 MSTORE PUSH1 0x20 ADD PUSH0 KECCAK256 PUSH0 CALLER PUSH20 0xFFFFFFFFFFFFFFFFFFFFFFFFFFFFFFFFFFFFFFFF AND PUSH20 0xFFFFFFFFFFFFFFFFFFFFFFFFFFFFFFFFFFFFFFFF AND DUP2 MSTORE PUSH1 0x20 ADD SWAP1 DUP2 MSTORE PUSH1 0x20 ADD PUSH0 KECCAK256 PUSH0 DUP1 DUP3 ADD PUSH0 SWAP1 SSTORE PUSH1 0x1 DUP3 ADD PUSH0 SWAP1 SSTORE POP POP POP POP POP JUMP JUMPDEST PUSH1 0x2 SLOAD DUP2 JUMP JUMPDEST PUSH0 PUSH1 0x5 DUP1 SLOAD SWAP1 POP SWAP1 POP PUSH0 JUMPDEST DUP2 DUP2 LT ISZERO PUSH2 0xB36 JUMPI PUSH2 0xB2B DUP2 PUSH2 0x863 JUMP JUMPDEST DUP1 PUSH1 0x1 ADD SWAP1 POP PUSH2 0xB1A JUMP JUMPDEST POP POP JUMP JUMPDEST PUSH2 0xB42 PUSH2 0x11BD JUMP JUMPDEST DUP1 ISZERO PUSH2 0xB51 JUMPI PUSH2 0xB50 PUSH2 0xB0F JUMP JUMPDEST JUMPDEST PUSH2 0xB89 PUSH1 0x5 DUP5 DUP2 SLOAD DUP2 LT PUSH2 0xB68 JUMPI PUSH2 0xB67 PUSH2 0x1CEB JUMP JUMPDEST JUMPDEST SWAP1 PUSH0 MSTORE PUSH1 0x20 PUSH0 KECCAK256 SWAP1 PUSH1 0x5 MUL ADD PUSH1 0x1 ADD SLOAD PUSH1 0x7 SLOAD PUSH2 0x12BE SWAP1 SWAP2 SWAP1 PUSH4 0xFFFFFFFF AND JUMP JUMPDEST SWAP1 POP PUSH1 0x7 PUSH0 DUP3 SWAP2 SWAP1 POP SSTORE POP PUSH2 0xBA9 DUP3 PUSH1 0x7 SLOAD PUSH2 0x1244 SWAP1 SWAP2 SWAP1 PUSH4 0xFFFFFFFF AND JUMP JUMPDEST SWAP1 POP PUSH1 0x7 PUSH0 DUP3 SWAP2 SWAP1 POP SSTORE POP DUP2 PUSH1 0x5 DUP5 DUP2 SLOAD DUP2 LT PUSH2 0xBC9 JUMPI PUSH2 0xBC8 PUSH2 0x1CEB JUMP JUMPDEST JUMPDEST SWAP1 PUSH0 MSTORE PUSH1 0x20 PUSH0 KECCAK256 SWAP1 PUSH1 0x5 MUL ADD PUSH1 0x1 ADD DUP2 SWAP1 SSTORE POP POP POP POP JUMP JUMPDEST PUSH2 0xBE9 PUSH2 0x11BD JUMP JUMPDEST PUSH2 0xBF2 PUSH0 PUSH2 0x154E JUMP JUMPDEST JUMP JUMPDEST PUSH1 0x1 PUSH0 SWAP1 SLOAD SWAP1 PUSH2 0x100 EXP SWAP1 DIV PUSH20 0xFFFFFFFFFFFFFFFFFFFFFFFFFFFFFFFFFFFFFFFF AND DUP2 JUMP JUMPDEST PUSH0 DUP1 PUSH0 SWAP1 SLOAD SWAP1 PUSH2 0x100 EXP SWAP1 DIV PUSH20 0xFFFFFFFFFFFFFFFFFFFFFFFFFFFFFFFFFFFFFFFF AND SWAP1 POP SWAP1 JUMP JUMPDEST PUSH1 0x3 SLOAD DUP2 JUMP JUMPDEST PUSH1 0x6 PUSH1 0x20 MSTORE DUP2 PUSH0 MSTORE PUSH1 0x40 PUSH0 KECCAK256 PUSH1 0x20 MSTORE DUP1 PUSH0 MSTORE PUSH1 0x40 PUSH0 KECCAK256 PUSH0 SWAP2 POP SWAP2 POP POP DUP1 PUSH0 ADD SLOAD SWAP1 DUP1 PUSH1 0x1 ADD SLOAD SWAP1 POP DUP3 JUMP JUMPDEST PUSH0 DUP1 PUSH1 0x6 PUSH0 DUP6 DUP2 MSTORE PUSH1 0x20 ADD SWAP1 DUP2 MSTORE PUSH1 0x20 ADD PUSH0 KECCAK256 PUSH0 DUP5 PUSH20 0xFFFFFFFFFFFFFFFFFFFFFFFFFFFFFFFFFFFFFFFF AND PUSH20 0xFFFFFFFFFFFFFFFFFFFFFFFFFFFFFFFFFFFFFFFF AND DUP2 MSTORE PUSH1 0x20 ADD SWAP1 DUP2 MSTORE PUSH1 0x20 ADD PUSH0 KECCAK256 SWAP1 POP DUP1 PUSH0 ADD SLOAD SWAP2 POP POP SWAP3 SWAP2 POP POP JUMP JUMPDEST PUSH1 0x9 SLOAD DUP2 JUMP JUMPDEST PUSH1 0x9 SLOAD TIMESTAMP LT PUSH2 0xD18 JUMPI PUSH1 0x40 MLOAD PUSH32 0x8C379A000000000000000000000000000000000000000000000000000000000 DUP2 MSTORE PUSH1 0x4 ADD PUSH2 0xD0F SWAP1 PUSH2 0x1E26 JUMP JUMPDEST PUSH1 0x40 MLOAD DUP1 SWAP2 SUB SWAP1 REVERT JUMPDEST PUSH2 0xD66 CALLER ADDRESS DUP4 PUSH1 0x1 PUSH0 SWAP1 SLOAD SWAP1 PUSH2 0x100 EXP SWAP1 DIV PUSH20 0xFFFFFFFFFFFFFFFFFFFFFFFFFFFFFFFFFFFFFFFF AND PUSH20 0xFFFFFFFFFFFFFFFFFFFFFFFFFFFFFFFFFFFFFFFF AND PUSH2 0x160F SWAP1 SWAP4 SWAP3 SWAP2 SWAP1 PUSH4 0xFFFFFFFF AND JUMP JUMPDEST PUSH0 PUSH2 0xD7C PUSH1 0x3 SLOAD DUP4 PUSH2 0x151B SWAP1 SWAP2 SWAP1 PUSH4 0xFFFFFFFF AND JUMP JUMPDEST SWAP2 POP POP DUP1 PUSH1 0x9 PUSH0 DUP3 DUP3 SLOAD PUSH2 0xD90 SWAP2 SWAP1 PUSH2 0x1E44 JUMP JUMPDEST SWAP3 POP POP DUP2 SWAP1 SSTORE POP PUSH2 0xDAC DUP3 PUSH1 0x4 SLOAD PUSH2 0x1244 SWAP1 SWAP2 SWAP1 PUSH4 0xFFFFFFFF AND JUMP JUMPDEST SWAP1 POP PUSH1 0x4 PUSH0 DUP3 SWAP2 SWAP1 POP SSTORE POP POP POP JUMP JUMPDEST PUSH0 PUSH1 0x5 DUP4 DUP2 SLOAD DUP2 LT PUSH2 0xDD0 JUMPI PUSH2 0xDCF PUSH2 0x1CEB JUMP JUMPDEST JUMPDEST SWAP1 PUSH0 MSTORE PUSH1 0x20 PUSH0 KECCAK256 SWAP1 PUSH1 0x5 MUL ADD SWAP1 POP PUSH0 PUSH1 0x6 PUSH0 DUP6 DUP2 MSTORE PUSH1 0x20 ADD SWAP1 DUP2 MSTORE PUSH1 0x20 ADD PUSH0 KECCAK256 PUSH0 CALLER PUSH20 0xFFFFFFFFFFFFFFFFFFFFFFFFFFFFFFFFFFFFFFFF AND PUSH20 0xFFFFFFFFFFFFFFFFFFFFFFFFFFFFFFFFFFFFFFFF AND DUP2 MSTORE PUSH1 0x20 ADD SWAP1 DUP2 MSTORE PUSH1 0x20 ADD PUSH0 KECCAK256 SWAP1 POP PUSH2 0xE36 DUP5 PUSH2 0x863 JUMP JUMPDEST PUSH0 DUP2 PUSH0 ADD SLOAD GT ISZERO PUSH2 0xE87 JUMPI PUSH0 PUSH2 0xE5C DUP4 PUSH1 0x3 ADD SLOAD DUP4 PUSH0 ADD SLOAD PUSH2 0x1270 SWAP1 SWAP2 SWAP1 PUSH4 0xFFFFFFFF AND JUMP JUMPDEST SWAP2 POP POP PUSH0 PUSH2 0xE77 DUP4 PUSH1 0x1 ADD SLOAD DUP4 PUSH2 0x12BE SWAP1 SWAP2 SWAP1 PUSH4 0xFFFFFFFF AND JUMP JUMPDEST SWAP2 POP POP PUSH2 0xE84 CALLER DUP3 PUSH2 0x12E4 JUMP JUMPDEST POP POP JUMPDEST PUSH2 0xED6 CALLER ADDRESS DUP6 DUP6 PUSH0 ADD PUSH0 SWAP1 SLOAD SWAP1 PUSH2 0x100 EXP SWAP1 DIV PUSH20 0xFFFFFFFFFFFFFFFFFFFFFFFFFFFFFFFFFFFFFFFF AND PUSH20 0xFFFFFFFFFFFFFFFFFFFFFFFFFFFFFFFFFFFFFFFF AND PUSH2 0x160F SWAP1 SWAP4 SWAP3 SWAP2 SWAP1 PUSH4 0xFFFFFFFF AND JUMP JUMPDEST PUSH2 0xEED DUP4 DUP4 PUSH1 0x4 ADD SLOAD PUSH2 0x1244 SWAP1 SWAP2 SWAP1 PUSH4 0xFFFFFFFF AND JUMP JUMPDEST SWAP1 POP DUP3 PUSH1 0x4 ADD PUSH0 DUP3 SWAP2 SWAP1 POP SSTORE POP PUSH2 0xF10 DUP4 DUP3 PUSH0 ADD SLOAD PUSH2 0x1244 SWAP1 SWAP2 SWAP1 PUSH4 0xFFFFFFFF AND JUMP JUMPDEST SWAP1 POP DUP2 PUSH0 ADD PUSH0 DUP3 SWAP2 SWAP1 POP SSTORE POP PUSH2 0xF36 DUP3 PUSH1 0x3 ADD SLOAD DUP3 PUSH0 ADD SLOAD PUSH2 0x1270 SWAP1 SWAP2 SWAP1 PUSH4 0xFFFFFFFF AND JUMP JUMPDEST SWAP1 POP DUP2 PUSH1 0x1 ADD PUSH0 DUP3 SWAP2 SWAP1 POP SSTORE POP DUP4 CALLER PUSH20 0xFFFFFFFFFFFFFFFFFFFFFFFFFFFFFFFFFFFFFFFF AND PUSH32 0x90890809C654F11D6E72A28FA60149770A0D11EC6C92319D6CEB2BB0A4EA1A15 DUP6 PUSH1 0x40 MLOAD PUSH2 0xF8A SWAP2 SWAP1 PUSH2 0x18F4 JUMP JUMPDEST PUSH1 0x40 MLOAD DUP1 SWAP2 SUB SWAP1 LOG3 POP POP POP POP JUMP JUMPDEST PUSH0 DUP1 PUSH1 0x5 DUP5 DUP2 SLOAD DUP2 LT PUSH2 0xFAE JUMPI PUSH2 0xFAD PUSH2 0x1CEB JUMP JUMPDEST JUMPDEST SWAP1 PUSH0 MSTORE PUSH1 0x20 PUSH0 KECCAK256 SWAP1 PUSH1 0x5 MUL ADD SWAP1 POP PUSH0 PUSH1 0x6 PUSH0 DUP7 DUP2 MSTORE PUSH1 0x20 ADD SWAP1 DUP2 MSTORE PUSH1 0x20 ADD PUSH0 KECCAK256 PUSH0 DUP6 PUSH20 0xFFFFFFFFFFFFFFFFFFFFFFFFFFFFFFFFFFFFFFFF AND PUSH20 0xFFFFFFFFFFFFFFFFFFFFFFFFFFFFFFFFFFFFFFFF AND DUP2 MSTORE PUSH1 0x20 ADD SWAP1 DUP2 MSTORE PUSH1 0x20 ADD PUSH0 KECCAK256 SWAP1 POP PUSH0 DUP3 PUSH1 0x3 ADD SLOAD SWAP1 POP PUSH0 DUP3 PUSH0 ADD SLOAD SWAP1 POP PUSH0 DUP5 PUSH1 0x4 ADD SLOAD SWAP1 POP DUP5 PUSH1 0x2 ADD SLOAD TIMESTAMP GT DUP1 ISZERO PUSH2 0x1035 JUMPI POP PUSH0 DUP2 EQ ISZERO JUMPDEST ISZERO PUSH2 0x10F1 JUMPI PUSH0 PUSH1 0x9 SLOAD TIMESTAMP LT PUSH2 0x104C JUMPI PUSH1 0x9 SLOAD PUSH2 0x104E JUMP JUMPDEST TIMESTAMP JUMPDEST SWAP1 POP PUSH0 PUSH1 0x9 SLOAD DUP8 PUSH1 0x2 ADD SLOAD LT PUSH2 0x1066 JUMPI PUSH1 0x9 SLOAD PUSH2 0x106C JUMP JUMPDEST DUP7 PUSH1 0x2 ADD SLOAD JUMPDEST SWAP1 POP PUSH0 PUSH2 0x1082 DUP3 DUP5 PUSH2 0x12BE SWAP1 SWAP2 SWAP1 PUSH4 0xFFFFFFFF AND JUMP JUMPDEST SWAP2 POP POP PUSH0 PUSH2 0x109B PUSH1 0x3 SLOAD DUP4 PUSH2 0x1270 SWAP1 SWAP2 SWAP1 PUSH4 0xFFFFFFFF AND JUMP JUMPDEST SWAP2 POP POP PUSH2 0x10B9 DUP10 PUSH1 0x1 ADD SLOAD PUSH1 0x7 SLOAD DUP4 PUSH2 0x141C SWAP1 SWAP3 SWAP2 SWAP1 PUSH4 0xFFFFFFFF AND JUMP JUMPDEST SWAP1 POP PUSH0 PUSH2 0x10CF DUP7 DUP4 PUSH2 0x151B SWAP1 SWAP2 SWAP1 PUSH4 0xFFFFFFFF AND JUMP JUMPDEST SWAP2 POP POP PUSH2 0x10E5 DUP2 DUP10 PUSH2 0x1244 SWAP1 SWAP2 SWAP1 PUSH4 0xFFFFFFFF AND JUMP JUMPDEST SWAP1 POP DUP1 SWAP9 POP POP POP POP POP POP POP JUMPDEST PUSH0 PUSH2 0x1105 DUP5 DUP5 PUSH2 0x1270 SWAP1 SWAP2 SWAP1 PUSH4 0xFFFFFFFF AND JUMP JUMPDEST SWAP2 POP POP PUSH0 PUSH2 0x1120 DUP7 PUSH1 0x1 ADD SLOAD DUP4 PUSH2 0x12BE SWAP1 SWAP2 SWAP1 PUSH4 0xFFFFFFFF AND JUMP JUMPDEST SWAP2 POP POP DUP1 SWAP8 POP POP POP POP POP POP POP POP SWAP3 SWAP2 POP POP JUMP JUMPDEST PUSH1 0x8 SLOAD DUP2 JUMP JUMPDEST PUSH2 0x1141 PUSH2 0x11BD JUMP JUMPDEST PUSH0 PUSH20 0xFFFFFFFFFFFFFFFFFFFFFFFFFFFFFFFFFFFFFFFF AND DUP2 PUSH20 0xFFFFFFFFFFFFFFFFFFFFFFFFFFFFFFFFFFFFFFFF AND SUB PUSH2 0x11B1 JUMPI PUSH0 PUSH1 0x40 MLOAD PUSH32 0x1E4FBDF700000000000000000000000000000000000000000000000000000000 DUP2 MSTORE PUSH1 0x4 ADD PUSH2 0x11A8 SWAP2 SWAP1 PUSH2 0x1BB8 JUMP JUMPDEST PUSH1 0x40 MLOAD DUP1 SWAP2 SUB SWAP1 REVERT JUMPDEST PUSH2 0x11BA DUP2 PUSH2 0x154E JUMP JUMPDEST POP JUMP JUMPDEST PUSH2 0x11C5 PUSH2 0x1691 JUMP JUMPDEST PUSH20 0xFFFFFFFFFFFFFFFFFFFFFFFFFFFFFFFFFFFFFFFF AND PUSH2 0x11E3 PUSH2 0xC19 JUMP JUMPDEST PUSH20 0xFFFFFFFFFFFFFFFFFFFFFFFFFFFFFFFFFFFFFFFF AND EQ PUSH2 0x1242 JUMPI PUSH2 0x1206 PUSH2 0x1691 JUMP JUMPDEST PUSH1 0x40 MLOAD PUSH32 0x118CDAA700000000000000000000000000000000000000000000000000000000 DUP2 MSTORE PUSH1 0x4 ADD PUSH2 0x1239 SWAP2 SWAP1 PUSH2 0x1BB8 JUMP JUMPDEST PUSH1 0x40 MLOAD DUP1 SWAP2 SUB SWAP1 REVERT JUMPDEST JUMP JUMPDEST PUSH0 DUP1 PUSH0 DUP4 DUP6 ADD SWAP1 POP DUP5 DUP2 LT ISZERO PUSH2 0x1260 JUMPI PUSH0 DUP1 SWAP3 POP SWAP3 POP POP PUSH2 0x1269 JUMP JUMPDEST PUSH1 0x1 DUP2 SWAP3 POP SWAP3 POP POP JUMPDEST SWAP3 POP SWAP3 SWAP1 POP JUMP JUMPDEST PUSH0 DUP1 PUSH0 DUP5 SUB PUSH2 0x1285 JUMPI PUSH1 0x1 PUSH0 SWAP2 POP SWAP2 POP PUSH2 0x12B7 JUMP JUMPDEST PUSH0 DUP4 DUP6 MUL SWAP1 POP DUP4 DUP6 DUP3 DUP2 PUSH2 0x129C JUMPI PUSH2 0x129B PUSH2 0x1E77 JUMP JUMPDEST JUMPDEST DIV EQ PUSH2 0x12AE JUMPI PUSH0 DUP1 SWAP3 POP SWAP3 POP POP PUSH2 0x12B7 JUMP JUMPDEST PUSH1 0x1 DUP2 SWAP3 POP SWAP3 POP POP JUMPDEST SWAP3 POP SWAP3 SWAP1 POP JUMP JUMPDEST PUSH0 DUP1 DUP4 DUP4 GT ISZERO PUSH2 0x12D3 JUMPI PUSH0 DUP1 SWAP2 POP SWAP2 POP PUSH2 0x12DD JUMP JUMPDEST PUSH1 0x1 DUP4 DUP6 SUB SWAP2 POP SWAP2 POP JUMPDEST SWAP3 POP SWAP3 SWAP1 POP JUMP JUMPDEST PUSH1 0x1 PUSH0 SWAP1 SLOAD SWAP1 PUSH2 0x100 EXP SWAP1 DIV PUSH20 0xFFFFFFFFFFFFFFFFFFFFFFFFFFFFFFFFFFFFFFFF AND PUSH20 0xFFFFFFFFFFFFFFFFFFFFFFFFFFFFFFFFFFFFFFFF AND PUSH4 0xA9059CBB DUP4 DUP4 PUSH1 0x40 MLOAD DUP4 PUSH4 0xFFFFFFFF AND PUSH1 0xE0 SHL DUP2 MSTORE PUSH1 0x4 ADD PUSH2 0x1340 SWAP3 SWAP2 SWAP1 PUSH2 0x1EA4 JUMP JUMPDEST PUSH1 0x20 PUSH1 0x40 MLOAD DUP1 DUP4 SUB DUP2 PUSH0 DUP8 GAS CALL ISZERO DUP1 ISZERO PUSH2 0x135C JUMPI RETURNDATASIZE PUSH0 DUP1 RETURNDATACOPY RETURNDATASIZE PUSH0 REVERT JUMPDEST POP POP POP POP PUSH1 0x40 MLOAD RETURNDATASIZE PUSH1 0x1F NOT PUSH1 0x1F DUP3 ADD AND DUP3 ADD DUP1 PUSH1 0x40 MSTORE POP DUP2 ADD SWAP1 PUSH2 0x1380 SWAP2 SWAP1 PUSH2 0x1EDF JUMP JUMPDEST POP DUP1 PUSH1 0x2 PUSH0 DUP3 DUP3 SLOAD PUSH2 0x1392 SWAP2 SWAP1 PUSH2 0x1E44 JUMP JUMPDEST SWAP3 POP POP DUP2 SWAP1 SSTORE POP POP POP JUMP JUMPDEST PUSH2 0x1417 DUP4 DUP5 PUSH20 0xFFFFFFFFFFFFFFFFFFFFFFFFFFFFFFFFFFFFFFFF AND PUSH4 0xA9059CBB DUP6 DUP6 PUSH1 0x40 MLOAD PUSH1 0x24 ADD PUSH2 0x13D0 SWAP3 SWAP2 SWAP1 PUSH2 0x1EA4 JUMP JUMPDEST PUSH1 0x40 MLOAD PUSH1 0x20 DUP2 DUP4 SUB SUB DUP2 MSTORE SWAP1 PUSH1 0x40 MSTORE SWAP2 POP PUSH1 0xE0 SHL PUSH1 0x20 DUP3 ADD DUP1 MLOAD PUSH28 0xFFFFFFFFFFFFFFFFFFFFFFFFFFFFFFFFFFFFFFFFFFFFFFFFFFFFFFFF DUP4 DUP2 DUP4 AND OR DUP4 MSTORE POP POP POP POP PUSH2 0x1698 JUMP JUMPDEST POP POP POP JUMP JUMPDEST PUSH0 DUP1 DUP4 DUP6 MUL SWAP1 POP PUSH0 DUP1 NOT DUP6 DUP8 MULMOD DUP3 DUP2 LT DUP4 DUP3 SUB SUB SWAP2 POP POP PUSH0 DUP2 SUB PUSH2 0x1454 JUMPI DUP4 DUP3 DUP2 PUSH2 0x144A JUMPI PUSH2 0x1449 PUSH2 0x1E77 JUMP JUMPDEST JUMPDEST DIV SWAP3 POP POP POP PUSH2 0x1514 JUMP JUMPDEST DUP1 DUP5 GT PUSH2 0x148D JUMPI PUSH1 0x40 MLOAD PUSH32 0x227BC15300000000000000000000000000000000000000000000000000000000 DUP2 MSTORE PUSH1 0x4 ADD PUSH1 0x40 MLOAD DUP1 SWAP2 SUB SWAP1 REVERT JUMPDEST PUSH0 DUP5 DUP7 DUP9 MULMOD SWAP1 POP DUP3 DUP2 GT DUP3 SUB SWAP2 POP DUP1 DUP4 SUB SWAP3 POP PUSH0 DUP6 PUSH0 SUB DUP7 AND SWAP1 POP DUP1 DUP7 DIV SWAP6 POP DUP1 DUP5 DIV SWAP4 POP PUSH1 0x1 DUP2 DUP3 PUSH0 SUB DIV ADD SWAP1 POP DUP1 DUP4 MUL DUP5 OR SWAP4 POP PUSH0 PUSH1 0x2 DUP8 PUSH1 0x3 MUL XOR SWAP1 POP DUP1 DUP8 MUL PUSH1 0x2 SUB DUP2 MUL SWAP1 POP DUP1 DUP8 MUL PUSH1 0x2 SUB DUP2 MUL SWAP1 POP DUP1 DUP8 MUL PUSH1 0x2 SUB DUP2 MUL SWAP1 POP DUP1 DUP8 MUL PUSH1 0x2 SUB DUP2 MUL SWAP1 POP DUP1 DUP8 MUL PUSH1 0x2 SUB DUP2 MUL SWAP1 POP DUP1 DUP8 MUL PUSH1 0x2 SUB DUP2 MUL SWAP1 POP DUP1 DUP6 MUL SWAP6 POP POP POP POP POP POP JUMPDEST SWAP4 SWAP3 POP POP POP JUMP JUMPDEST PUSH0 DUP1 PUSH0 DUP4 SUB PUSH2 0x152F JUMPI PUSH0 DUP1 SWAP2 POP SWAP2 POP PUSH2 0x1547 JUMP JUMPDEST PUSH1 0x1 DUP4 DUP6 DUP2 PUSH2 0x1541 JUMPI PUSH2 0x1540 PUSH2 0x1E77 JUMP JUMPDEST JUMPDEST DIV SWAP2 POP SWAP2 POP JUMPDEST SWAP3 POP SWAP3 SWAP1 POP JUMP JUMPDEST PUSH0 DUP1 PUSH0 SWAP1 SLOAD SWAP1 PUSH2 0x100 EXP SWAP1 DIV PUSH20 0xFFFFFFFFFFFFFFFFFFFFFFFFFFFFFFFFFFFFFFFF AND SWAP1 POP DUP2 PUSH0 DUP1 PUSH2 0x100 EXP DUP2 SLOAD DUP2 PUSH20 0xFFFFFFFFFFFFFFFFFFFFFFFFFFFFFFFFFFFFFFFF MUL NOT AND SWAP1 DUP4 PUSH20 0xFFFFFFFFFFFFFFFFFFFFFFFFFFFFFFFFFFFFFFFF AND MUL OR SWAP1 SSTORE POP DUP2 PUSH20 0xFFFFFFFFFFFFFFFFFFFFFFFFFFFFFFFFFFFFFFFF AND DUP2 PUSH20 0xFFFFFFFFFFFFFFFFFFFFFFFFFFFFFFFFFFFFFFFF AND PUSH32 0x8BE0079C531659141344CD1FD0A4F28419497F9722A3DAAFE3B4186F6B6457E0 PUSH1 0x40 MLOAD PUSH1 0x40 MLOAD DUP1 SWAP2 SUB SWAP1 LOG3 POP POP JUMP JUMPDEST PUSH2 0x168B DUP5 DUP6 PUSH20 0xFFFFFFFFFFFFFFFFFFFFFFFFFFFFFFFFFFFFFFFF AND PUSH4 0x23B872DD DUP7 DUP7 DUP7 PUSH1 0x40 MLOAD PUSH1 0x24 ADD PUSH2 0x1644 SWAP4 SWAP3 SWAP2 SWAP1 PUSH2 0x1F0A JUMP JUMPDEST PUSH1 0x40 MLOAD PUSH1 0x20 DUP2 DUP4 SUB SUB DUP2 MSTORE SWAP1 PUSH1 0x40 MSTORE SWAP2 POP PUSH1 0xE0 SHL PUSH1 0x20 DUP3 ADD DUP1 MLOAD PUSH28 0xFFFFFFFFFFFFFFFFFFFFFFFFFFFFFFFFFFFFFFFFFFFFFFFFFFFFFFFF DUP4 DUP2 DUP4 AND OR DUP4 MSTORE POP POP POP POP PUSH2 0x1698 JUMP JUMPDEST POP POP POP POP JUMP JUMPDEST PUSH0 CALLER SWAP1 POP SWAP1 JUMP JUMPDEST PUSH0 PUSH2 0x16C2 DUP3 DUP5 PUSH20 0xFFFFFFFFFFFFFFFFFFFFFFFFFFFFFFFFFFFFFFFF AND PUSH2 0x172D SWAP1 SWAP2 SWAP1 PUSH4 0xFFFFFFFF AND JUMP JUMPDEST SWAP1 POP PUSH0 DUP2 MLOAD EQ ISZERO DUP1 ISZERO PUSH2 0x16E6 JUMPI POP DUP1 DUP1 PUSH1 0x20 ADD SWAP1 MLOAD DUP2 ADD SWAP1 PUSH2 0x16E4 SWAP2 SWAP1 PUSH2 0x1EDF JUMP JUMPDEST ISZERO JUMPDEST ISZERO PUSH2 0x1728 JUMPI DUP3 PUSH1 0x40 MLOAD PUSH32 0x5274AFE700000000000000000000000000000000000000000000000000000000 DUP2 MSTORE PUSH1 0x4 ADD PUSH2 0x171F SWAP2 SWAP1 PUSH2 0x1BB8 JUMP JUMPDEST PUSH1 0x40 MLOAD DUP1 SWAP2 SUB SWAP1 REVERT JUMPDEST POP POP POP JUMP JUMPDEST PUSH1 0x60 PUSH2 0x173A DUP4 DUP4 PUSH0 PUSH2 0x1742 JUMP JUMPDEST SWAP1 POP SWAP3 SWAP2 POP POP JUMP JUMPDEST PUSH1 0x60 DUP2 SELFBALANCE LT ISZERO PUSH2 0x1789 JUMPI ADDRESS PUSH1 0x40 MLOAD PUSH32 0xCD78605900000000000000000000000000000000000000000000000000000000 DUP2 MSTORE PUSH1 0x4 ADD PUSH2 0x1780 SWAP2 SWAP1 PUSH2 0x1BB8 JUMP JUMPDEST PUSH1 0x40 MLOAD DUP1 SWAP2 SUB SWAP1 REVERT JUMPDEST PUSH0 DUP1 DUP6 PUSH20 0xFFFFFFFFFFFFFFFFFFFFFFFFFFFFFFFFFFFFFFFF AND DUP5 DUP7 PUSH1 0x40 MLOAD PUSH2 0x17B1 SWAP2 SWAP1 PUSH2 0x1FAB JUMP JUMPDEST PUSH0 PUSH1 0x40 MLOAD DUP1 DUP4 SUB DUP2 DUP6 DUP8 GAS CALL SWAP3 POP POP POP RETURNDATASIZE DUP1 PUSH0 DUP2 EQ PUSH2 0x17EB JUMPI PUSH1 0x40 MLOAD SWAP2 POP PUSH1 0x1F NOT PUSH1 0x3F RETURNDATASIZE ADD AND DUP3 ADD PUSH1 0x40 MSTORE RETURNDATASIZE DUP3 MSTORE RETURNDATASIZE PUSH0 PUSH1 0x20 DUP5 ADD RETURNDATACOPY PUSH2 0x17F0 JUMP JUMPDEST PUSH1 0x60 SWAP2 POP JUMPDEST POP SWAP2 POP SWAP2 POP PUSH2 0x1800 DUP7 DUP4 DUP4 PUSH2 0x180B JUMP JUMPDEST SWAP3 POP POP POP SWAP4 SWAP3 POP POP POP JUMP JUMPDEST PUSH1 0x60 DUP3 PUSH2 0x1820 JUMPI PUSH2 0x181B DUP3 PUSH2 0x1898 JUMP JUMPDEST PUSH2 0x1890 JUMP JUMPDEST PUSH0 DUP3 MLOAD EQ DUP1 ISZERO PUSH2 0x1846 JUMPI POP PUSH0 DUP5 PUSH20 0xFFFFFFFFFFFFFFFFFFFFFFFFFFFFFFFFFFFFFFFF AND EXTCODESIZE EQ JUMPDEST ISZERO PUSH2 0x1888 JUMPI DUP4 PUSH1 0x40 MLOAD PUSH32 0x9996B31500000000000000000000000000000000000000000000000000000000 DUP2 MSTORE PUSH1 0x4 ADD PUSH2 0x187F SWAP2 SWAP1 PUSH2 0x1BB8 JUMP JUMPDEST PUSH1 0x40 MLOAD DUP1 SWAP2 SUB SWAP1 REVERT JUMPDEST DUP2 SWAP1 POP PUSH2 0x1891 JUMP JUMPDEST JUMPDEST SWAP4 SWAP3 POP POP POP JUMP JUMPDEST PUSH0 DUP2 MLOAD GT ISZERO PUSH2 0x18AA JUMPI DUP1 MLOAD DUP1 DUP3 PUSH1 0x20 ADD REVERT JUMPDEST PUSH1 0x40 MLOAD PUSH32 0x1425EA4200000000000000000000000000000000000000000000000000000000 DUP2 MSTORE PUSH1 0x4 ADD PUSH1 0x40 MLOAD DUP1 SWAP2 SUB SWAP1 REVERT JUMPDEST PUSH0 DUP2 SWAP1 POP SWAP2 SWAP1 POP JUMP JUMPDEST PUSH2 0x18EE DUP2 PUSH2 0x18DC JUMP JUMPDEST DUP3 MSTORE POP POP JUMP JUMPDEST PUSH0 PUSH1 0x20 DUP3 ADD SWAP1 POP PUSH2 0x1907 PUSH0 DUP4 ADD DUP5 PUSH2 0x18E5 JUMP JUMPDEST SWAP3 SWAP2 POP POP JUMP JUMPDEST PUSH0 DUP1 REVERT JUMPDEST PUSH2 0x191A DUP2 PUSH2 0x18DC JUMP JUMPDEST DUP2 EQ PUSH2 0x1924 JUMPI PUSH0 DUP1 REVERT JUMPDEST POP JUMP JUMPDEST PUSH0 DUP2 CALLDATALOAD SWAP1 POP PUSH2 0x1935 DUP2 PUSH2 0x1911 JUMP JUMPDEST SWAP3 SWAP2 POP POP JUMP JUMPDEST PUSH0 PUSH1 0x20 DUP3 DUP5 SUB SLT ISZERO PUSH2 0x1950 JUMPI PUSH2 0x194F PUSH2 0x190D JUMP JUMPDEST JUMPDEST PUSH0 PUSH2 0x195D DUP5 DUP3 DUP6 ADD PUSH2 0x1927 JUMP JUMPDEST SWAP2 POP POP SWAP3 SWAP2 POP POP JUMP JUMPDEST PUSH0 PUSH20 0xFFFFFFFFFFFFFFFFFFFFFFFFFFFFFFFFFFFFFFFF DUP3 AND SWAP1 POP SWAP2 SWAP1 POP JUMP JUMPDEST PUSH0 DUP2 SWAP1 POP SWAP2 SWAP1 POP JUMP JUMPDEST PUSH0 PUSH2 0x19A8 PUSH2 0x19A3 PUSH2 0x199E DUP5 PUSH2 0x1966 JUMP JUMPDEST PUSH2 0x1985 JUMP JUMPDEST PUSH2 0x1966 JUMP JUMPDEST SWAP1 POP SWAP2 SWAP1 POP JUMP JUMPDEST PUSH0 PUSH2 0x19B9 DUP3 PUSH2 0x198E JUMP JUMPDEST SWAP1 POP SWAP2 SWAP1 POP JUMP JUMPDEST PUSH0 PUSH2 0x19CA DUP3 PUSH2 0x19AF JUMP JUMPDEST SWAP1 POP SWAP2 SWAP1 POP JUMP JUMPDEST PUSH2 0x19DA DUP2 PUSH2 0x19C0 JUMP JUMPDEST DUP3 MSTORE POP POP JUMP JUMPDEST PUSH0 PUSH1 0xA0 DUP3 ADD SWAP1 POP PUSH2 0x19F3 PUSH0 DUP4 ADD DUP9 PUSH2 0x19D1 JUMP JUMPDEST PUSH2 0x1A00 PUSH1 0x20 DUP4 ADD DUP8 PUSH2 0x18E5 JUMP JUMPDEST PUSH2 0x1A0D PUSH1 0x40 DUP4 ADD DUP7 PUSH2 0x18E5 JUMP JUMPDEST PUSH2 0x1A1A PUSH1 0x60 DUP4 ADD DUP6 PUSH2 0x18E5 JUMP JUMPDEST PUSH2 0x1A27 PUSH1 0x80 DUP4 ADD DUP5 PUSH2 0x18E5 JUMP JUMPDEST SWAP7 SWAP6 POP POP POP POP POP POP JUMP JUMPDEST PUSH0 PUSH2 0x1A3B DUP3 PUSH2 0x1966 JUMP JUMPDEST SWAP1 POP SWAP2 SWAP1 POP JUMP JUMPDEST PUSH0 PUSH2 0x1A4C DUP3 PUSH2 0x1A31 JUMP JUMPDEST SWAP1 POP SWAP2 SWAP1 POP JUMP JUMPDEST PUSH2 0x1A5C DUP2 PUSH2 0x1A42 JUMP JUMPDEST DUP2 EQ PUSH2 0x1A66 JUMPI PUSH0 DUP1 REVERT JUMPDEST POP JUMP JUMPDEST PUSH0 DUP2 CALLDATALOAD SWAP1 POP PUSH2 0x1A77 DUP2 PUSH2 0x1A53 JUMP JUMPDEST SWAP3 SWAP2 POP POP JUMP JUMPDEST PUSH0 DUP2 ISZERO ISZERO SWAP1 POP SWAP2 SWAP1 POP JUMP JUMPDEST PUSH2 0x1A91 DUP2 PUSH2 0x1A7D JUMP JUMPDEST DUP2 EQ PUSH2 0x1A9B JUMPI PUSH0 DUP1 REVERT JUMPDEST POP JUMP JUMPDEST PUSH0 DUP2 CALLDATALOAD SWAP1 POP PUSH2 0x1AAC DUP2 PUSH2 0x1A88 JUMP JUMPDEST SWAP3 SWAP2 POP POP JUMP JUMPDEST PUSH0 DUP1 PUSH0 PUSH1 0x60 DUP5 DUP7 SUB SLT ISZERO PUSH2 0x1AC9 JUMPI PUSH2 0x1AC8 PUSH2 0x190D JUMP JUMPDEST JUMPDEST PUSH0 PUSH2 0x1AD6 DUP7 DUP3 DUP8 ADD PUSH2 0x1927 JUMP JUMPDEST SWAP4 POP POP PUSH1 0x20 PUSH2 0x1AE7 DUP7 DUP3 DUP8 ADD PUSH2 0x1A69 JUMP JUMPDEST SWAP3 POP POP PUSH1 0x40 PUSH2 0x1AF8 DUP7 DUP3 DUP8 ADD PUSH2 0x1A9E JUMP JUMPDEST SWAP2 POP POP SWAP3 POP SWAP3 POP SWAP3 JUMP JUMPDEST PUSH0 DUP1 PUSH1 0x40 DUP4 DUP6 SUB SLT ISZERO PUSH2 0x1B18 JUMPI PUSH2 0x1B17 PUSH2 0x190D JUMP JUMPDEST JUMPDEST PUSH0 PUSH2 0x1B25 DUP6 DUP3 DUP7 ADD PUSH2 0x1927 JUMP JUMPDEST SWAP3 POP POP PUSH1 0x20 PUSH2 0x1B36 DUP6 DUP3 DUP7 ADD PUSH2 0x1927 JUMP JUMPDEST SWAP2 POP POP SWAP3 POP SWAP3 SWAP1 POP JUMP JUMPDEST PUSH0 DUP1 PUSH0 PUSH1 0x60 DUP5 DUP7 SUB SLT ISZERO PUSH2 0x1B57 JUMPI PUSH2 0x1B56 PUSH2 0x190D JUMP JUMPDEST JUMPDEST PUSH0 PUSH2 0x1B64 DUP7 DUP3 DUP8 ADD PUSH2 0x1927 JUMP JUMPDEST SWAP4 POP POP PUSH1 0x20 PUSH2 0x1B75 DUP7 DUP3 DUP8 ADD PUSH2 0x1927 JUMP JUMPDEST SWAP3 POP POP PUSH1 0x40 PUSH2 0x1B86 DUP7 DUP3 DUP8 ADD PUSH2 0x1A9E JUMP JUMPDEST SWAP2 POP POP SWAP3 POP SWAP3 POP SWAP3 JUMP JUMPDEST PUSH0 PUSH1 0x20 DUP3 ADD SWAP1 POP PUSH2 0x1BA3 PUSH0 DUP4 ADD DUP5 PUSH2 0x19D1 JUMP JUMPDEST SWAP3 SWAP2 POP POP JUMP JUMPDEST PUSH2 0x1BB2 DUP2 PUSH2 0x1A31 JUMP JUMPDEST DUP3 MSTORE POP POP JUMP JUMPDEST PUSH0 PUSH1 0x20 DUP3 ADD SWAP1 POP PUSH2 0x1BCB PUSH0 DUP4 ADD DUP5 PUSH2 0x1BA9 JUMP JUMPDEST SWAP3 SWAP2 POP POP JUMP JUMPDEST PUSH2 0x1BDA DUP2 PUSH2 0x1A31 JUMP JUMPDEST DUP2 EQ PUSH2 0x1BE4 JUMPI PUSH0 DUP1 REVERT JUMPDEST POP JUMP JUMPDEST PUSH0 DUP2 CALLDATALOAD SWAP1 POP PUSH2 0x1BF5 DUP2 PUSH2 0x1BD1 JUMP JUMPDEST SWAP3 SWAP2 POP POP JUMP JUMPDEST PUSH0 DUP1 PUSH1 0x40 DUP4 DUP6 SUB SLT ISZERO PUSH2 0x1C11 JUMPI PUSH2 0x1C10 PUSH2 0x190D JUMP JUMPDEST JUMPDEST PUSH0 PUSH2 0x1C1E DUP6 DUP3 DUP7 ADD PUSH2 0x1927 JUMP JUMPDEST SWAP3 POP POP PUSH1 0x20 PUSH2 0x1C2F DUP6 DUP3 DUP7 ADD PUSH2 0x1BE7 JUMP JUMPDEST SWAP2 POP POP SWAP3 POP SWAP3 SWAP1 POP JUMP JUMPDEST PUSH0 PUSH1 0x40 DUP3 ADD SWAP1 POP PUSH2 0x1C4C PUSH0 DUP4 ADD DUP6 PUSH2 0x18E5 JUMP JUMPDEST PUSH2 0x1C59 PUSH1 0x20 DUP4 ADD DUP5 PUSH2 0x18E5 JUMP JUMPDEST SWAP4 SWAP3 POP POP POP JUMP JUMPDEST PUSH0 PUSH1 0x20 DUP3 DUP5 SUB SLT ISZERO PUSH2 0x1C75 JUMPI PUSH2 0x1C74 PUSH2 0x190D JUMP JUMPDEST JUMPDEST PUSH0 PUSH2 0x1C82 DUP5 DUP3 DUP6 ADD PUSH2 0x1BE7 JUMP JUMPDEST SWAP2 POP POP SWAP3 SWAP2 POP POP JUMP JUMPDEST PUSH32 0x4E487B7100000000000000000000000000000000000000000000000000000000 PUSH0 MSTORE PUSH1 0x11 PUSH1 0x4 MSTORE PUSH1 0x24 PUSH0 REVERT JUMPDEST PUSH0 PUSH2 0x1CC2 DUP3 PUSH2 0x18DC JUMP JUMPDEST SWAP2 POP PUSH2 0x1CCD DUP4 PUSH2 0x18DC JUMP JUMPDEST SWAP3 POP DUP3 DUP3 SUB SWAP1 POP DUP2 DUP2 GT ISZERO PUSH2 0x1CE5 JUMPI PUSH2 0x1CE4 PUSH2 0x1C8B JUMP JUMPDEST JUMPDEST SWAP3 SWAP2 POP POP JUMP JUMPDEST PUSH32 0x4E487B7100000000000000000000000000000000000000000000000000000000 PUSH0 MSTORE PUSH1 0x32 PUSH1 0x4 MSTORE PUSH1 0x24 PUSH0 REVERT JUMPDEST PUSH0 DUP3 DUP3 MSTORE PUSH1 0x20 DUP3 ADD SWAP1 POP SWAP3 SWAP2 POP POP JUMP JUMPDEST PUSH32 0x77697468647261773A2063616E2774207769746864726177206D6F7265207468 PUSH0 DUP3 ADD MSTORE PUSH32 0x616E206465706F73697400000000000000000000000000000000000000000000 PUSH1 0x20 DUP3 ADD MSTORE POP JUMP JUMPDEST PUSH0 PUSH2 0x1D82 PUSH1 0x2A DUP4 PUSH2 0x1D18 JUMP JUMPDEST SWAP2 POP PUSH2 0x1D8D DUP3 PUSH2 0x1D28 JUMP JUMPDEST PUSH1 0x40 DUP3 ADD SWAP1 POP SWAP2 SWAP1 POP JUMP JUMPDEST PUSH0 PUSH1 0x20 DUP3 ADD SWAP1 POP DUP2 DUP2 SUB PUSH0 DUP4 ADD MSTORE PUSH2 0x1DAF DUP2 PUSH2 0x1D76 JUMP JUMPDEST SWAP1 POP SWAP2 SWAP1 POP JUMP JUMPDEST PUSH32 0x66756E643A20746F6F206C6174652C20746865206661726D20697320636C6F73 PUSH0 DUP3 ADD MSTORE PUSH32 0x6564000000000000000000000000000000000000000000000000000000000000 PUSH1 0x20 DUP3 ADD MSTORE POP JUMP JUMPDEST PUSH0 PUSH2 0x1E10 PUSH1 0x22 DUP4 PUSH2 0x1D18 JUMP JUMPDEST SWAP2 POP PUSH2 0x1E1B DUP3 PUSH2 0x1DB6 JUMP JUMPDEST PUSH1 0x40 DUP3 ADD SWAP1 POP SWAP2 SWAP1 POP JUMP JUMPDEST PUSH0 PUSH1 0x20 DUP3 ADD SWAP1 POP DUP2 DUP2 SUB PUSH0 DUP4 ADD MSTORE PUSH2 0x1E3D DUP2 PUSH2 0x1E04 JUMP JUMPDEST SWAP1 POP SWAP2 SWAP1 POP JUMP JUMPDEST PUSH0 PUSH2 0x1E4E DUP3 PUSH2 0x18DC JUMP JUMPDEST SWAP2 POP PUSH2 0x1E59 DUP4 PUSH2 0x18DC JUMP JUMPDEST SWAP3 POP DUP3 DUP3 ADD SWAP1 POP DUP1 DUP3 GT ISZERO PUSH2 0x1E71 JUMPI PUSH2 0x1E70 PUSH2 0x1C8B JUMP JUMPDEST JUMPDEST SWAP3 SWAP2 POP POP JUMP JUMPDEST PUSH32 0x4E487B7100000000000000000000000000000000000000000000000000000000 PUSH0 MSTORE PUSH1 0x12 PUSH1 0x4 MSTORE PUSH1 0x24 PUSH0 REVERT JUMPDEST PUSH0 PUSH1 0x40 DUP3 ADD SWAP1 POP PUSH2 0x1EB7 PUSH0 DUP4 ADD DUP6 PUSH2 0x1BA9 JUMP JUMPDEST PUSH2 0x1EC4 PUSH1 0x20 DUP4 ADD DUP5 PUSH2 0x18E5 JUMP JUMPDEST SWAP4 SWAP3 POP POP POP JUMP JUMPDEST PUSH0 DUP2 MLOAD SWAP1 POP PUSH2 0x1ED9 DUP2 PUSH2 0x1A88 JUMP JUMPDEST SWAP3 SWAP2 POP POP JUMP JUMPDEST PUSH0 PUSH1 0x20 DUP3 DUP5 SUB SLT ISZERO PUSH2 0x1EF4 JUMPI PUSH2 0x1EF3 PUSH2 0x190D JUMP JUMPDEST JUMPDEST PUSH0 PUSH2 0x1F01 DUP5 DUP3 DUP6 ADD PUSH2 0x1ECB JUMP JUMPDEST SWAP2 POP POP SWAP3 SWAP2 POP POP JUMP JUMPDEST PUSH0 PUSH1 0x60 DUP3 ADD SWAP1 POP PUSH2 0x1F1D PUSH0 DUP4 ADD DUP7 PUSH2 0x1BA9 JUMP JUMPDEST PUSH2 0x1F2A PUSH1 0x20 DUP4 ADD DUP6 PUSH2 0x1BA9 JUMP JUMPDEST PUSH2 0x1F37 PUSH1 0x40 DUP4 ADD DUP5 PUSH2 0x18E5 JUMP JUMPDEST SWAP5 SWAP4 POP POP POP POP JUMP JUMPDEST PUSH0 DUP2 MLOAD SWAP1 POP SWAP2 SWAP1 POP JUMP JUMPDEST PUSH0 DUP2 SWAP1 POP SWAP3 SWAP2 POP POP JUMP JUMPDEST PUSH0 JUMPDEST DUP4 DUP2 LT ISZERO PUSH2 0x1F70 JUMPI DUP1 DUP3 ADD MLOAD DUP2 DUP5 ADD MSTORE PUSH1 0x20 DUP2 ADD SWAP1 POP PUSH2 0x1F55 JUMP JUMPDEST PUSH0 DUP5 DUP5 ADD MSTORE POP POP POP POP JUMP JUMPDEST PUSH0 PUSH2 0x1F85 DUP3 PUSH2 0x1F3F JUMP JUMPDEST PUSH2 0x1F8F DUP2 DUP6 PUSH2 0x1F49 JUMP JUMPDEST SWAP4 POP PUSH2 0x1F9F DUP2 DUP6 PUSH1 0x20 DUP7 ADD PUSH2 0x1F53 JUMP JUMPDEST DUP1 DUP5 ADD SWAP2 POP POP SWAP3 SWAP2 POP POP JUMP JUMPDEST PUSH0 PUSH2 0x1FB6 DUP3 DUP5 PUSH2 0x1F7B JUMP JUMPDEST SWAP2 POP DUP2 SWAP1 POP SWAP3 SWAP2 POP POP JUMP INVALID LOG2 PUSH5 0x6970667358 0x22 SLT KECCAK256 CODESIZE MSTORE CREATE2 0x2E PUSH28 0x5A406FEC373A239AA07D0230E1A99AFACB40DDD9A7E2ED48E9882564 PUSH20 0x6F6C634300081800330000000000000000000000 "
				},
				"gasEstimates": {
					"creation": {
						"codeDepositCost": "1636600",
						"executionCost": "infinite",
						"totalCost": "infinite"
					},
					"external": {
						"add(uint256,address,bool)": "infinite",
						"deposit(uint256,uint256)": "infinite",
						"deposited(uint256,address)": "infinite",
						"emergencyWithdraw(uint256)": "infinite",
						"endTimestamp()": "2447",
						"erc20()": "infinite",
						"fund(uint256)": "infinite",
						"massUpdatePools()": "infinite",
						"owner()": "2582",
						"paidOut()": "2514",
						"pending(uint256,address)": "infinite",
						"poolInfo(uint256)": "infinite",
						"poolLength()": "2464",
						"renounceOwnership()": "infinite",
						"rewardPerSecond()": "2514",
						"set(uint256,uint256,bool)": "infinite",
						"startTimestamp()": "2535",
						"totalAllocPoint()": "2515",
						"totalPending()": "infinite",
						"totalRewards()": "2471",
						"transferOwnership(address)": "infinite",
						"updatePool(uint256)": "infinite",
						"userInfo(uint256,address)": "infinite",
						"withdraw(uint256,uint256)": "infinite"
					},
					"internal": {
						"erc20Transfer(address,uint256)": "infinite"
					}
				},
				"methodIdentifiers": {
					"add(uint256,address,bool)": "1eaaa045",
					"deposit(uint256,uint256)": "e2bbb158",
					"deposited(uint256,address)": "a2383106",
					"emergencyWithdraw(uint256)": "5312ea8e",
					"endTimestamp()": "a85adeab",
					"erc20()": "785e9e86",
					"fund(uint256)": "ca1d209d",
					"massUpdatePools()": "630b5ba1",
					"owner()": "8da5cb5b",
					"paidOut()": "5c76ca2d",
					"pending(uint256,address)": "e4c75c27",
					"poolInfo(uint256)": "1526fe27",
					"poolLength()": "081e3eda",
					"renounceOwnership()": "715018a6",
					"rewardPerSecond()": "8f10369a",
					"set(uint256,uint256,bool)": "64482f79",
					"startTimestamp()": "e6fd48bc",
					"totalAllocPoint()": "17caf6f1",
					"totalPending()": "3f90916a",
					"totalRewards()": "0e15561a",
					"transferOwnership(address)": "f2fde38b",
					"updatePool(uint256)": "51eb05a6",
					"userInfo(uint256,address)": "93f1a40b",
					"withdraw(uint256,uint256)": "441a3e70"
				}
			},
			"storageLayout": {
				"storage": [
					{
						"astId": 8,
						"contract": "contracts/FarmingC2N.sol:FarmingC2N",
						"label": "_owner",
						"offset": 0,
						"slot": "0",
						"type": "t_address"
					},
					{
						"astId": 1923,
						"contract": "contracts/FarmingC2N.sol:FarmingC2N",
						"label": "erc20",
						"offset": 0,
						"slot": "1",
						"type": "t_contract(IERC20)225"
					},
					{
						"astId": 1925,
						"contract": "contracts/FarmingC2N.sol:FarmingC2N",
						"label": "paidOut",
						"offset": 0,
						"slot": "2",
						"type": "t_uint256"
					},
					{
						"astId": 1927,
						"contract": "contracts/FarmingC2N.sol:FarmingC2N",
						"label": "rewardPerSecond",
						"offset": 0,
						"slot": "3",
						"type": "t_uint256"
					},
					{
						"astId": 1929,
						"contract": "contracts/FarmingC2N.sol:FarmingC2N",
						"label": "totalRewards",
						"offset": 0,
						"slot": "4",
						"type": "t_uint256"
					},
					{
						"astId": 1933,
						"contract": "contracts/FarmingC2N.sol:FarmingC2N",
						"label": "poolInfo",
						"offset": 0,
						"slot": "5",
						"type": "t_array(t_struct(PoolInfo)1920_storage)dyn_storage"
					},
					{
						"astId": 1940,
						"contract": "contracts/FarmingC2N.sol:FarmingC2N",
						"label": "userInfo",
						"offset": 0,
						"slot": "6",
						"type": "t_mapping(t_uint256,t_mapping(t_address,t_struct(UserInfo)1908_storage))"
					},
					{
						"astId": 1942,
						"contract": "contracts/FarmingC2N.sol:FarmingC2N",
						"label": "totalAllocPoint",
						"offset": 0,
						"slot": "7",
						"type": "t_uint256"
					},
					{
						"astId": 1944,
						"contract": "contracts/FarmingC2N.sol:FarmingC2N",
						"label": "startTimestamp",
						"offset": 0,
						"slot": "8",
						"type": "t_uint256"
					},
					{
						"astId": 1946,
						"contract": "contracts/FarmingC2N.sol:FarmingC2N",
						"label": "endTimestamp",
						"offset": 0,
						"slot": "9",
						"type": "t_uint256"
					}
				],
				"types": {
					"t_address": {
						"encoding": "inplace",
						"label": "address",
						"numberOfBytes": "20"
					},
					"t_array(t_struct(PoolInfo)1920_storage)dyn_storage": {
						"base": "t_struct(PoolInfo)1920_storage",
						"encoding": "dynamic_array",
						"label": "struct FarmingC2N.PoolInfo[]",
						"numberOfBytes": "32"
					},
					"t_contract(IERC20)225": {
						"encoding": "inplace",
						"label": "contract IERC20",
						"numberOfBytes": "20"
					},
					"t_mapping(t_address,t_struct(UserInfo)1908_storage)": {
						"encoding": "mapping",
						"key": "t_address",
						"label": "mapping(address => struct FarmingC2N.UserInfo)",
						"numberOfBytes": "32",
						"value": "t_struct(UserInfo)1908_storage"
					},
					"t_mapping(t_uint256,t_mapping(t_address,t_struct(UserInfo)1908_storage))": {
						"encoding": "mapping",
						"key": "t_uint256",
						"label": "mapping(uint256 => mapping(address => struct FarmingC2N.UserInfo))",
						"numberOfBytes": "32",
						"value": "t_mapping(t_address,t_struct(UserInfo)1908_storage)"
					},
					"t_struct(PoolInfo)1920_storage": {
						"encoding": "inplace",
						"label": "struct FarmingC2N.PoolInfo",
						"members": [
							{
								"astId": 1911,
								"contract": "contracts/FarmingC2N.sol:FarmingC2N",
								"label": "lpToken",
								"offset": 0,
								"slot": "0",
								"type": "t_contract(IERC20)225"
							},
							{
								"astId": 1913,
								"contract": "contracts/FarmingC2N.sol:FarmingC2N",
								"label": "allocPoint",
								"offset": 0,
								"slot": "1",
								"type": "t_uint256"
							},
							{
								"astId": 1915,
								"contract": "contracts/FarmingC2N.sol:FarmingC2N",
								"label": "lastRewardTimestamp",
								"offset": 0,
								"slot": "2",
								"type": "t_uint256"
							},
							{
								"astId": 1917,
								"contract": "contracts/FarmingC2N.sol:FarmingC2N",
								"label": "accERC20PerShare",
								"offset": 0,
								"slot": "3",
								"type": "t_uint256"
							},
							{
								"astId": 1919,
								"contract": "contracts/FarmingC2N.sol:FarmingC2N",
								"label": "totalDeposits",
								"offset": 0,
								"slot": "4",
								"type": "t_uint256"
							}
						],
						"numberOfBytes": "160"
					},
					"t_struct(UserInfo)1908_storage": {
						"encoding": "inplace",
						"label": "struct FarmingC2N.UserInfo",
						"members": [
							{
								"astId": 1905,
								"contract": "contracts/FarmingC2N.sol:FarmingC2N",
								"label": "amount",
								"offset": 0,
								"slot": "0",
								"type": "t_uint256"
							},
							{
								"astId": 1907,
								"contract": "contracts/FarmingC2N.sol:FarmingC2N",
								"label": "rewardDebt",
								"offset": 0,
								"slot": "1",
								"type": "t_uint256"
							}
						],
						"numberOfBytes": "64"
					},
					"t_uint256": {
						"encoding": "inplace",
						"label": "uint256",
						"numberOfBytes": "32"
					}
				}
			},
			"userdoc": {
				"kind": "user",
				"methods": {},
				"version": 1
			}
		}
	}
}